{
  "_format": "hh-sol-artifact-1",
  "contractName": "EVMAIAgentEscrow",
  "sourceName": "contracts/EVMAIAgentEscrow.sol",
  "abi": [
    {
      "inputs": [
        {
          "internalType": "address",
          "name": "target",
          "type": "address"
        }
      ],
      "name": "AddressEmptyCode",
      "type": "error"
    },
    {
      "inputs": [
        {
          "internalType": "address",
          "name": "implementation",
          "type": "address"
        }
      ],
      "name": "ERC1967InvalidImplementation",
      "type": "error"
    },
    {
      "inputs": [],
      "name": "ERC1967NonPayable",
      "type": "error"
    },
    {
      "inputs": [],
      "name": "EscrowNotFound",
      "type": "error"
    },
    {
      "inputs": [],
      "name": "EscrowNotPending",
      "type": "error"
    },
    {
      "inputs": [],
      "name": "FailedCall",
      "type": "error"
    },
    {
      "inputs": [],
      "name": "HasPendingPrompts",
      "type": "error"
    },
    {
      "inputs": [],
      "name": "InsufficientSpendingLimitAllowance",
      "type": "error"
    },
    {
      "inputs": [],
      "name": "InvalidInitialization",
      "type": "error"
    },
    {
      "inputs": [],
      "name": "NoActiveSpendingLimit",
      "type": "error"
    },
    {
      "inputs": [],
      "name": "NotEVMAIAgent",
      "type": "error"
    },
    {
      "inputs": [],
      "name": "NotInitializing",
      "type": "error"
    },
    {
      "inputs": [],
      "name": "NotOracle",
      "type": "error"
    },
    {
      "inputs": [],
      "name": "NotPromptOwner",
      "type": "error"
    },
    {
      "inputs": [
        {
          "internalType": "address",
          "name": "owner",
          "type": "address"
        }
      ],
      "name": "OwnableInvalidOwner",
      "type": "error"
    },
    {
      "inputs": [
        {
          "internalType": "address",
          "name": "account",
          "type": "address"
        }
      ],
      "name": "OwnableUnauthorizedAccount",
      "type": "error"
    },
    {
      "inputs": [],
      "name": "PromptNotCancellableYet",
      "type": "error"
    },
    {
      "inputs": [],
      "name": "PromptNotRefundableYet",
      "type": "error"
    },
    {
      "inputs": [],
      "name": "SpendingLimitExpired",
      "type": "error"
    },
    {
      "inputs": [],
      "name": "UUPSUnauthorizedCallContext",
      "type": "error"
    },
    {
      "inputs": [
        {
          "internalType": "bytes32",
          "name": "slot",
          "type": "bytes32"
        }
      ],
      "name": "UUPSUnsupportedProxiableUUID",
      "type": "error"
    },
    {
      "inputs": [],
      "name": "ZeroAddress",
      "type": "error"
    },
    {
      "anonymous": false,
      "inputs": [
        {
          "indexed": true,
          "internalType": "uint256",
          "name": "newFee",
          "type": "uint256"
        }
      ],
      "name": "BranchFeeUpdated",
      "type": "event"
    },
    {
      "anonymous": false,
      "inputs": [
        {
          "indexed": true,
          "internalType": "uint256",
          "name": "newFee",
          "type": "uint256"
        }
      ],
      "name": "CancellationFeeUpdated",
      "type": "event"
    },
    {
      "anonymous": false,
      "inputs": [
        {
          "indexed": false,
          "internalType": "uint64",
          "name": "version",
          "type": "uint64"
        }
      ],
      "name": "Initialized",
      "type": "event"
    },
    {
      "anonymous": false,
      "inputs": [
        {
          "indexed": true,
          "internalType": "uint256",
          "name": "newFee",
          "type": "uint256"
        }
      ],
      "name": "MetadataUpdateFeeUpdated",
      "type": "event"
    },
    {
      "anonymous": false,
      "inputs": [
        {
          "indexed": true,
          "internalType": "address",
          "name": "previousOwner",
          "type": "address"
        },
        {
          "indexed": true,
          "internalType": "address",
          "name": "newOwner",
          "type": "address"
        }
      ],
      "name": "OwnershipTransferred",
      "type": "event"
    },
    {
      "anonymous": false,
      "inputs": [
        {
          "indexed": true,
          "internalType": "uint256",
          "name": "escrowId",
          "type": "uint256"
        },
        {
          "indexed": true,
          "internalType": "address",
          "name": "user",
          "type": "address"
        },
        {
          "indexed": true,
          "internalType": "uint256",
          "name": "amount",
          "type": "uint256"
        }
      ],
      "name": "PaymentEscrowed",
      "type": "event"
    },
    {
      "anonymous": false,
      "inputs": [
        {
          "indexed": true,
          "internalType": "uint256",
          "name": "escrowId",
          "type": "uint256"
        }
      ],
      "name": "PaymentFinalized",
      "type": "event"
    },
    {
      "anonymous": false,
      "inputs": [
        {
          "indexed": true,
          "internalType": "uint256",
          "name": "escrowId",
          "type": "uint256"
        }
      ],
      "name": "PaymentRefunded",
      "type": "event"
    },
    {
      "anonymous": false,
      "inputs": [
        {
          "indexed": true,
          "internalType": "uint256",
          "name": "answerMessageId",
          "type": "uint256"
        },
        {
          "indexed": true,
          "internalType": "address",
          "name": "user",
          "type": "address"
        }
      ],
      "name": "PromptCancelled",
      "type": "event"
    },
    {
      "anonymous": false,
      "inputs": [
        {
          "indexed": true,
          "internalType": "uint256",
          "name": "newFee",
          "type": "uint256"
        }
      ],
      "name": "PromptFeeUpdated",
      "type": "event"
    },
    {
      "anonymous": false,
      "inputs": [
        {
          "indexed": true,
          "internalType": "address",
          "name": "user",
          "type": "address"
        }
      ],
      "name": "SpendingLimitCancelled",
      "type": "event"
    },
    {
      "anonymous": false,
      "inputs": [
        {
          "indexed": true,
          "internalType": "address",
          "name": "user",
          "type": "address"
        },
        {
          "indexed": true,
          "internalType": "uint256",
          "name": "allowance",
          "type": "uint256"
        },
        {
          "indexed": true,
          "internalType": "uint256",
          "name": "expiresAt",
          "type": "uint256"
        }
      ],
      "name": "SpendingLimitSet",
      "type": "event"
    },
    {
      "anonymous": false,
      "inputs": [
        {
          "indexed": true,
          "internalType": "address",
          "name": "newTreasury",
          "type": "address"
        }
      ],
      "name": "TreasuryUpdated",
      "type": "event"
    },
    {
      "anonymous": false,
      "inputs": [
        {
          "indexed": true,
          "internalType": "address",
          "name": "implementation",
          "type": "address"
        }
      ],
      "name": "Upgraded",
      "type": "event"
    },
    {
      "inputs": [],
      "name": "CANCELLATION_TIMEOUT",
      "outputs": [
        {
          "internalType": "uint256",
          "name": "",
          "type": "uint256"
        }
      ],
      "stateMutability": "view",
      "type": "function"
    },
    {
      "inputs": [],
      "name": "REFUND_TIMEOUT",
      "outputs": [
        {
          "internalType": "uint256",
          "name": "",
          "type": "uint256"
        }
      ],
      "stateMutability": "view",
      "type": "function"
    },
    {
      "inputs": [],
      "name": "UPGRADE_INTERFACE_VERSION",
      "outputs": [
        {
          "internalType": "string",
          "name": "",
          "type": "string"
        }
      ],
      "stateMutability": "view",
      "type": "function"
    },
    {
      "inputs": [],
      "name": "ableToken",
      "outputs": [
        {
          "internalType": "contract IERC20",
          "name": "",
          "type": "address"
        }
      ],
      "stateMutability": "view",
      "type": "function"
    },
    {
      "inputs": [],
      "name": "branchFee",
      "outputs": [
        {
          "internalType": "uint256",
          "name": "",
          "type": "uint256"
        }
      ],
      "stateMutability": "view",
      "type": "function"
    },
    {
      "inputs": [
        {
          "internalType": "uint256",
          "name": "_answerMessageId",
          "type": "uint256"
        }
      ],
      "name": "cancelPrompt",
      "outputs": [],
      "stateMutability": "nonpayable",
      "type": "function"
    },
    {
      "inputs": [],
      "name": "cancelSpendingLimit",
      "outputs": [],
      "stateMutability": "nonpayable",
      "type": "function"
    },
    {
      "inputs": [],
      "name": "cancellationFee",
      "outputs": [
        {
          "internalType": "uint256",
          "name": "",
          "type": "uint256"
        }
      ],
      "stateMutability": "view",
      "type": "function"
    },
    {
      "inputs": [
        {
          "internalType": "uint256",
          "name": "",
          "type": "uint256"
        }
      ],
      "name": "escrows",
      "outputs": [
        {
          "internalType": "address",
          "name": "user",
          "type": "address"
        },
        {
          "internalType": "uint256",
          "name": "amount",
          "type": "uint256"
        },
        {
          "internalType": "uint256",
          "name": "createdAt",
          "type": "uint256"
        },
        {
          "internalType": "enum EVMAIAgentEscrow.EscrowStatus",
          "name": "status",
          "type": "uint8"
        }
      ],
      "stateMutability": "view",
      "type": "function"
    },
    {
      "inputs": [],
      "name": "evmAIAgent",
      "outputs": [
        {
          "internalType": "contract IEVMAIAgent",
          "name": "",
          "type": "address"
        }
      ],
      "stateMutability": "view",
      "type": "function"
    },
    {
      "inputs": [
        {
          "internalType": "uint256",
          "name": "_escrowId",
          "type": "uint256"
        }
      ],
      "name": "finalizePayment",
      "outputs": [],
      "stateMutability": "nonpayable",
      "type": "function"
    },
    {
      "inputs": [
        {
          "internalType": "address",
          "name": "_tokenAddress",
          "type": "address"
        },
        {
          "internalType": "address",
          "name": "_agentAddress",
          "type": "address"
        },
        {
          "internalType": "address",
          "name": "_treasuryAddress",
          "type": "address"
        },
        {
          "internalType": "address",
          "name": "_initialOwner",
          "type": "address"
        },
        {
          "internalType": "uint256",
          "name": "_initialPromptFee",
          "type": "uint256"
        },
        {
          "internalType": "uint256",
          "name": "_initialCancellationFee",
          "type": "uint256"
        },
        {
          "internalType": "uint256",
          "name": "_initialMetadataUpdateFee",
          "type": "uint256"
        },
        {
          "internalType": "uint256",
          "name": "_initialBranchFee",
          "type": "uint256"
        }
      ],
      "name": "initialize",
      "outputs": [],
      "stateMutability": "nonpayable",
      "type": "function"
    },
    {
      "inputs": [
        {
          "internalType": "address",
          "name": "_user",
          "type": "address"
        },
        {
          "internalType": "uint256",
          "name": "_jobId",
          "type": "uint256"
        },
        {
          "internalType": "bytes",
          "name": "_encryptedPayload",
          "type": "bytes"
        },
        {
          "internalType": "bytes",
          "name": "_roflEncryptedKey",
          "type": "bytes"
        }
      ],
      "name": "initiateAgentJob",
      "outputs": [],
      "stateMutability": "nonpayable",
      "type": "function"
    },
    {
      "inputs": [
        {
          "internalType": "uint256",
          "name": "_originalConversationId",
          "type": "uint256"
        },
        {
          "internalType": "uint256",
          "name": "_branchPointMessageId",
          "type": "uint256"
        },
        {
          "internalType": "bytes",
          "name": "_encryptedPayload",
          "type": "bytes"
        },
        {
          "internalType": "bytes",
          "name": "_roflEncryptedKey",
          "type": "bytes"
        }
      ],
      "name": "initiateBranch",
      "outputs": [],
      "stateMutability": "nonpayable",
      "type": "function"
    },
    {
      "inputs": [
        {
          "internalType": "uint256",
          "name": "_conversationId",
          "type": "uint256"
        },
        {
          "internalType": "bytes",
          "name": "_encryptedPayload",
          "type": "bytes"
        },
        {
          "internalType": "bytes",
          "name": "_roflEncryptedKey",
          "type": "bytes"
        }
      ],
      "name": "initiateMetadataUpdate",
      "outputs": [],
      "stateMutability": "nonpayable",
      "type": "function"
    },
    {
      "inputs": [
        {
          "internalType": "uint256",
          "name": "_conversationId",
          "type": "uint256"
        },
        {
          "internalType": "bytes",
          "name": "_encryptedPayload",
          "type": "bytes"
        },
        {
          "internalType": "bytes",
          "name": "_roflEncryptedKey",
          "type": "bytes"
        }
      ],
      "name": "initiatePrompt",
      "outputs": [],
      "stateMutability": "nonpayable",
      "type": "function"
    },
    {
      "inputs": [
        {
          "internalType": "uint256",
          "name": "_conversationId",
          "type": "uint256"
        },
        {
          "internalType": "uint256",
          "name": "_promptMessageId",
          "type": "uint256"
        },
        {
          "internalType": "uint256",
          "name": "_previousAnswerMessageId",
          "type": "uint256"
        },
        {
          "internalType": "bytes",
          "name": "_encryptedPayload",
          "type": "bytes"
        },
        {
          "internalType": "bytes",
          "name": "_roflEncryptedKey",
          "type": "bytes"
        }
      ],
      "name": "initiateRegeneration",
      "outputs": [],
      "stateMutability": "nonpayable",
      "type": "function"
    },
    {
      "inputs": [],
      "name": "metadataUpdateFee",
      "outputs": [
        {
          "internalType": "uint256",
          "name": "",
          "type": "uint256"
        }
      ],
      "stateMutability": "view",
      "type": "function"
    },
    {
      "inputs": [],
      "name": "owner",
      "outputs": [
        {
          "internalType": "address",
          "name": "",
          "type": "address"
        }
      ],
      "stateMutability": "view",
      "type": "function"
    },
    {
      "inputs": [
        {
          "internalType": "address",
          "name": "",
          "type": "address"
        }
      ],
      "name": "pendingEscrowCount",
      "outputs": [
        {
          "internalType": "uint256",
          "name": "",
          "type": "uint256"
        }
      ],
      "stateMutability": "view",
      "type": "function"
    },
    {
      "inputs": [
        {
          "internalType": "uint256",
          "name": "_answerMessageId",
          "type": "uint256"
        }
      ],
      "name": "processRefund",
      "outputs": [],
      "stateMutability": "nonpayable",
      "type": "function"
    },
    {
      "inputs": [],
      "name": "promptFee",
      "outputs": [
        {
          "internalType": "uint256",
          "name": "",
          "type": "uint256"
        }
      ],
      "stateMutability": "view",
      "type": "function"
    },
    {
      "inputs": [],
      "name": "proxiableUUID",
      "outputs": [
        {
          "internalType": "bytes32",
          "name": "",
          "type": "bytes32"
        }
      ],
      "stateMutability": "view",
      "type": "function"
    },
    {
      "inputs": [],
      "name": "renounceOwnership",
      "outputs": [],
      "stateMutability": "nonpayable",
      "type": "function"
    },
    {
      "inputs": [
        {
          "internalType": "uint256",
          "name": "_newFee",
          "type": "uint256"
        }
      ],
      "name": "setBranchFee",
      "outputs": [],
      "stateMutability": "nonpayable",
      "type": "function"
    },
    {
      "inputs": [
        {
          "internalType": "uint256",
          "name": "_newFee",
          "type": "uint256"
        }
      ],
      "name": "setCancellationFee",
      "outputs": [],
      "stateMutability": "nonpayable",
      "type": "function"
    },
    {
      "inputs": [
        {
          "internalType": "uint256",
          "name": "_newFee",
          "type": "uint256"
        }
      ],
      "name": "setMetadataUpdateFee",
      "outputs": [],
      "stateMutability": "nonpayable",
      "type": "function"
    },
    {
      "inputs": [
        {
          "internalType": "uint256",
          "name": "_newFee",
          "type": "uint256"
        }
      ],
      "name": "setPromptFee",
      "outputs": [],
      "stateMutability": "nonpayable",
      "type": "function"
    },
    {
      "inputs": [
        {
          "internalType": "uint256",
          "name": "_allowance",
          "type": "uint256"
        },
        {
          "internalType": "uint256",
          "name": "_expiresAt",
          "type": "uint256"
        }
      ],
      "name": "setSpendingLimit",
      "outputs": [],
      "stateMutability": "nonpayable",
      "type": "function"
    },
    {
      "inputs": [
        {
          "internalType": "address",
          "name": "_newTreasury",
          "type": "address"
        }
      ],
      "name": "setTreasury",
      "outputs": [],
      "stateMutability": "nonpayable",
      "type": "function"
    },
    {
      "inputs": [
        {
          "internalType": "address",
          "name": "",
          "type": "address"
        }
      ],
      "name": "spendingLimits",
      "outputs": [
        {
          "internalType": "uint256",
          "name": "allowance",
          "type": "uint256"
        },
        {
          "internalType": "uint256",
          "name": "spentAmount",
          "type": "uint256"
        },
        {
          "internalType": "uint256",
          "name": "expiresAt",
          "type": "uint256"
        }
      ],
      "stateMutability": "view",
      "type": "function"
    },
    {
      "inputs": [
        {
          "internalType": "address",
          "name": "newOwner",
          "type": "address"
        }
      ],
      "name": "transferOwnership",
      "outputs": [],
      "stateMutability": "nonpayable",
      "type": "function"
    },
    {
      "inputs": [],
      "name": "treasury",
      "outputs": [
        {
          "internalType": "address",
          "name": "",
          "type": "address"
        }
      ],
      "stateMutability": "view",
      "type": "function"
    },
    {
      "inputs": [
        {
          "internalType": "address",
          "name": "newImplementation",
          "type": "address"
        },
        {
          "internalType": "bytes",
          "name": "data",
          "type": "bytes"
        }
      ],
      "name": "upgradeToAndCall",
      "outputs": [],
      "stateMutability": "payable",
      "type": "function"
    }
  ],
  "bytecode": "0x60a06040523060805234801561001457600080fd5b5060805161300a61003e60003960008181611f1e01528181611f470152612115015261300a6000f3fe6080604052600436106102195760003560e01c8063715018a61161011d578063ccdb3442116100b0578063edc37efc1161007f578063f221c23411610064578063f221c2341461069a578063f2fde38b146106ba578063f8152671146106da57600080fd5b8063edc37efc1461065a578063f0f442601461067a57600080fd5b8063ccdb3442146105e1578063dac87ca4146105f7578063df13c27a14610617578063ecad65b71461064457600080fd5b80638da5cb5b116100ec5780638da5cb5b1461050e578063ad3cb1cc1461054b578063c5224856146105a1578063c843e81c146105c157600080fd5b8063715018a6146104ae5780637d57900a146104c35780637f5a19f1146104d95780638cb210c1146104ee57600080fd5b806352d1902d116101b057806361cfdb1f1161017f578063658c820a11610164578063658c820a1461042157806369658806146104785780636ef569a51461049857600080fd5b806361cfdb1f146103e157806361d027b31461040157600080fd5b806352d1902d1461036c57806355786ece1461038157806355c9237c146103a1578063588e0b89146103c157600080fd5b80632dd10ad3116101ec5780632dd10ad3146102eb5780633b36a7de1461030b5780634f1ef286146103215780635241e72f1461033457600080fd5b8063012f52ee1461021e5780631052d8b51461028657806313159e64146102a85780631a04f42d146102c8575b600080fd5b34801561022a57600080fd5b5061026d6102393660046127e6565b60096020526000908152604090208054600182015460028301546003909301546001600160a01b0390921692909160ff1684565b60405161027d949392919061282e565b60405180910390f35b34801561029257600080fd5b506102a66102a13660046127e6565b6106fa565b005b3480156102b457600080fd5b506102a66102c33660046127e6565b610735565b3480156102d457600080fd5b506102dd600381565b60405190815260200161027d565b3480156102f757600080fd5b506102a66103063660046127e6565b610b03565b34801561031757600080fd5b506102dd60065481565b6102a661032f3660046128d6565b610b3e565b34801561034057600080fd5b50600054610354906001600160a01b031681565b6040516001600160a01b03909116815260200161027d565b34801561037857600080fd5b506102dd610b5d565b34801561038d57600080fd5b506102a661039c366004612a01565b610b8c565b3480156103ad57600080fd5b506102a66103bc366004612a8d565b610ee8565b3480156103cd57600080fd5b506102a66103dc366004612acc565b61100f565b3480156103ed57600080fd5b506102a66103fc3660046127e6565b6112df565b34801561040d57600080fd5b50600254610354906001600160a01b031681565b34801561042d57600080fd5b5061045d61043c366004612b46565b60076020526000908152604090208054600182015460029092015490919083565b6040805193845260208401929092529082015260600161027d565b34801561048457600080fd5b506102a66104933660046127e6565b61131a565b3480156104a457600080fd5b506102dd60045481565b3480156104ba57600080fd5b506102a6611501565b3480156104cf57600080fd5b506102dd610e1081565b3480156104e557600080fd5b506102a6611515565b3480156104fa57600080fd5b506102a6610509366004612acc565b6115a3565b34801561051a57600080fd5b507f9016d09d72d40fdae2fd8ceac6b6234c7706214fd39c1cd1e609a0528c199300546001600160a01b0316610354565b34801561055757600080fd5b506105946040518060400160405280600581526020017f352e302e3000000000000000000000000000000000000000000000000000000081525081565b60405161027d9190612b87565b3480156105ad57600080fd5b506102a66105bc3660046127e6565b61163b565b3480156105cd57600080fd5b506102a66105dc366004612bd8565b611676565b3480156105ed57600080fd5b506102dd60055481565b34801561060357600080fd5b506102a66106123660046127e6565b6118e6565b34801561062357600080fd5b506102dd610632366004612b46565b60086020526000908152604090205481565b34801561065057600080fd5b506102dd60035481565b34801561066657600080fd5b50600154610354906001600160a01b031681565b34801561068657600080fd5b506102a6610695366004612b46565b611b16565b3480156106a657600080fd5b506102a66106b5366004612c58565b611bc0565b3480156106c657600080fd5b506102a66106d5366004612b46565b611d8f565b3480156106e657600080fd5b506102a66106f5366004612ce5565b611deb565b610702611e9f565b600681905560405181907f4e2e12fcddc1b371d183ac1bdf59f5f7163f95ca29db7711fb8b28ef01fe74e490600090a250565b6000818152600960209081526040808320338085526007909352922082548493926001600160a01b0390911614610798576040517fc5fde46b00000000000000000000000000000000000000000000000000000000815260040160405180910390fd5b6000600383015460ff1660028111156107b3576107b36127ff565b146107ea576040517f523b659600000000000000000000000000000000000000000000000000000000815260040160405180910390fd5b600382600201546107fb9190612d36565b421015610834576040517f60d1517a00000000000000000000000000000000000000000000000000000000815260040160405180910390fd5b816001015481600101600082825461084c9190612d49565b9091555050600182015481548290600090610868908490612d49565b9091555050600454600182015461087f9190612d36565b815410156108b9576040517f3ee5d04100000000000000000000000000000000000000000000000000000000815260040160405180910390fd5b6004548160010160008282546108cf9190612d36565b9091555050600454815482906000906108e9908490612d49565b9091555050600054600254600480546040517f23b872dd00000000000000000000000000000000000000000000000000000000815233928101929092526001600160a01b03928316602483015260448201529116906323b872dd906064016020604051808303816000875af1158015610966573d6000803e3d6000fd5b505050506040513d601f19601f8201168201806040525081019061098a9190612d5c565b5033600090815260086020526040812080549091906109a890612d7e565b9091555060038201805460ff191660021790556001546040517fd3e64bc8000000000000000000000000000000000000000000000000000000008152336004820152602481018690526001600160a01b039091169063d3e64bc890604401600060405180830381600087803b158015610a2057600080fd5b505af1158015610a34573d6000803e3d6000fd5b5050600054845460018601546040517fa9059cbb0000000000000000000000000000000000000000000000000000000081526001600160a01b03928316600482015260248101919091529116925063a9059cbb91506044016020604051808303816000875af1158015610aab573d6000803e3d6000fd5b505050506040513d601f19601f82011682018060405250810190610acf9190612d5c565b50604051339085907fe114c43a105de55aff59ea59cd20fb454d6e21dd21432a1367d000ecef61bd6490600090a350505050565b610b0b611e9f565b600481905560405181907f5b81b8e66a81fbba6ded220cf668cb5da777acaa83cafe789c2699cad0efd80890600090a250565b610b46611f13565b610b4f82611fe3565b610b598282611feb565b5050565b6000610b6761210a565b507f360894a13ba1a3210667c828492db98dca3e2076cc3735a920a3ca505d382bbc90565b600160009054906101000a90046001600160a01b03166001600160a01b0316637dc0d1d06040518163ffffffff1660e01b8152600401602060405180830381865afa158015610bdf573d6000803e3d6000fd5b505050506040513d601f19601f82011682018060405250810190610c039190612db3565b6001600160a01b0316336001600160a01b031614610c4d576040517f1bc2178f00000000000000000000000000000000000000000000000000000000815260040160405180910390fd5b610c598660035461216c565b846000819003610cdf57600160009054906101000a90046001600160a01b03166001600160a01b031663c8f7f3df6040518163ffffffff1660e01b81526004016020604051808303816000875af1158015610cb8573d6000803e3d6000fd5b505050506040513d601f19601f82011682018060405250810190610cdc9190612dd0565b90505b600154604080517f40b333da00000000000000000000000000000000000000000000000000000000815290516000926001600160a01b0316916340b333da916004808301926020929190829003018187875af1158015610d43573d6000803e3d6000fd5b505050506040513d601f19601f82011682018060405250810190610d679190612dd0565b604080516080810182526001600160a01b038b8116825260038054602080850191825242858701908152600060608701818152898252600990935296909620855181547fffffffffffffffffffffffff000000000000000000000000000000000000000016951694909417845590516001808501919091559451600280850191909155905191830180549697508796949593949293909260ff1916918490811115610e1457610e146127ff565b0217905550905050600354896001600160a01b0316827f2f3c4f27eb1db28d21f423c207ea1f397503ab0c3399982719e036d008398c5860405160405180910390a46001546040517f74a271610000000000000000000000000000000000000000000000000000000081526001600160a01b03909116906374a2716190610eab908c90879087908d908d908d908d90600401612e32565b600060405180830381600087803b158015610ec557600080fd5b505af1158015610ed9573d6000803e3d6000fd5b50505050505050505050505050565b610ef4336006546122e4565b600154604080517ff6ecad5500000000000000000000000000000000000000000000000000000000815290516000926001600160a01b03169163f6ecad55916004808301926020929190829003018187875af1158015610f58573d6000803e3d6000fd5b505050506040513d601f19601f82011682018060405250810190610f7c9190612dd0565b6001546040517fd17cae450000000000000000000000000000000000000000000000000000000081529192506001600160a01b03169063d17cae4590610fd49033908b908b9087908c908c908c908c90600401612e82565b600060405180830381600087803b158015610fee57600080fd5b505af1158015611002573d6000803e3d6000fd5b5050505050505050505050565b61101b3360035461216c565b8460008190036110a157600160009054906101000a90046001600160a01b03166001600160a01b031663f6ecad556040518163ffffffff1660e01b81526004016020604051808303816000875af115801561107a573d6000803e3d6000fd5b505050506040513d601f19601f8201168201806040525081019061109e9190612dd0565b90505b600154604080517fe2cd17a600000000000000000000000000000000000000000000000000000000815290516000926001600160a01b03169163e2cd17a6916004808301926020929190829003018187875af1158015611105573d6000803e3d6000fd5b505050506040513d601f19601f820116820180604052508101906111299190612dd0565b90506000600160009054906101000a90046001600160a01b03166001600160a01b031663e2cd17a66040518163ffffffff1660e01b81526004016020604051808303816000875af1158015611182573d6000803e3d6000fd5b505050506040513d601f19601f820116820180604052508101906111a69190612dd0565b6040805160808101825233815260038054602080840191825242848601908152600060608601818152888252600990935295909520845181547fffffffffffffffffffffffff0000000000000000000000000000000000000000166001600160a01b039091161781559151600180840191909155945160028084019190915590519282018054969750879694959294909260ff1990911691849081111561124f5761124f6127ff565b021790555050600354604051909150339083907f2f3c4f27eb1db28d21f423c207ea1f397503ab0c3399982719e036d008398c5890600090a46001546040517f0f6a842e0000000000000000000000000000000000000000000000000000000081526001600160a01b0390911690630f6a842e90610eab9033908890889088908f908f908f908f90600401612e82565b6112e7611e9f565b600381905560405181907f3fd8bf3c49bb6f6bc6c7f054afbd1438f44bc2a5dea88b6dfaf57dedbdeac35c90600090a250565b6001546001600160a01b0316331461135e576040517f22fb47e900000000000000000000000000000000000000000000000000000000815260040160405180910390fd5b600081815260096020526040902080546001600160a01b03166113ad576040517ff1d80ab100000000000000000000000000000000000000000000000000000000815260040160405180910390fd5b6000600382015460ff1660028111156113c8576113c86127ff565b146113ff576040517f523b659600000000000000000000000000000000000000000000000000000000815260040160405180910390fd5b80546001600160a01b03166000908152600860205260408120805490919061142690612d7e565b9091555060038101805460ff1916600117905560405182907fa3f0d45b13be973f775e525b275f23b411c2afafc91835e0a3e2a4b46e635f4990600090a260005460025460018301546040517fa9059cbb0000000000000000000000000000000000000000000000000000000081526001600160a01b039283166004820152602481019190915291169063a9059cbb906044016020604051808303816000875af11580156114d8573d6000803e3d6000fd5b505050506040513d601f19601f820116820180604052508101906114fc9190612d5c565b505050565b611509611e9f565b611513600061244f565b565b336000908152600860205260409020541561155c576040517f9d4f979400000000000000000000000000000000000000000000000000000000815260040160405180910390fd5b3360008181526007602052604080822082815560018101839055600201829055517fd814266a306964671aa20c3f1095fabf48d4924f1ab973d6334ccbd16a8a33739190a2565b6115af336005546122e4565b6001546040517fa10a2df40000000000000000000000000000000000000000000000000000000081526001600160a01b039091169063a10a2df49061160290339089908990899089908990600401612ed9565b600060405180830381600087803b15801561161c57600080fd5b505af1158015611630573d6000803e3d6000fd5b505050505050505050565b611643611e9f565b600581905560405181907f319450fd8d3baff915a83e89c9ebb8265bd2cb1835352f3a3d7d6a5f99094ba290600090a250565b60006116806124d8565b805490915060ff68010000000000000000820416159067ffffffffffffffff166000811580156116ad5750825b905060008267ffffffffffffffff1660011480156116ca5750303b155b9050811580156116d8575080155b1561170f576040517ff92ee8a900000000000000000000000000000000000000000000000000000000815260040160405180910390fd5b84547fffffffffffffffffffffffffffffffffffffffffffffffff000000000000000016600117855583156117705784547fffffffffffffffffffffffffffffffffffffffffffffff00ffffffffffffffff16680100000000000000001785555b6117798a612503565b611781612514565b6001600160a01b038d16158061179e57506001600160a01b038c16155b806117b057506001600160a01b038b16155b156117e7576040517fd92e233d00000000000000000000000000000000000000000000000000000000815260040160405180910390fd5b8c6000806101000a8154816001600160a01b0302191690836001600160a01b031602179055508b600160006101000a8154816001600160a01b0302191690836001600160a01b031602179055508a600260006101000a8154816001600160a01b0302191690836001600160a01b03160217905550886003819055508760048190555086600581905550856006819055508315610ed95784547fffffffffffffffffffffffffffffffffffffffffffffff00ffffffffffffffff168555604051600181527fc7f505b2f371ae2175ee4913f4499e1f2633a7b5936321eed1cdaeb6115181d29060200160405180910390a150505050505050505050505050565b600081815260096020526040902080548291906001600160a01b031661190b57505050565b6000600382015460ff166002811115611926576119266127ff565b1461195d576040517f523b659600000000000000000000000000000000000000000000000000000000815260040160405180910390fd5b610e10816002015461196f9190612d36565b4210156119a8576040517f19ef5b0f00000000000000000000000000000000000000000000000000000000815260040160405180910390fd5b80546001600160a01b0316600090815260086020526040812080549091906119cf90612d7e565b9091555060038101805460ff1916600217905560018082015482546001600160a01b03166000908152600760205260408120909201805491929091611a15908490612d49565b9091555050600181015481546001600160a01b031660009081526007602052604081208054909190611a48908490612d49565b909155505060405182907fc12258dbc8f5aaf21f9b7ef40fbfb87befc7c46ac42dccc2c5cc565347e56ee690600090a2600054815460018301546040517fa9059cbb0000000000000000000000000000000000000000000000000000000081526001600160a01b039283166004820152602481019190915291169063a9059cbb906044015b6020604051808303816000875af1158015611aec573d6000803e3d6000fd5b505050506040513d601f19601f82011682018060405250810190611b109190612d5c565b50505050565b611b1e611e9f565b6001600160a01b038116611b5e576040517fd92e233d00000000000000000000000000000000000000000000000000000000815260040160405180910390fd5b600280547fffffffffffffffffffffffff0000000000000000000000000000000000000000166001600160a01b0383169081179091556040517f7dae230f18360d76a040c81f050aa14eb9d6dc7901b20fc5d855e2a20fe814d190600090a250565b611bcc3360035461216c565b600154604080517fe2cd17a600000000000000000000000000000000000000000000000000000000815290516000926001600160a01b03169163e2cd17a6916004808301926020929190829003018187875af1158015611c30573d6000803e3d6000fd5b505050506040513d601f19601f82011682018060405250810190611c549190612dd0565b6040805160808101825233815260038054602080840191825242848601908152600060608601818152888252600990935295909520845181547fffffffffffffffffffffffff0000000000000000000000000000000000000000166001600160a01b039091161781559151600180840191909155945160028084019190915590519282018054969750879694959294909260ff19909116918490811115611cfd57611cfd6127ff565b021790555050600354604051909150339083907f2f3c4f27eb1db28d21f423c207ea1f397503ab0c3399982719e036d008398c5890600090a46001546040517fe88d193b0000000000000000000000000000000000000000000000000000000081526001600160a01b039091169063e88d193b90610eab9033908d908d908d9089908e908e908e908e90600401612f22565b611d97611e9f565b6001600160a01b038116611ddf576040517f1e4fbdf7000000000000000000000000000000000000000000000000000000008152600060048201526024015b60405180910390fd5b611de88161244f565b50565b3360009081526008602052604090205415611e32576040517f9d4f979400000000000000000000000000000000000000000000000000000000815260040160405180910390fd5b6040805160608101825283815260006020808301828152838501868152338085526007909352858420945185559051600185015551600290930192909255915183928592917f149b95d169259a113227b180d7190d669dcfdef24fe125d82cd13874e341a4f99190a45050565b33611ed17f9016d09d72d40fdae2fd8ceac6b6234c7706214fd39c1cd1e609a0528c199300546001600160a01b031690565b6001600160a01b031614611513576040517f118cdaa7000000000000000000000000000000000000000000000000000000008152336004820152602401611dd6565b306001600160a01b037f0000000000000000000000000000000000000000000000000000000000000000161480611fac57507f00000000000000000000000000000000000000000000000000000000000000006001600160a01b0316611fa07f360894a13ba1a3210667c828492db98dca3e2076cc3735a920a3ca505d382bbc546001600160a01b031690565b6001600160a01b031614155b15611513576040517fe07c8dba00000000000000000000000000000000000000000000000000000000815260040160405180910390fd5b611de8611e9f565b816001600160a01b03166352d1902d6040518163ffffffff1660e01b8152600401602060405180830381865afa925050508015612063575060408051601f3d9081017fffffffffffffffffffffffffffffffffffffffffffffffffffffffffffffffe016820190925261206091810190612dd0565b60015b6120a4576040517f4c9c8ce30000000000000000000000000000000000000000000000000000000081526001600160a01b0383166004820152602401611dd6565b7f360894a13ba1a3210667c828492db98dca3e2076cc3735a920a3ca505d382bbc8114612100576040517faa1d49a400000000000000000000000000000000000000000000000000000000815260048101829052602401611dd6565b6114fc838361251c565b306001600160a01b037f00000000000000000000000000000000000000000000000000000000000000001614611513576040517fe07c8dba00000000000000000000000000000000000000000000000000000000815260040160405180910390fd5b6001600160a01b038216600090815260076020526040812060028101549091036121c2576040517f859a68cc00000000000000000000000000000000000000000000000000000000815260040160405180910390fd5b806002015442106121ff576040517f2657502300000000000000000000000000000000000000000000000000000000815260040160405180910390fd5b80546001820154612211908490612d36565b1115612249576040517f3ee5d04100000000000000000000000000000000000000000000000000000000815260040160405180910390fd5b8181600101600082825461225d9190612d36565b90915550506001600160a01b0383166000908152600860205260408120805490919061228890612f80565b909155506000546040517f23b872dd0000000000000000000000000000000000000000000000000000000081526001600160a01b03858116600483015230602483015260448201859052909116906323b872dd90606401611acd565b6001600160a01b0382166000908152600760205260408120600281015490910361233a576040517f859a68cc00000000000000000000000000000000000000000000000000000000815260040160405180910390fd5b80600201544210612377576040517f2657502300000000000000000000000000000000000000000000000000000000815260040160405180910390fd5b80546001820154612389908490612d36565b11156123c1576040517f3ee5d04100000000000000000000000000000000000000000000000000000000815260040160405180910390fd5b818160010160008282546123d59190612d36565b90915550508054829082906000906123ee908490612d49565b90915550506000546002546040517f23b872dd0000000000000000000000000000000000000000000000000000000081526001600160a01b0386811660048301529182166024820152604481018590529116906323b872dd90606401611acd565b7f9016d09d72d40fdae2fd8ceac6b6234c7706214fd39c1cd1e609a0528c19930080547fffffffffffffffffffffffff000000000000000000000000000000000000000081166001600160a01b03848116918217845560405192169182907f8be0079c531659141344cd1fd0a4f28419497f9722a3daafe3b4186f6b6457e090600090a3505050565b6000807ff0c57e16840df040f15088dc2f81fe391c3923bec73e23a9662efc9c229c6a005b92915050565b61250b612572565b611de8816125b0565b611513612572565b612525826125b8565b6040516001600160a01b038316907fbc7cd75a20ee27fd9adebab32041f755214dbc6bffa90cc0225b39da2e5c2d3b90600090a280511561256a576114fc8282612660565b610b596126d6565b61257a61270e565b611513576040517fd7e6bcf800000000000000000000000000000000000000000000000000000000815260040160405180910390fd5b611d97612572565b806001600160a01b03163b600003612607576040517f4c9c8ce30000000000000000000000000000000000000000000000000000000081526001600160a01b0382166004820152602401611dd6565b7f360894a13ba1a3210667c828492db98dca3e2076cc3735a920a3ca505d382bbc80547fffffffffffffffffffffffff0000000000000000000000000000000000000000166001600160a01b0392909216919091179055565b6060600080846001600160a01b03168460405161267d9190612fb8565b600060405180830381855af49150503d80600081146126b8576040519150601f19603f3d011682016040523d82523d6000602084013e6126bd565b606091505b50915091506126cd85838361272d565b95945050505050565b3415611513576040517fb398979f00000000000000000000000000000000000000000000000000000000815260040160405180910390fd5b60006127186124d8565b5468010000000000000000900460ff16919050565b6060826127425761273d826127a5565b61279e565b815115801561275957506001600160a01b0384163b155b1561279b576040517f9996b3150000000000000000000000000000000000000000000000000000000081526001600160a01b0385166004820152602401611dd6565b50805b9392505050565b8051156127b457805160208201fd5b6040517fd6bda27500000000000000000000000000000000000000000000000000000000815260040160405180910390fd5b6000602082840312156127f857600080fd5b5035919050565b7f4e487b7100000000000000000000000000000000000000000000000000000000600052602160045260246000fd5b6001600160a01b038516815260208101849052604081018390526080810160038310612883577f4e487b7100000000000000000000000000000000000000000000000000000000600052602160045260246000fd5b82606083015295945050505050565b6001600160a01b0381168114611de857600080fd5b7f4e487b7100000000000000000000000000000000000000000000000000000000600052604160045260246000fd5b600080604083850312156128e957600080fd5b82356128f481612892565b9150602083013567ffffffffffffffff8082111561291157600080fd5b818501915085601f83011261292557600080fd5b813581811115612937576129376128a7565b604051601f82017fffffffffffffffffffffffffffffffffffffffffffffffffffffffffffffffe0908116603f0116810190838211818310171561297d5761297d6128a7565b8160405282815288602084870101111561299657600080fd5b8260208601602083013760006020848301015280955050505050509250929050565b60008083601f8401126129ca57600080fd5b50813567ffffffffffffffff8111156129e257600080fd5b6020830191508360208285010111156129fa57600080fd5b9250929050565b60008060008060008060808789031215612a1a57600080fd5b8635612a2581612892565b955060208701359450604087013567ffffffffffffffff80821115612a4957600080fd5b612a558a838b016129b8565b90965094506060890135915080821115612a6e57600080fd5b50612a7b89828a016129b8565b979a9699509497509295939492505050565b60008060008060008060808789031215612aa657600080fd5b8635955060208701359450604087013567ffffffffffffffff80821115612a4957600080fd5b600080600080600060608688031215612ae457600080fd5b85359450602086013567ffffffffffffffff80821115612b0357600080fd5b612b0f89838a016129b8565b90965094506040880135915080821115612b2857600080fd5b50612b35888289016129b8565b969995985093965092949392505050565b600060208284031215612b5857600080fd5b813561279e81612892565b60005b83811015612b7e578181015183820152602001612b66565b50506000910152565b6020815260008251806020840152612ba6816040850160208701612b63565b601f017fffffffffffffffffffffffffffffffffffffffffffffffffffffffffffffffe0169190910160400192915050565b600080600080600080600080610100898b031215612bf557600080fd5b8835612c0081612892565b97506020890135612c1081612892565b96506040890135612c2081612892565b95506060890135612c3081612892565b979a969950949760808101359660a0820135965060c0820135955060e0909101359350915050565b600080600080600080600060a0888a031215612c7357600080fd5b873596506020880135955060408801359450606088013567ffffffffffffffff80821115612ca057600080fd5b612cac8b838c016129b8565b909650945060808a0135915080821115612cc557600080fd5b50612cd28a828b016129b8565b989b979a50959850939692959293505050565b60008060408385031215612cf857600080fd5b50508035926020909101359150565b7f4e487b7100000000000000000000000000000000000000000000000000000000600052601160045260246000fd5b808201808211156124fd576124fd612d07565b818103818111156124fd576124fd612d07565b600060208284031215612d6e57600080fd5b8151801515811461279e57600080fd5b600081612d8d57612d8d612d07565b507fffffffffffffffffffffffffffffffffffffffffffffffffffffffffffffffff0190565b600060208284031215612dc557600080fd5b815161279e81612892565b600060208284031215612de257600080fd5b5051919050565b8183528181602085013750600060208284010152600060207fffffffffffffffffffffffffffffffffffffffffffffffffffffffffffffffe0601f840116840101905092915050565b6001600160a01b038816815286602082015285604082015260a060608201526000612e6160a083018688612de9565b8281036080840152612e74818587612de9565b9a9950505050505050505050565b6001600160a01b038916815287602082015286604082015285606082015260c060808201526000612eb760c083018688612de9565b82810360a0840152612eca818587612de9565b9b9a5050505050505050505050565b6001600160a01b0387168152856020820152608060408201526000612f02608083018688612de9565b8281036060840152612f15818587612de9565b9998505050505050505050565b6001600160a01b038a16815288602082015287604082015286606082015285608082015260e060a08201526000612f5d60e083018688612de9565b82810360c0840152612f70818587612de9565b9c9b505050505050505050505050565b60007fffffffffffffffffffffffffffffffffffffffffffffffffffffffffffffffff8203612fb157612fb1612d07565b5060010190565b60008251612fca818460208701612b63565b919091019291505056fea2646970667358221220f18978f2553bc0d8d138f659e7a650dd2a19d283e769610732fa7f8f1189570964736f6c63430008180033",
  "linkReferences": {},
  "deployedLinkReferences": {}
}