{
  "_format": "hh-sol-artifact-1",
  "contractName": "EVMAIAgent",
  "sourceName": "contracts/EVMAIAgent.sol",
  "abi": [
    {
      "inputs": [
        {
          "internalType": "address",
          "name": "target",
          "type": "address"
        }
      ],
      "name": "AddressEmptyCode",
      "type": "error"
    },
    {
      "inputs": [],
      "name": "AgentEscrowAlreadySet",
      "type": "error"
    },
    {
      "inputs": [],
      "name": "AnswerCIDRequired",
      "type": "error"
    },
    {
      "inputs": [
        {
          "internalType": "address",
          "name": "implementation",
          "type": "address"
        }
      ],
      "name": "ERC1967InvalidImplementation",
      "type": "error"
    },
    {
      "inputs": [],
      "name": "ERC1967NonPayable",
      "type": "error"
    },
    {
      "inputs": [],
      "name": "FailedCall",
      "type": "error"
    },
    {
      "inputs": [],
      "name": "InvalidInitialization",
      "type": "error"
    },
    {
      "inputs": [],
      "name": "InvalidPromptMessageId",
      "type": "error"
    },
    {
      "inputs": [],
      "name": "JobAlreadyFinalized",
      "type": "error"
    },
    {
      "inputs": [],
      "name": "NotAIAgentEscrow",
      "type": "error"
    },
    {
      "inputs": [],
      "name": "NotInitializing",
      "type": "error"
    },
    {
      "inputs": [
        {
          "internalType": "address",
          "name": "owner",
          "type": "address"
        }
      ],
      "name": "OwnableInvalidOwner",
      "type": "error"
    },
    {
      "inputs": [
        {
          "internalType": "address",
          "name": "account",
          "type": "address"
        }
      ],
      "name": "OwnableUnauthorizedAccount",
      "type": "error"
    },
    {
      "inputs": [],
      "name": "RegenerationAlreadyPending",
      "type": "error"
    },
    {
      "inputs": [],
      "name": "UUPSUnauthorizedCallContext",
      "type": "error"
    },
    {
      "inputs": [
        {
          "internalType": "bytes32",
          "name": "slot",
          "type": "bytes32"
        }
      ],
      "name": "UUPSUnsupportedProxiableUUID",
      "type": "error"
    },
    {
      "inputs": [],
      "name": "Unauthorized",
      "type": "error"
    },
    {
      "inputs": [],
      "name": "UnauthorizedOracle",
      "type": "error"
    },
    {
      "inputs": [],
      "name": "ZeroAddress",
      "type": "error"
    },
    {
      "anonymous": false,
      "inputs": [
        {
          "indexed": true,
          "internalType": "address",
          "name": "newAIAgentEscrow",
          "type": "address"
        }
      ],
      "name": "AgentEscrowUpdated",
      "type": "event"
    },
    {
      "anonymous": false,
      "inputs": [
        {
          "indexed": true,
          "internalType": "address",
          "name": "user",
          "type": "address"
        },
        {
          "indexed": true,
          "internalType": "uint256",
          "name": "jobId",
          "type": "uint256"
        },
        {
          "indexed": true,
          "internalType": "uint256",
          "name": "triggerId",
          "type": "uint256"
        },
        {
          "indexed": false,
          "internalType": "bytes",
          "name": "encryptedPayload",
          "type": "bytes"
        },
        {
          "indexed": false,
          "internalType": "bytes",
          "name": "roflEncryptedKey",
          "type": "bytes"
        }
      ],
      "name": "AgentJobSubmitted",
      "type": "event"
    },
    {
      "anonymous": false,
      "inputs": [
        {
          "indexed": true,
          "internalType": "uint256",
          "name": "conversationId",
          "type": "uint256"
        },
        {
          "indexed": true,
          "internalType": "uint256",
          "name": "messageId",
          "type": "uint256"
        },
        {
          "indexed": false,
          "internalType": "string",
          "name": "messageCID",
          "type": "string"
        }
      ],
      "name": "AnswerMessageAdded",
      "type": "event"
    },
    {
      "anonymous": false,
      "inputs": [
        {
          "indexed": true,
          "internalType": "address",
          "name": "user",
          "type": "address"
        },
        {
          "indexed": true,
          "internalType": "uint256",
          "name": "originalConversationId",
          "type": "uint256"
        },
        {
          "indexed": false,
          "internalType": "uint256",
          "name": "branchPointMessageId",
          "type": "uint256"
        },
        {
          "indexed": false,
          "internalType": "uint256",
          "name": "newConversationId",
          "type": "uint256"
        },
        {
          "indexed": false,
          "internalType": "bytes",
          "name": "encryptedPayload",
          "type": "bytes"
        },
        {
          "indexed": false,
          "internalType": "bytes",
          "name": "roflEncryptedKey",
          "type": "bytes"
        }
      ],
      "name": "BranchRequested",
      "type": "event"
    },
    {
      "anonymous": false,
      "inputs": [
        {
          "indexed": true,
          "internalType": "address",
          "name": "user",
          "type": "address"
        },
        {
          "indexed": true,
          "internalType": "uint256",
          "name": "conversationId",
          "type": "uint256"
        },
        {
          "indexed": false,
          "internalType": "string",
          "name": "conversationCID",
          "type": "string"
        },
        {
          "indexed": false,
          "internalType": "string",
          "name": "metadataCID",
          "type": "string"
        }
      ],
      "name": "ConversationAdded",
      "type": "event"
    },
    {
      "anonymous": false,
      "inputs": [
        {
          "indexed": true,
          "internalType": "address",
          "name": "user",
          "type": "address"
        },
        {
          "indexed": true,
          "internalType": "uint256",
          "name": "newConversationId",
          "type": "uint256"
        },
        {
          "indexed": false,
          "internalType": "uint256",
          "name": "originalConversationId",
          "type": "uint256"
        },
        {
          "indexed": false,
          "internalType": "uint256",
          "name": "branchPointMessageId",
          "type": "uint256"
        },
        {
          "indexed": false,
          "internalType": "string",
          "name": "conversationCID",
          "type": "string"
        },
        {
          "indexed": false,
          "internalType": "string",
          "name": "metadataCID",
          "type": "string"
        }
      ],
      "name": "ConversationBranched",
      "type": "event"
    },
    {
      "anonymous": false,
      "inputs": [
        {
          "indexed": true,
          "internalType": "uint256",
          "name": "conversationId",
          "type": "uint256"
        },
        {
          "indexed": false,
          "internalType": "string",
          "name": "newConversationMetadataCID",
          "type": "string"
        }
      ],
      "name": "ConversationMetadataUpdated",
      "type": "event"
    },
    {
      "anonymous": false,
      "inputs": [
        {
          "indexed": false,
          "internalType": "uint64",
          "name": "version",
          "type": "uint64"
        }
      ],
      "name": "Initialized",
      "type": "event"
    },
    {
      "anonymous": false,
      "inputs": [
        {
          "indexed": true,
          "internalType": "address",
          "name": "user",
          "type": "address"
        },
        {
          "indexed": true,
          "internalType": "uint256",
          "name": "conversationId",
          "type": "uint256"
        },
        {
          "indexed": false,
          "internalType": "bytes",
          "name": "encryptedPayload",
          "type": "bytes"
        },
        {
          "indexed": false,
          "internalType": "bytes",
          "name": "roflEncryptedKey",
          "type": "bytes"
        }
      ],
      "name": "MetadataUpdateRequested",
      "type": "event"
    },
    {
      "anonymous": false,
      "inputs": [
        {
          "indexed": true,
          "internalType": "address",
          "name": "newOracle",
          "type": "address"
        }
      ],
      "name": "OracleUpdated",
      "type": "event"
    },
    {
      "anonymous": false,
      "inputs": [
        {
          "indexed": true,
          "internalType": "address",
          "name": "previousOwner",
          "type": "address"
        },
        {
          "indexed": true,
          "internalType": "address",
          "name": "newOwner",
          "type": "address"
        }
      ],
      "name": "OwnershipTransferred",
      "type": "event"
    },
    {
      "anonymous": false,
      "inputs": [
        {
          "indexed": true,
          "internalType": "address",
          "name": "user",
          "type": "address"
        },
        {
          "indexed": true,
          "internalType": "uint256",
          "name": "answerMessageId",
          "type": "uint256"
        }
      ],
      "name": "PromptCancelled",
      "type": "event"
    },
    {
      "anonymous": false,
      "inputs": [
        {
          "indexed": true,
          "internalType": "uint256",
          "name": "conversationId",
          "type": "uint256"
        },
        {
          "indexed": true,
          "internalType": "uint256",
          "name": "messageId",
          "type": "uint256"
        },
        {
          "indexed": false,
          "internalType": "string",
          "name": "messageCID",
          "type": "string"
        }
      ],
      "name": "PromptMessageAdded",
      "type": "event"
    },
    {
      "anonymous": false,
      "inputs": [
        {
          "indexed": true,
          "internalType": "address",
          "name": "user",
          "type": "address"
        },
        {
          "indexed": true,
          "internalType": "uint256",
          "name": "conversationId",
          "type": "uint256"
        },
        {
          "indexed": true,
          "internalType": "uint256",
          "name": "promptMessageId",
          "type": "uint256"
        },
        {
          "indexed": false,
          "internalType": "uint256",
          "name": "answerMessageId",
          "type": "uint256"
        },
        {
          "indexed": false,
          "internalType": "bytes",
          "name": "encryptedPayload",
          "type": "bytes"
        },
        {
          "indexed": false,
          "internalType": "bytes",
          "name": "roflEncryptedKey",
          "type": "bytes"
        }
      ],
      "name": "PromptSubmitted",
      "type": "event"
    },
    {
      "anonymous": false,
      "inputs": [
        {
          "indexed": true,
          "internalType": "address",
          "name": "user",
          "type": "address"
        },
        {
          "indexed": true,
          "internalType": "uint256",
          "name": "conversationId",
          "type": "uint256"
        },
        {
          "indexed": true,
          "internalType": "uint256",
          "name": "promptMessageId",
          "type": "uint256"
        },
        {
          "indexed": false,
          "internalType": "uint256",
          "name": "originalAnswerMessageId",
          "type": "uint256"
        },
        {
          "indexed": false,
          "internalType": "uint256",
          "name": "answerMessageId",
          "type": "uint256"
        },
        {
          "indexed": false,
          "internalType": "bytes",
          "name": "encryptedPayload",
          "type": "bytes"
        },
        {
          "indexed": false,
          "internalType": "bytes",
          "name": "roflEncryptedKey",
          "type": "bytes"
        }
      ],
      "name": "RegenerationRequested",
      "type": "event"
    },
    {
      "anonymous": false,
      "inputs": [
        {
          "indexed": true,
          "internalType": "uint256",
          "name": "messageId",
          "type": "uint256"
        },
        {
          "indexed": false,
          "internalType": "string",
          "name": "searchDeltaCID",
          "type": "string"
        }
      ],
      "name": "SearchIndexDeltaAdded",
      "type": "event"
    },
    {
      "anonymous": false,
      "inputs": [
        {
          "indexed": true,
          "internalType": "address",
          "name": "implementation",
          "type": "address"
        }
      ],
      "name": "Upgraded",
      "type": "event"
    },
    {
      "inputs": [],
      "name": "UPGRADE_INTERFACE_VERSION",
      "outputs": [
        {
          "internalType": "string",
          "name": "",
          "type": "string"
        }
      ],
      "stateMutability": "view",
      "type": "function"
    },
    {
      "inputs": [],
      "name": "aiAgentEscrow",
      "outputs": [
        {
          "internalType": "contract IEVMAIAgentEscrow",
          "name": "",
          "type": "address"
        }
      ],
      "stateMutability": "view",
      "type": "function"
    },
    {
      "inputs": [],
      "name": "conversationIdCounter",
      "outputs": [
        {
          "internalType": "uint256",
          "name": "",
          "type": "uint256"
        }
      ],
      "stateMutability": "view",
      "type": "function"
    },
    {
      "inputs": [
        {
          "internalType": "uint256",
          "name": "",
          "type": "uint256"
        }
      ],
      "name": "conversationToOwner",
      "outputs": [
        {
          "internalType": "address",
          "name": "",
          "type": "address"
        }
      ],
      "stateMutability": "view",
      "type": "function"
    },
    {
      "inputs": [],
      "name": "domain",
      "outputs": [
        {
          "internalType": "string",
          "name": "",
          "type": "string"
        }
      ],
      "stateMutability": "view",
      "type": "function"
    },
    {
      "inputs": [
        {
          "internalType": "string",
          "name": "_domain",
          "type": "string"
        },
        {
          "internalType": "address",
          "name": "_oracle",
          "type": "address"
        },
        {
          "internalType": "address",
          "name": "_initialOwner",
          "type": "address"
        }
      ],
      "name": "initialize",
      "outputs": [],
      "stateMutability": "nonpayable",
      "type": "function"
    },
    {
      "inputs": [
        {
          "internalType": "uint256",
          "name": "",
          "type": "uint256"
        }
      ],
      "name": "isJobFinalized",
      "outputs": [
        {
          "internalType": "bool",
          "name": "",
          "type": "bool"
        }
      ],
      "stateMutability": "view",
      "type": "function"
    },
    {
      "inputs": [
        {
          "internalType": "uint256",
          "name": "",
          "type": "uint256"
        }
      ],
      "name": "isRegenerationPending",
      "outputs": [
        {
          "internalType": "bool",
          "name": "",
          "type": "bool"
        }
      ],
      "stateMutability": "view",
      "type": "function"
    },
    {
      "inputs": [],
      "name": "jobIdCounter",
      "outputs": [
        {
          "internalType": "uint256",
          "name": "",
          "type": "uint256"
        }
      ],
      "stateMutability": "view",
      "type": "function"
    },
    {
      "inputs": [
        {
          "internalType": "uint256",
          "name": "",
          "type": "uint256"
        }
      ],
      "name": "jobToOwner",
      "outputs": [
        {
          "internalType": "address",
          "name": "",
          "type": "address"
        }
      ],
      "stateMutability": "view",
      "type": "function"
    },
    {
      "inputs": [],
      "name": "messageIdCounter",
      "outputs": [
        {
          "internalType": "uint256",
          "name": "",
          "type": "uint256"
        }
      ],
      "stateMutability": "view",
      "type": "function"
    },
    {
      "inputs": [
        {
          "internalType": "uint256",
          "name": "",
          "type": "uint256"
        }
      ],
      "name": "messageToConversation",
      "outputs": [
        {
          "internalType": "uint256",
          "name": "",
          "type": "uint256"
        }
      ],
      "stateMutability": "view",
      "type": "function"
    },
    {
      "inputs": [],
      "name": "oracle",
      "outputs": [
        {
          "internalType": "address",
          "name": "",
          "type": "address"
        }
      ],
      "stateMutability": "view",
      "type": "function"
    },
    {
      "inputs": [],
      "name": "owner",
      "outputs": [
        {
          "internalType": "address",
          "name": "",
          "type": "address"
        }
      ],
      "stateMutability": "view",
      "type": "function"
    },
    {
      "inputs": [],
      "name": "proxiableUUID",
      "outputs": [
        {
          "internalType": "bytes32",
          "name": "",
          "type": "bytes32"
        }
      ],
      "stateMutability": "view",
      "type": "function"
    },
    {
      "inputs": [
        {
          "internalType": "address",
          "name": "_user",
          "type": "address"
        },
        {
          "internalType": "uint256",
          "name": "_answerMessageId",
          "type": "uint256"
        }
      ],
      "name": "recordCancellation",
      "outputs": [],
      "stateMutability": "nonpayable",
      "type": "function"
    },
    {
      "inputs": [],
      "name": "renounceOwnership",
      "outputs": [],
      "stateMutability": "nonpayable",
      "type": "function"
    },
    {
      "inputs": [],
      "name": "reserveConversationId",
      "outputs": [
        {
          "internalType": "uint256",
          "name": "",
          "type": "uint256"
        }
      ],
      "stateMutability": "nonpayable",
      "type": "function"
    },
    {
      "inputs": [],
      "name": "reserveJobId",
      "outputs": [
        {
          "internalType": "uint256",
          "name": "",
          "type": "uint256"
        }
      ],
      "stateMutability": "nonpayable",
      "type": "function"
    },
    {
      "inputs": [],
      "name": "reserveMessageId",
      "outputs": [
        {
          "internalType": "uint256",
          "name": "",
          "type": "uint256"
        }
      ],
      "stateMutability": "nonpayable",
      "type": "function"
    },
    {
      "inputs": [],
      "name": "reserveTriggerId",
      "outputs": [
        {
          "internalType": "uint256",
          "name": "",
          "type": "uint256"
        }
      ],
      "stateMutability": "nonpayable",
      "type": "function"
    },
    {
      "inputs": [
        {
          "internalType": "address",
          "name": "_newAIAgentEscrow",
          "type": "address"
        }
      ],
      "name": "setAgentEscrow",
      "outputs": [],
      "stateMutability": "nonpayable",
      "type": "function"
    },
    {
      "inputs": [
        {
          "internalType": "address",
          "name": "_newOracle",
          "type": "address"
        }
      ],
      "name": "setOracle",
      "outputs": [],
      "stateMutability": "nonpayable",
      "type": "function"
    },
    {
      "inputs": [
        {
          "internalType": "address",
          "name": "_user",
          "type": "address"
        },
        {
          "internalType": "uint256",
          "name": "_jobId",
          "type": "uint256"
        },
        {
          "internalType": "uint256",
          "name": "_triggerId",
          "type": "uint256"
        },
        {
          "internalType": "bytes",
          "name": "_encryptedPayload",
          "type": "bytes"
        },
        {
          "internalType": "bytes",
          "name": "_roflEncryptedKey",
          "type": "bytes"
        }
      ],
      "name": "submitAgentJob",
      "outputs": [],
      "stateMutability": "nonpayable",
      "type": "function"
    },
    {
      "inputs": [
        {
          "internalType": "uint256",
          "name": "_promptMessageId",
          "type": "uint256"
        },
        {
          "internalType": "uint256",
          "name": "_answerMessageId",
          "type": "uint256"
        },
        {
          "components": [
            {
              "internalType": "string",
              "name": "conversationCID",
              "type": "string"
            },
            {
              "internalType": "string",
              "name": "metadataCID",
              "type": "string"
            },
            {
              "internalType": "string",
              "name": "promptMessageCID",
              "type": "string"
            },
            {
              "internalType": "string",
              "name": "answerMessageCID",
              "type": "string"
            },
            {
              "internalType": "string",
              "name": "searchDeltaCID",
              "type": "string"
            }
          ],
          "internalType": "struct Structs.CidBundle",
          "name": "_cids",
          "type": "tuple"
        }
      ],
      "name": "submitAnswer",
      "outputs": [],
      "stateMutability": "nonpayable",
      "type": "function"
    },
    {
      "inputs": [
        {
          "internalType": "address",
          "name": "_user",
          "type": "address"
        },
        {
          "internalType": "uint256",
          "name": "_originalConversationId",
          "type": "uint256"
        },
        {
          "internalType": "uint256",
          "name": "_branchPointMessageId",
          "type": "uint256"
        },
        {
          "internalType": "uint256",
          "name": "_newConversationId",
          "type": "uint256"
        },
        {
          "internalType": "string",
          "name": "_conversationCID",
          "type": "string"
        },
        {
          "internalType": "string",
          "name": "_metadataCID",
          "type": "string"
        }
      ],
      "name": "submitBranch",
      "outputs": [],
      "stateMutability": "nonpayable",
      "type": "function"
    },
    {
      "inputs": [
        {
          "internalType": "address",
          "name": "_user",
          "type": "address"
        },
        {
          "internalType": "uint256",
          "name": "_originalConversationId",
          "type": "uint256"
        },
        {
          "internalType": "uint256",
          "name": "_branchPointMessageId",
          "type": "uint256"
        },
        {
          "internalType": "uint256",
          "name": "_newConversationId",
          "type": "uint256"
        },
        {
          "internalType": "bytes",
          "name": "_encryptedPayload",
          "type": "bytes"
        },
        {
          "internalType": "bytes",
          "name": "_roflEncryptedKey",
          "type": "bytes"
        }
      ],
      "name": "submitBranchRequest",
      "outputs": [],
      "stateMutability": "nonpayable",
      "type": "function"
    },
    {
      "inputs": [
        {
          "internalType": "uint256",
          "name": "_conversationId",
          "type": "uint256"
        },
        {
          "internalType": "string",
          "name": "_newConversationMetadataCID",
          "type": "string"
        }
      ],
      "name": "submitConversationMetadata",
      "outputs": [],
      "stateMutability": "nonpayable",
      "type": "function"
    },
    {
      "inputs": [
        {
          "internalType": "address",
          "name": "_user",
          "type": "address"
        },
        {
          "internalType": "uint256",
          "name": "_conversationId",
          "type": "uint256"
        },
        {
          "internalType": "bytes",
          "name": "_encryptedPayload",
          "type": "bytes"
        },
        {
          "internalType": "bytes",
          "name": "_roflEncryptedKey",
          "type": "bytes"
        }
      ],
      "name": "submitMetadataUpdate",
      "outputs": [],
      "stateMutability": "nonpayable",
      "type": "function"
    },
    {
      "inputs": [
        {
          "internalType": "address",
          "name": "_user",
          "type": "address"
        },
        {
          "internalType": "uint256",
          "name": "_conversationId",
          "type": "uint256"
        },
        {
          "internalType": "uint256",
          "name": "_promptMessageId",
          "type": "uint256"
        },
        {
          "internalType": "uint256",
          "name": "_answerMessageId",
          "type": "uint256"
        },
        {
          "internalType": "bytes",
          "name": "_encryptedPayload",
          "type": "bytes"
        },
        {
          "internalType": "bytes",
          "name": "_roflEncryptedKey",
          "type": "bytes"
        }
      ],
      "name": "submitPrompt",
      "outputs": [],
      "stateMutability": "nonpayable",
      "type": "function"
    },
    {
      "inputs": [
        {
          "internalType": "address",
          "name": "_user",
          "type": "address"
        },
        {
          "internalType": "uint256",
          "name": "_conversationId",
          "type": "uint256"
        },
        {
          "internalType": "uint256",
          "name": "_promptMessageId",
          "type": "uint256"
        },
        {
          "internalType": "uint256",
          "name": "_originalAnswerMessageId",
          "type": "uint256"
        },
        {
          "internalType": "uint256",
          "name": "_answerMessageId",
          "type": "uint256"
        },
        {
          "internalType": "bytes",
          "name": "_encryptedPayload",
          "type": "bytes"
        },
        {
          "internalType": "bytes",
          "name": "_roflEncryptedKey",
          "type": "bytes"
        }
      ],
      "name": "submitRegenerationRequest",
      "outputs": [],
      "stateMutability": "nonpayable",
      "type": "function"
    },
    {
      "inputs": [
        {
          "internalType": "address",
          "name": "newOwner",
          "type": "address"
        }
      ],
      "name": "transferOwnership",
      "outputs": [],
      "stateMutability": "nonpayable",
      "type": "function"
    },
    {
      "inputs": [],
      "name": "triggerIdCounter",
      "outputs": [
        {
          "internalType": "uint256",
          "name": "",
          "type": "uint256"
        }
      ],
      "stateMutability": "view",
      "type": "function"
    },
    {
      "inputs": [
        {
          "internalType": "uint256",
          "name": "",
          "type": "uint256"
        }
      ],
      "name": "triggerToJob",
      "outputs": [
        {
          "internalType": "uint256",
          "name": "",
          "type": "uint256"
        }
      ],
      "stateMutability": "view",
      "type": "function"
    },
    {
      "inputs": [
        {
          "internalType": "address",
          "name": "newImplementation",
          "type": "address"
        },
        {
          "internalType": "bytes",
          "name": "data",
          "type": "bytes"
        }
      ],
      "name": "upgradeToAndCall",
      "outputs": [],
      "stateMutability": "payable",
      "type": "function"
    }
  ],
  "bytecode": "0x60a06040523073ffffffffffffffffffffffffffffffffffffffff1660809073ffffffffffffffffffffffffffffffffffffffff1681525034801561004357600080fd5b506080516158ea6200006e60003960008181613e6301528181613eb801526140af01526158ea6000f3fe6080604052600436106102345760003560e01c80638da5cb5b11610138578063d3e64bc8116100b0578063e84c04a51161007f578063eaea352111610064578063eaea3521146107ca578063f2fde38b146107f5578063f6ecad551461081e57610234565b8063e84c04a514610776578063e88d193b146107a157610234565b8063d3e64bc8146106bc578063e1bba95b146106e5578063e2cd17a61461070e578063e7c65d9b1461073957610234565b8063ad3cb1cc11610107578063c2fb26a6116100ec578063c2fb26a61461063d578063c8f7f3df14610668578063d17cae451461069357610234565b8063ad3cb1cc146105d5578063bdf3e1821461060057610234565b80638da5cb5b1461051b578063987bb8aa14610546578063a10a2df41461056f578063abb204201461059857610234565b8063463fd1af116101cb578063646a19521161019a57806374a271611161017f57806374a271611461049e5780637adbf973146104c75780637dc0d1d0146104f057610234565b8063646a19521461044a578063715018a61461048757610234565b8063463fd1af1461039d5780634f1ef286146103c657806352d05829146103e257806352d1902d1461041f57610234565b806315a906f51161020757806315a906f5146102f55780632c87316c1461031e578063404060db1461034957806340b333da1461037257610234565b80630f5a11ca146102395780630f6a842e1461026457806311b4aee71461028d57806311f0edee146102ca575b600080fd5b34801561024557600080fd5b5061024e610849565b60405161025b919061469a565b60405180910390f35b34801561027057600080fd5b5061028b600480360381019061028691906147b8565b61084f565b005b34801561029957600080fd5b506102b460048036038101906102af9190614887565b610c5f565b6040516102c1919061469a565b60405180910390f35b3480156102d657600080fd5b506102df610c77565b6040516102ec9190614913565b60405180910390f35b34801561030157600080fd5b5061031c60048036038101906103179190614984565b610c9d565b005b34801561032a57600080fd5b50610333610e51565b604051610340919061469a565b60405180910390f35b34801561035557600080fd5b50610370600480360381019061036b91906149e4565b610e57565b005b34801561037e57600080fd5b50610387611114565b604051610394919061469a565b60405180910390f35b3480156103a957600080fd5b506103c460048036038101906103bf9190614b52565b6112ed565b005b6103e060048036038101906103db9190614c62565b6116fc565b005b3480156103ee57600080fd5b5061040960048036038101906104049190614887565b61171b565b6040516104169190614cd9565b60405180910390f35b34801561042b57600080fd5b5061043461173b565b6040516104419190614d0d565b60405180910390f35b34801561045657600080fd5b50610471600480360381019061046c9190614887565b61176e565b60405161047e9190614d37565b60405180910390f35b34801561049357600080fd5b5061049c6117a1565b005b3480156104aa57600080fd5b506104c560048036038101906104c09190614d52565b6117b5565b005b3480156104d357600080fd5b506104ee60048036038101906104e991906149e4565b611bc2565b005b3480156104fc57600080fd5b50610505611d92565b6040516105129190614d37565b60405180910390f35b34801561052757600080fd5b50610530611db6565b60405161053d9190614d37565b60405180910390f35b34801561055257600080fd5b5061056d60048036038101906105689190614e32565b611dee565b005b34801561057b57600080fd5b5061059660048036038101906105919190614ea1565b6126dc565b005b3480156105a457600080fd5b506105bf60048036038101906105ba9190614887565b6129ac565b6040516105cc919061469a565b60405180910390f35b3480156105e157600080fd5b506105ea6129c4565b6040516105f79190614fc7565b60405180910390f35b34801561060c57600080fd5b5061062760048036038101906106229190614887565b6129fd565b6040516106349190614d37565b60405180910390f35b34801561064957600080fd5b50610652612a30565b60405161065f9190614fc7565b60405180910390f35b34801561067457600080fd5b5061067d612abe565b60405161068a919061469a565b60405180910390f35b34801561069f57600080fd5b506106ba60048036038101906106b591906147b8565b612c97565b005b3480156106c857600080fd5b506106e360048036038101906106de9190614fe9565b612fd3565b005b3480156106f157600080fd5b5061070c60048036038101906107079190615029565b61328e565b005b34801561071a57600080fd5b50610723613562565b604051610730919061469a565b60405180910390f35b34801561074557600080fd5b50610760600480360381019061075b9190614887565b61373b565b60405161076d9190614cd9565b60405180910390f35b34801561078257600080fd5b5061078b61375b565b604051610798919061469a565b60405180910390f35b3480156107ad57600080fd5b506107c860048036038101906107c391906150f8565b613761565b005b3480156107d657600080fd5b506107df613b35565b6040516107ec919061469a565b60405180910390f35b34801561080157600080fd5b5061081c600480360381019061081791906149e4565b613b3b565b005b34801561082a57600080fd5b50610833613bc1565b604051610840919061469a565b60405180910390f35b60055481565b61086367d88c20e447bc8f8260c01b613d9a565b610877672efcd528b429db7160c01b613d9a565b61088b67021d0bb1aa3abce960c01b613d9a565b61089f6747e26ebfdce304ce60c01b613d9a565b600160009054906101000a900473ffffffffffffffffffffffffffffffffffffffff1673ffffffffffffffffffffffffffffffffffffffff163373ffffffffffffffffffffffffffffffffffffffff161461094e576109086764fb3dd21e6c4e6960c01b613d9a565b61091c67e2f175402ec4ede560c01b613d9a565b6040517fbc46cd6000000000000000000000000000000000000000000000000000000000815260040160405180910390fd5b610962677d174e0e43ba9ee860c01b613d9a565b610976678b0b0afbbb4901b560c01b613d9a565b61098a674064d688a899843260c01b613d9a565b61099e6723cabed31f91e1dd60c01b613d9a565b6109b2677503650b484e549460c01b613d9a565b6109c66789fb4bfe6e29514b60c01b613d9a565b600073ffffffffffffffffffffffffffffffffffffffff166007600089815260200190815260200160002060009054906101000a900473ffffffffffffffffffffffffffffffffffffffff1673ffffffffffffffffffffffffffffffffffffffff1603610aac57610a416748caa8ce7fa7eb0160c01b613d9a565b610a5567655da67d5b16e1fe60c01b613d9a565b876007600089815260200190815260200160002060006101000a81548173ffffffffffffffffffffffffffffffffffffffff021916908373ffffffffffffffffffffffffffffffffffffffff160217905550610ba9565b610ac067cbee155f3084b1fd60c01b613d9a565b610ad4676d453a53db5b90a560c01b613d9a565b8773ffffffffffffffffffffffffffffffffffffffff166007600089815260200190815260200160002060009054906101000a900473ffffffffffffffffffffffffffffffffffffffff1673ffffffffffffffffffffffffffffffffffffffff1614610b9457610b4e677504a453f5f7c2f660c01b613d9a565b610b626740c971d9a7e51b5760c01b613d9a565b6040517f82b4290000000000000000000000000000000000000000000000000000000000815260040160405180910390fd5b610ba86739e79125d7cd9ac060c01b613d9a565b5b610bbd671b17dc4eec121b5a60c01b613d9a565b866009600088815260200190815260200160002081905550610be9678dad0bd66546908d60c01b613d9a565b610bfd67a170db3f37b5c1d360c01b613d9a565b85878973ffffffffffffffffffffffffffffffffffffffff167f20c861c25e09d7d8d2afebbbcc4fba055f1073ed8ded6e1c47f27b9856f3b0f58888888888604051610c4d959493929190615218565b60405180910390a45050505050505050565b600a6020528060005260406000206000915090505481565b600160009054906101000a900473ffffffffffffffffffffffffffffffffffffffff1681565b610cb1675426d887731ab5ee60c01b613d9a565b610cc56798e1cd484848661860c01b613d9a565b610cd96746ac25f63e63989860c01b613d9a565b610ced67136b124d0e74df6160c01b613d9a565b60008054906101000a900473ffffffffffffffffffffffffffffffffffffffff1673ffffffffffffffffffffffffffffffffffffffff163373ffffffffffffffffffffffffffffffffffffffff1614610d9a57610d54671a8c6497dea7d93e60c01b613d9a565b610d6867c0c671a021a8131560c01b613d9a565b6040517fdb8d1fb700000000000000000000000000000000000000000000000000000000815260040160405180910390fd5b610dae670f9dd67b83f27d0a60c01b613d9a565b610dc267e260a1354ccacefe60c01b613d9a565b610dd6670fa5b794d660e2f660c01b613d9a565b610dea67e231029a1cc835a560c01b613d9a565b610dfe670ad20d0a7e76131b60c01b613d9a565b610e1267e364b2a436627e4460c01b613d9a565b827fd4cd2498d9498ff33db61cc62ba77abcef5dc2fd5b9d78236e7053ef2f6142038383604051610e4492919061528e565b60405180910390a2505050565b60065481565b610e6b6759a79ef8e994baa060c01b613d9a565b610e73613d9d565b610e87673e0e5a97b2a7580660c01b613d9a565b610e9b67ea6e82c3fccb2e8f60c01b613d9a565b610eaf67572c6831eeb2c0e560c01b613d9a565b610ec367adf8e98b116df9f260c01b613d9a565b600073ffffffffffffffffffffffffffffffffffffffff168173ffffffffffffffffffffffffffffffffffffffff1603610f5157610f0b67b70ad5d3ed128a1f60c01b613d9a565b610f1f67bc99a1354146d6c860c01b613d9a565b6040517fd92e233d00000000000000000000000000000000000000000000000000000000815260040160405180910390fd5b610f6567139b937b862e165260c01b613d9a565b610f7967a3adbb87d0f5b83760c01b613d9a565b610f8d676c53970a966df66b60c01b613d9a565b600073ffffffffffffffffffffffffffffffffffffffff16600160009054906101000a900473ffffffffffffffffffffffffffffffffffffffff1673ffffffffffffffffffffffffffffffffffffffff161461103d57610ff76734d538aeb37be28e60c01b613d9a565b61100b67da7214c9098e389460c01b613d9a565b6040517fba9a9e5900000000000000000000000000000000000000000000000000000000815260040160405180910390fd5b611051675999e959cd7d534a60c01b613d9a565b6110656774f9982e703366e560c01b613d9a565b80600160006101000a81548173ffffffffffffffffffffffffffffffffffffffff021916908373ffffffffffffffffffffffffffffffffffffffff1602179055506110ba672f00f3e7fb08501b60c01b613d9a565b6110ce67b8dc496ed31d2a2c60c01b613d9a565b8073ffffffffffffffffffffffffffffffffffffffff167f15b6203be6250eebd39d5c937581479db138d6311a424f6d9801b1fc212878c460405160405180910390a250565b600061112a676312ee7c53473f0060c01b613d9a565b61113e672efcd528b429db7160c01b613d9a565b61115267021d0bb1aa3abce960c01b613d9a565b6111666747e26ebfdce304ce60c01b613d9a565b600160009054906101000a900473ffffffffffffffffffffffffffffffffffffffff1673ffffffffffffffffffffffffffffffffffffffff163373ffffffffffffffffffffffffffffffffffffffff1614611215576111cf6764fb3dd21e6c4e6960c01b613d9a565b6111e367e2f175402ec4ede560c01b613d9a565b6040517fbc46cd6000000000000000000000000000000000000000000000000000000000815260040160405180910390fd5b611229677d174e0e43ba9ee860c01b613d9a565b61123d678b0b0afbbb4901b560c01b613d9a565b61125167d23e40ca08f6e76c60c01b613d9a565b61126567e239d77a86436e7360c01b613d9a565b61127967579a4a0ae1a5c6ec60c01b613d9a565b61128d677b8f67ac406a776060c01b613d9a565b600060065490506112a86746b1c39f15dd170d60c01b613d9a565b6006600081546112b7906152e1565b919050819055506112d2672e7cd3f3fbcc3e2360c01b613d9a565b6112e6670b99098105990b6560c01b613d9a565b8091505090565b61130167c3e49c5571f4d86160c01b613d9a565b600061130b613e24565b905060008160000160089054906101000a900460ff1615905060008260000160009054906101000a900467ffffffffffffffff1690506000808267ffffffffffffffff161480156113595750825b9050600060018367ffffffffffffffff1614801561138e575060003073ffffffffffffffffffffffffffffffffffffffff163b145b90508115801561139c575080155b156113d3576040517ff92ee8a900000000000000000000000000000000000000000000000000000000815260040160405180910390fd5b60018560000160006101000a81548167ffffffffffffffff021916908367ffffffffffffffff16021790555083156114235760018560000160086101000a81548160ff0219169083151502179055505b61143767258dac8fd62f2cdd60c01b613d9a565b61144b6714a74b4b0722715860c01b613d9a565b61145f670d66fe0887eec43a60c01b613d9a565b6114736739a04b6ae65af12160c01b613d9a565b600073ffffffffffffffffffffffffffffffffffffffff168773ffffffffffffffffffffffffffffffffffffffff161480156114bf57506114be67a17fccb707b92bb760c01b613e38565b5b806115125750600073ffffffffffffffffffffffffffffffffffffffff168673ffffffffffffffffffffffffffffffffffffffff1614801561151157506115106796c5781ed78ce8f960c01b613e38565b5b5b156115715761152b6749215742f4aa398160c01b613d9a565b61153f67f21fbc6c394c993c60c01b613d9a565b6040517fd92e233d00000000000000000000000000000000000000000000000000000000815260040160405180910390fd5b61158567945d1c270fdd9e4060c01b613d9a565b61159967faacd1c2dd3efc0360c01b613d9a565b6115ad6765b0c295594ef7b560c01b613d9a565b6115b686613e43565b6115ca67ac168a08a18e887560c01b613d9a565b6115de677bdcae7bf05078d660c01b613d9a565b6115e6613e57565b6115fa67160354e4b423bc8460c01b613d9a565b8760029081611609919061552b565b5061161e67f0f0abd78399695060c01b613d9a565b866000806101000a81548173ffffffffffffffffffffffffffffffffffffffff021916908373ffffffffffffffffffffffffffffffffffffffff16021790555061167267e4db545d3849504660c01b613d9a565b600160038190555061168e670f5a2f4173a24ae260c01b613d9a565b600160058190555083156116f25760008560000160086101000a81548160ff0219169083151502179055507fc7f505b2f371ae2175ee4913f4499e1f2633a7b5936321eed1cdaeb6115181d260016040516116e9919061564c565b60405180910390a15b5050505050505050565b611704613e61565b61170d82613f47565b6117178282613f8e565b5050565b600c6020528060005260406000206000915054906101000a900460ff1681565b60006117456140ad565b7f360894a13ba1a3210667c828492db98dca3e2076cc3735a920a3ca505d382bbc60001b905090565b60086020528060005260406000206000915054906101000a900473ffffffffffffffffffffffffffffffffffffffff1681565b6117a9613d9d565b6117b36000614134565b565b6117c967d920e8addd77f72460c01b613d9a565b6117dd672efcd528b429db7160c01b613d9a565b6117f167021d0bb1aa3abce960c01b613d9a565b6118056747e26ebfdce304ce60c01b613d9a565b600160009054906101000a900473ffffffffffffffffffffffffffffffffffffffff1673ffffffffffffffffffffffffffffffffffffffff163373ffffffffffffffffffffffffffffffffffffffff16146118b45761186e6764fb3dd21e6c4e6960c01b613d9a565b61188267e2f175402ec4ede560c01b613d9a565b6040517fbc46cd6000000000000000000000000000000000000000000000000000000000815260040160405180910390fd5b6118c8677d174e0e43ba9ee860c01b613d9a565b6118dc678b0b0afbbb4901b560c01b613d9a565b6118f06758a34d655c09ceb760c01b613d9a565b61190467e2e0069d0d4eba3760c01b613d9a565b611918671c336a043e77bc7a60c01b613d9a565b61192c67cd708fb49e808e7660c01b613d9a565b600073ffffffffffffffffffffffffffffffffffffffff166008600088815260200190815260200160002060009054906101000a900473ffffffffffffffffffffffffffffffffffffffff1673ffffffffffffffffffffffffffffffffffffffff1603611a12576119a767eef420a78e75f65460c01b613d9a565b6119bb673a11ddc996bced8960c01b613d9a565b866008600088815260200190815260200160002060006101000a81548173ffffffffffffffffffffffffffffffffffffffff021916908373ffffffffffffffffffffffffffffffffffffffff160217905550611b0f565b611a26671ad622f91cfa75b160c01b613d9a565b611a3a67f03e23007a974d9860c01b613d9a565b8673ffffffffffffffffffffffffffffffffffffffff166008600088815260200190815260200160002060009054906101000a900473ffffffffffffffffffffffffffffffffffffffff1673ffffffffffffffffffffffffffffffffffffffff1614611afa57611ab467379eaed2c2436b2960c01b613d9a565b611ac86791c3a253abcf73e260c01b613d9a565b6040517f82b4290000000000000000000000000000000000000000000000000000000000815260040160405180910390fd5b611b0e67f4c0dbbafa4dd49c60c01b613d9a565b5b611b23671a6244449fac529f60c01b613d9a565b85600a600087815260200190815260200160002081905550611b4f67d96a1f9d074aa35560c01b613d9a565b611b636784c73bd2b9b3726a60c01b613d9a565b84868873ffffffffffffffffffffffffffffffffffffffff167f3e575abc44d5b23ec517a545f4e3a401321287985020d4058ce3d6662ed84f0a87878787604051611bb19493929190615667565b60405180910390a450505050505050565b611bd66736e90fbcedb0976660c01b613d9a565b611bde613d9d565b611bf2670fd7f3bebf64cd5f60c01b613d9a565b611c0667c35d8a907559409560c01b613d9a565b611c1a67ef4875ddae14840460c01b613d9a565b611c2e670a191fae31f6043160c01b613d9a565b600073ffffffffffffffffffffffffffffffffffffffff168173ffffffffffffffffffffffffffffffffffffffff1603611cbc57611c766750aaa64d4943526960c01b613d9a565b611c8a67cdaf715836cd9bad60c01b613d9a565b6040517fd92e233d00000000000000000000000000000000000000000000000000000000815260040160405180910390fd5b611cd06791e652cbdb6e043b60c01b613d9a565b611ce467956dab057f089f0560c01b613d9a565b806000806101000a81548173ffffffffffffffffffffffffffffffffffffffff021916908373ffffffffffffffffffffffffffffffffffffffff160217905550611d3867b41b17c3723397c660c01b613d9a565b611d4c673d710119edd9d4d260c01b613d9a565b8073ffffffffffffffffffffffffffffffffffffffff167f3df77beb5db05fcdd70a30fc8adf3f83f9501b68579455adbd100b818094039460405160405180910390a250565b60008054906101000a900473ffffffffffffffffffffffffffffffffffffffff1681565b600080611dc161420b565b90508060000160009054906101000a900473ffffffffffffffffffffffffffffffffffffffff1691505090565b611e026779e063a75d644c4560c01b613d9a565b611e166798e1cd484848661860c01b613d9a565b611e2a6746ac25f63e63989860c01b613d9a565b611e3e67136b124d0e74df6160c01b613d9a565b60008054906101000a900473ffffffffffffffffffffffffffffffffffffffff1673ffffffffffffffffffffffffffffffffffffffff163373ffffffffffffffffffffffffffffffffffffffff1614611eeb57611ea5671a8c6497dea7d93e60c01b613d9a565b611eb967c0c671a021a8131560c01b613d9a565b6040517fdb8d1fb700000000000000000000000000000000000000000000000000000000815260040160405180910390fd5b611eff670f9dd67b83f27d0a60c01b613d9a565b611f1367e260a1354ccacefe60c01b613d9a565b611f27676155afd3dcef1fb060c01b613d9a565b611f3b67a4589820eec9c6d360c01b613d9a565b611f4f67590d7a50688963a460c01b613d9a565b611f63675b6c7b971a29bbb860c01b613d9a565b600b600083815260200190815260200160002060009054906101000a900460ff1615611fe357611f9d675cc4c530cfb0300860c01b613d9a565b611fb1676d1ca243da9e52ba60c01b613d9a565b6040517fc475cdec00000000000000000000000000000000000000000000000000000000815260040160405180910390fd5b611ff767e9c07680464ab23060c01b613d9a565b61200b677aed97f6d80157b660c01b613d9a565b61201f67d8a32b3443483e1b60c01b613d9a565b600081806060019061203191906156b1565b9050036120925761204c67262cc5a4ed7a50c060c01b613d9a565b61206067415aa82dc8eb986a60c01b613d9a565b6040517f479f8cff00000000000000000000000000000000000000000000000000000000815260040160405180910390fd5b6120a6674a6276d216536f9460c01b613d9a565b6120ba6712c5e2bdc121e5c660c01b613d9a565b6120ce67fdb49e934f29b8dd60c01b613d9a565b6000600960008581526020019081526020016000205490506120fa677e632f896132c24860c01b613d9a565b61210e67d523f964b6d8e04660c01b613d9a565b600073ffffffffffffffffffffffffffffffffffffffff166007600083815260200190815260200160002060009054906101000a900473ffffffffffffffffffffffffffffffffffffffff1673ffffffffffffffffffffffffffffffffffffffff16036121ce57612189671e60f73bc57a064160c01b613d9a565b61219d67177464e83df5512160c01b613d9a565b6040517ed385f900000000000000000000000000000000000000000000000000000000815260040160405180910390fd5b6121e267aa3349078deab71160c01b613d9a565b6121f66790d7b351ae20c93960c01b613d9a565b6001600b600085815260200190815260200160002060006101000a81548160ff0219169083151502179055506122366729fa2a52e9f08f4360c01b613d9a565b61224a67c4eb9550d62494a960c01b613d9a565b60006007600083815260200190815260200160002060009054906101000a900473ffffffffffffffffffffffffffffffffffffffff169050612296671d2f1a8f61071a5c60c01b613d9a565b6122aa670678ab5ee025ae3b60c01b613d9a565b60008380600001906122bc91906156b1565b90501115612376576122d867049dfd6e03e7487360c01b613d9a565b6122ec67a1a322821b85957260c01b613d9a565b61230067a3e5f2f276831e0260c01b613d9a565b818173ffffffffffffffffffffffffffffffffffffffff167f7fdc3d87ac151b91fcbbdb5dce5f29025df16428f380253423446f7f3088de2885806000019061234991906156b1565b87806020019061235991906156b1565b6040516123699493929190615714565b60405180910390a361238b565b61238a6722d1ff664897b1ae60c01b613d9a565b5b61239f674dfb3bad60fae50d60c01b613d9a565b6123b3679774dc87fe3db8f260c01b613d9a565b60008380604001906123c591906156b1565b905011156124c7576123e16790550d2d4b81809b60c01b613d9a565b6123f5678d50c56911ce6e4a60c01b613d9a565b6124096735a6e49353484bd760c01b613d9a565b84827f902d471d255abdd0cc4cea32085ad105dbf866069748f609127905ca4529ee3885806040019061243c91906156b1565b60405161244a92919061528e565b60405180910390a3612466674e638fae2475904660c01b613d9a565b61247a67bf1a6a167677aaf960c01b613d9a565b847f29f6c84ab81b5fcf79ef23441cabf3fdfba661928e2e655d7c330c1520d984618480608001906124ac91906156b1565b6040516124ba92919061528e565b60405180910390a2612583565b6124db6725e1492764f0402360c01b613d9a565b6124ef67057b8e6190575a5560c01b613d9a565b600c600086815260200190815260200160002060009054906101000a900460ff161561256d57612529670663bbf887d8fd1860c01b613d9a565b61253c66185bf23bfc111460c01b613d9a565b6000600c600087815260200190815260200160002060006101000a81548160ff021916908315150217905550612582565b6125816746d0617147f5d8e060c01b613d9a565b5b5b6125976775f9dfef3a0f00cc60c01b613d9a565b8160096000868152602001908152602001600020819055506125c367c515d97fbc28e6ec60c01b613d9a565b6125d7671da78d90704a866260c01b613d9a565b83827fee68d538219fb8b8ab8859fbe3f672b4bec6b310466ed9e2b31a0b4b2c1f524985806060019061260a91906156b1565b60405161261892919061528e565b60405180910390a361263467476184be67afadf960c01b613d9a565b61264867cb7be5e81e7f146e60c01b613d9a565b600160009054906101000a900473ffffffffffffffffffffffffffffffffffffffff1673ffffffffffffffffffffffffffffffffffffffff166369658806856040518263ffffffff1660e01b81526004016126a3919061469a565b600060405180830381600087803b1580156126bd57600080fd5b505af11580156126d1573d6000803e3d6000fd5b505050505050505050565b6126f0670275ff29be76888560c01b613d9a565b612704672efcd528b429db7160c01b613d9a565b61271867021d0bb1aa3abce960c01b613d9a565b61272c6747e26ebfdce304ce60c01b613d9a565b600160009054906101000a900473ffffffffffffffffffffffffffffffffffffffff1673ffffffffffffffffffffffffffffffffffffffff163373ffffffffffffffffffffffffffffffffffffffff16146127db576127956764fb3dd21e6c4e6960c01b613d9a565b6127a967e2f175402ec4ede560c01b613d9a565b6040517fbc46cd6000000000000000000000000000000000000000000000000000000000815260040160405180910390fd5b6127ef677d174e0e43ba9ee860c01b613d9a565b612803678b0b0afbbb4901b560c01b613d9a565b612817671e4e6865a36fb83f60c01b613d9a565b61282b67c92b53510c37f89f60c01b613d9a565b61283f672f77625d6c2a161a60c01b613d9a565b612853679aaebe9e09d5c55160c01b613d9a565b8573ffffffffffffffffffffffffffffffffffffffff166007600087815260200190815260200160002060009054906101000a900473ffffffffffffffffffffffffffffffffffffffff1673ffffffffffffffffffffffffffffffffffffffff1614612913576128cd67a5bac2768af83d4460c01b613d9a565b6128e16764a3e7893a2c904060c01b613d9a565b6040517f82b4290000000000000000000000000000000000000000000000000000000000815260040160405180910390fd5b612927679477a8158568c54860c01b613d9a565b61293b67c73f115518dad3be60c01b613d9a565b61294f6762c2efc57eb4df2d60c01b613d9a565b848673ffffffffffffffffffffffffffffffffffffffff167f26d668b92e5a70ff88be5dd97b3a5309ec12f91d8b506778c4c2266435b2d04c8686868660405161299c9493929190615667565b60405180910390a3505050505050565b60096020528060005260406000206000915090505481565b6040518060400160405280600581526020017f352e302e3000000000000000000000000000000000000000000000000000000081525081565b60076020528060005260406000206000915054906101000a900473ffffffffffffffffffffffffffffffffffffffff1681565b60028054612a3d90615358565b80601f0160208091040260200160405190810160405280929190818152602001828054612a6990615358565b8015612ab65780601f10612a8b57610100808354040283529160200191612ab6565b820191906000526020600020905b815481529060010190602001808311612a9957829003601f168201915b505050505081565b6000612ad467227dbed67041a92960c01b613d9a565b612ae8672efcd528b429db7160c01b613d9a565b612afc67021d0bb1aa3abce960c01b613d9a565b612b106747e26ebfdce304ce60c01b613d9a565b600160009054906101000a900473ffffffffffffffffffffffffffffffffffffffff1673ffffffffffffffffffffffffffffffffffffffff163373ffffffffffffffffffffffffffffffffffffffff1614612bbf57612b796764fb3dd21e6c4e6960c01b613d9a565b612b8d67e2f175402ec4ede560c01b613d9a565b6040517fbc46cd6000000000000000000000000000000000000000000000000000000000815260040160405180910390fd5b612bd3677d174e0e43ba9ee860c01b613d9a565b612be7678b0b0afbbb4901b560c01b613d9a565b612bfb67607d9466772523ab60c01b613d9a565b612c0f67564eccd2707ee05160c01b613d9a565b612c2367675f95dcbc4ce1a360c01b613d9a565b612c3767bed4ae7fbc86d4f560c01b613d9a565b60006005549050612c5267095946aa57f8a51360c01b613d9a565b600560008154612c61906152e1565b91905081905550612c7c673db802c2d516c8b060c01b613d9a565b612c90679a2bb0a5e243f5cf60c01b613d9a565b8091505090565b612cab673931075ec3b7b10560c01b613d9a565b612cbf672efcd528b429db7160c01b613d9a565b612cd367021d0bb1aa3abce960c01b613d9a565b612ce76747e26ebfdce304ce60c01b613d9a565b600160009054906101000a900473ffffffffffffffffffffffffffffffffffffffff1673ffffffffffffffffffffffffffffffffffffffff163373ffffffffffffffffffffffffffffffffffffffff1614612d9657612d506764fb3dd21e6c4e6960c01b613d9a565b612d6467e2f175402ec4ede560c01b613d9a565b6040517fbc46cd6000000000000000000000000000000000000000000000000000000000815260040160405180910390fd5b612daa677d174e0e43ba9ee860c01b613d9a565b612dbe678b0b0afbbb4901b560c01b613d9a565b612dd2674650bea42c380f9460c01b613d9a565b612de667ce019974cc27bfea60c01b613d9a565b612dfa67953c2e49e871b36560c01b613d9a565b612e0e67a1222996ac54238c60c01b613d9a565b8773ffffffffffffffffffffffffffffffffffffffff166007600089815260200190815260200160002060009054906101000a900473ffffffffffffffffffffffffffffffffffffffff1673ffffffffffffffffffffffffffffffffffffffff1614612ece57612e8867beafd96ed723725060c01b613d9a565b612e9c679a62cea8be66868b60c01b613d9a565b6040517f82b4290000000000000000000000000000000000000000000000000000000000815260040160405180910390fd5b612ee267131bca2667380cf660c01b613d9a565b612ef667d05256de8b789a5960c01b613d9a565b876007600087815260200190815260200160002060006101000a81548173ffffffffffffffffffffffffffffffffffffffff021916908373ffffffffffffffffffffffffffffffffffffffff160217905550612f5c67ff30d0a78fd2337860c01b613d9a565b612f7067b340834f7fa23cca60c01b613d9a565b868873ffffffffffffffffffffffffffffffffffffffff167f6ebacac3e637c91857633db04bf1365580f0ccaea668244f7e8351f049b17735888888888888604051612fc19695949392919061574f565b60405180910390a35050505050505050565b612fe767394403c49b1dcbc960c01b613d9a565b612ffb672efcd528b429db7160c01b613d9a565b61300f67021d0bb1aa3abce960c01b613d9a565b6130236747e26ebfdce304ce60c01b613d9a565b600160009054906101000a900473ffffffffffffffffffffffffffffffffffffffff1673ffffffffffffffffffffffffffffffffffffffff163373ffffffffffffffffffffffffffffffffffffffff16146130d25761308c6764fb3dd21e6c4e6960c01b613d9a565b6130a067e2f175402ec4ede560c01b613d9a565b6040517fbc46cd6000000000000000000000000000000000000000000000000000000000815260040160405180910390fd5b6130e6677d174e0e43ba9ee860c01b613d9a565b6130fa678b0b0afbbb4901b560c01b613d9a565b61310e67e3b3127cad64ea0d60c01b613d9a565b61312267a5a6aae002db1e0a60c01b613d9a565b61313667843c7d5b520046fc60c01b613d9a565b61314a6792bd2dd6fedf90a760c01b613d9a565b600b600082815260200190815260200160002060009054906101000a900460ff16156131ca57613184674cce699c44d4369e60c01b613d9a565b61319867185701fa9038af9060c01b613d9a565b6040517fc475cdec00000000000000000000000000000000000000000000000000000000815260040160405180910390fd5b6131de671ee3fe3d14525dca60c01b613d9a565b6131f26755996c2b9f39af0e60c01b613d9a565b6001600b600083815260200190815260200160002060006101000a81548160ff02191690831515021790555061323267cbd4489cadb447b260c01b613d9a565b613246672e72b5e2bdf36a9560c01b613d9a565b808273ffffffffffffffffffffffffffffffffffffffff167ff15c83325878e52421cfdea91b5b0c34775fe735c4cbb36435caabf62b4f422f60405160405180910390a35050565b6132a2671563e70c92bd54e760c01b613d9a565b6132b66798e1cd484848661860c01b613d9a565b6132ca6746ac25f63e63989860c01b613d9a565b6132de67136b124d0e74df6160c01b613d9a565b60008054906101000a900473ffffffffffffffffffffffffffffffffffffffff1673ffffffffffffffffffffffffffffffffffffffff163373ffffffffffffffffffffffffffffffffffffffff161461338b57613345671a8c6497dea7d93e60c01b613d9a565b61335967c0c671a021a8131560c01b613d9a565b6040517fdb8d1fb700000000000000000000000000000000000000000000000000000000815260040160405180910390fd5b61339f670f9dd67b83f27d0a60c01b613d9a565b6133b367e260a1354ccacefe60c01b613d9a565b6133c767d43ae3c5332e8fe660c01b613d9a565b6133db672cef07679c11fa8860c01b613d9a565b6133ef67dd8457b2877f6d8c60c01b613d9a565b61340367eed7530979e5aae560c01b613d9a565b8773ffffffffffffffffffffffffffffffffffffffff166007600087815260200190815260200160002060009054906101000a900473ffffffffffffffffffffffffffffffffffffffff1673ffffffffffffffffffffffffffffffffffffffff16146134c35761347d67fbb90d9ae6cc766960c01b613d9a565b613491670cb19353729e00f060c01b613d9a565b6040517f82b4290000000000000000000000000000000000000000000000000000000000815260040160405180910390fd5b6134d7676a74170deba9937160c01b613d9a565b6134eb67c291343f9c6ed6a960c01b613d9a565b6134ff673d41be5e4d80bb1460c01b613d9a565b848873ffffffffffffffffffffffffffffffffffffffff167f6c470ec698a68523e072e850c3b724dbcfdd1c97a307554e68f86bcb3f6abe9e898988888888604051613550969594939291906157a6565b60405180910390a35050505050505050565b60006135786753bd1f634b240f1860c01b613d9a565b61358c672efcd528b429db7160c01b613d9a565b6135a067021d0bb1aa3abce960c01b613d9a565b6135b46747e26ebfdce304ce60c01b613d9a565b600160009054906101000a900473ffffffffffffffffffffffffffffffffffffffff1673ffffffffffffffffffffffffffffffffffffffff163373ffffffffffffffffffffffffffffffffffffffff16146136635761361d6764fb3dd21e6c4e6960c01b613d9a565b61363167e2f175402ec4ede560c01b613d9a565b6040517fbc46cd6000000000000000000000000000000000000000000000000000000000815260040160405180910390fd5b613677677d174e0e43ba9ee860c01b613d9a565b61368b678b0b0afbbb4901b560c01b613d9a565b61369f67739bfad07f1836f460c01b613d9a565b6136b367d2dc1d016a30516760c01b613d9a565b6136c767db9d76f78d68eaa660c01b613d9a565b6136db67dd65356834d239d360c01b613d9a565b600060045490506136f6672d3419901db3d2d860c01b613d9a565b600460008154613705906152e1565b919050819055506137206779ef8f4d6e68a64860c01b613d9a565b613734672d0e10291b2248c060c01b613d9a565b8091505090565b600b6020528060005260406000206000915054906101000a900460ff1681565b60045481565b613775674220e963b3e0d36460c01b613d9a565b613789672efcd528b429db7160c01b613d9a565b61379d67021d0bb1aa3abce960c01b613d9a565b6137b16747e26ebfdce304ce60c01b613d9a565b600160009054906101000a900473ffffffffffffffffffffffffffffffffffffffff1673ffffffffffffffffffffffffffffffffffffffff163373ffffffffffffffffffffffffffffffffffffffff16146138605761381a6764fb3dd21e6c4e6960c01b613d9a565b61382e67e2f175402ec4ede560c01b613d9a565b6040517fbc46cd6000000000000000000000000000000000000000000000000000000000815260040160405180910390fd5b613874677d174e0e43ba9ee860c01b613d9a565b613888678b0b0afbbb4901b560c01b613d9a565b61389c67bc5b783e1bbb489260c01b613d9a565b6138b0671edf69377e3c633060c01b613d9a565b6138c46729564c836289626c60c01b613d9a565b6138d867312de88c7d96fcba60c01b613d9a565b600c600088815260200190815260200160002060009054906101000a900460ff16156139585761391267d89ca9c783b5523860c01b613d9a565b61392667893577646eb4782e60c01b613d9a565b6040517fd3d032b700000000000000000000000000000000000000000000000000000000815260040160405180910390fd5b61396c676ef3aeb83166b5f260c01b613d9a565b61398067bac296ca6f8d3de660c01b613d9a565b6139946704404445e1b5c2c860c01b613d9a565b8873ffffffffffffffffffffffffffffffffffffffff16600760008a815260200190815260200160002060009054906101000a900473ffffffffffffffffffffffffffffffffffffffff1673ffffffffffffffffffffffffffffffffffffffff1614613a5457613a0e6723fd7359279a770260c01b613d9a565b613a226798cc22e71cf4587760c01b613d9a565b6040517f82b4290000000000000000000000000000000000000000000000000000000000815260040160405180910390fd5b613a68672720dc1a6decf36160c01b613d9a565b613a7c678ca3c5164255d2ca60c01b613d9a565b6001600c600089815260200190815260200160002060006101000a81548160ff021916908315150217905550613abc67511203c31f6c113d60c01b613d9a565b613ad0676d601b512f86ef1d60c01b613d9a565b86888a73ffffffffffffffffffffffffffffffffffffffff167f87d13ae77164cc7215d9acff778e72555668eb9dca30947e5522c005835298a8898989898989604051613b229695949392919061574f565b60405180910390a4505050505050505050565b60035481565b613b43613d9d565b600073ffffffffffffffffffffffffffffffffffffffff168173ffffffffffffffffffffffffffffffffffffffff1603613bb55760006040517f1e4fbdf7000000000000000000000000000000000000000000000000000000008152600401613bac9190614d37565b60405180910390fd5b613bbe81614134565b50565b6000613bd7673b0dd0295fba549b60c01b613d9a565b613beb672efcd528b429db7160c01b613d9a565b613bff67021d0bb1aa3abce960c01b613d9a565b613c136747e26ebfdce304ce60c01b613d9a565b600160009054906101000a900473ffffffffffffffffffffffffffffffffffffffff1673ffffffffffffffffffffffffffffffffffffffff163373ffffffffffffffffffffffffffffffffffffffff1614613cc257613c7c6764fb3dd21e6c4e6960c01b613d9a565b613c9067e2f175402ec4ede560c01b613d9a565b6040517fbc46cd6000000000000000000000000000000000000000000000000000000000815260040160405180910390fd5b613cd6677d174e0e43ba9ee860c01b613d9a565b613cea678b0b0afbbb4901b560c01b613d9a565b613cfe6721e5a7cef029541b60c01b613d9a565b613d1267ab2e183250ee66c660c01b613d9a565b613d2667ed1a785af70abf5160c01b613d9a565b613d3a6728afba74b3a20b4f60c01b613d9a565b60006003549050613d5567a71fa457ddee7c7060c01b613d9a565b600360008154613d64906152e1565b91905081905550613d7f67fc97259e36ee9c1360c01b613d9a565b613d9367e994b45912c8074260c01b613d9a565b8091505090565b50565b613da5614233565b73ffffffffffffffffffffffffffffffffffffffff16613dc3611db6565b73ffffffffffffffffffffffffffffffffffffffff1614613e2257613de6614233565b6040517f118cdaa7000000000000000000000000000000000000000000000000000000008152600401613e199190614d37565b60405180910390fd5b565b600080613e2f61423b565b90508091505090565b600060019050919050565b613e4b614266565b613e54816142a6565b50565b613e5f614266565b565b7f000000000000000000000000000000000000000000000000000000000000000073ffffffffffffffffffffffffffffffffffffffff163073ffffffffffffffffffffffffffffffffffffffff161480613f0e57507f000000000000000000000000000000000000000000000000000000000000000073ffffffffffffffffffffffffffffffffffffffff16613ef561432c565b73ffffffffffffffffffffffffffffffffffffffff1614155b15613f45576040517fe07c8dba00000000000000000000000000000000000000000000000000000000815260040160405180910390fd5b565b613f5b671d9cf3aa4f0fcd5860c01b613d9a565b613f63613d9d565b613f7767d5b6b128d20ab66860c01b613d9a565b613f8b673a2b9c89e75e42e860c01b613d9a565b50565b8173ffffffffffffffffffffffffffffffffffffffff166352d1902d6040518163ffffffff1660e01b8152600401602060405180830381865afa925050508015613ff657506040513d601f19601f82011682018060405250810190613ff39190615829565b60015b61403757816040517f4c9c8ce300000000000000000000000000000000000000000000000000000000815260040161402e9190614d37565b60405180910390fd5b7f360894a13ba1a3210667c828492db98dca3e2076cc3735a920a3ca505d382bbc60001b811461409e57806040517faa1d49a40000000000000000000000000000000000000000000000000000000081526004016140959190614d0d565b60405180910390fd5b6140a88383614383565b505050565b7f000000000000000000000000000000000000000000000000000000000000000073ffffffffffffffffffffffffffffffffffffffff163073ffffffffffffffffffffffffffffffffffffffff1614614132576040517fe07c8dba00000000000000000000000000000000000000000000000000000000815260040160405180910390fd5b565b600061413e61420b565b905060008160000160009054906101000a900473ffffffffffffffffffffffffffffffffffffffff169050828260000160006101000a81548173ffffffffffffffffffffffffffffffffffffffff021916908373ffffffffffffffffffffffffffffffffffffffff1602179055508273ffffffffffffffffffffffffffffffffffffffff168173ffffffffffffffffffffffffffffffffffffffff167f8be0079c531659141344cd1fd0a4f28419497f9722a3daafe3b4186f6b6457e060405160405180910390a3505050565b60007f9016d09d72d40fdae2fd8ceac6b6234c7706214fd39c1cd1e609a0528c199300905090565b600033905090565b60007ff0c57e16840df040f15088dc2f81fe391c3923bec73e23a9662efc9c229c6a0060001b905090565b61426e6143f6565b6142a4576040517fd7e6bcf800000000000000000000000000000000000000000000000000000000815260040160405180910390fd5b565b6142ae614266565b600073ffffffffffffffffffffffffffffffffffffffff168173ffffffffffffffffffffffffffffffffffffffff16036143205760006040517f1e4fbdf70000000000000000000000000000000000000000000000000000000081526004016143179190614d37565b60405180910390fd5b61432981614134565b50565b600061435a7f360894a13ba1a3210667c828492db98dca3e2076cc3735a920a3ca505d382bbc60001b614416565b60000160009054906101000a900473ffffffffffffffffffffffffffffffffffffffff16905090565b61438c82614420565b8173ffffffffffffffffffffffffffffffffffffffff167fbc7cd75a20ee27fd9adebab32041f755214dbc6bffa90cc0225b39da2e5c2d3b60405160405180910390a26000815111156143e9576143e382826144ed565b506143f2565b6143f1614571565b5b5050565b6000614400613e24565b60000160089054906101000a900460ff16905090565b6000819050919050565b60008173ffffffffffffffffffffffffffffffffffffffff163b0361447c57806040517f4c9c8ce30000000000000000000000000000000000000000000000000000000081526004016144739190614d37565b60405180910390fd5b806144a97f360894a13ba1a3210667c828492db98dca3e2076cc3735a920a3ca505d382bbc60001b614416565b60000160006101000a81548173ffffffffffffffffffffffffffffffffffffffff021916908373ffffffffffffffffffffffffffffffffffffffff16021790555050565b60606000808473ffffffffffffffffffffffffffffffffffffffff1684604051614517919061589d565b600060405180830381855af49150503d8060008114614552576040519150601f19603f3d011682016040523d82523d6000602084013e614557565b606091505b50915091506145678583836145ae565b9250505092915050565b60003411156145ac576040517fb398979f00000000000000000000000000000000000000000000000000000000815260040160405180910390fd5b565b6060826145c3576145be8261463d565b614635565b600082511480156145eb575060008473ffffffffffffffffffffffffffffffffffffffff163b145b1561462d57836040517f9996b3150000000000000000000000000000000000000000000000000000000081526004016146249190614d37565b60405180910390fd5b819050614636565b5b9392505050565b60008151111561464f57805160208201fd5b6040517fd6bda27500000000000000000000000000000000000000000000000000000000815260040160405180910390fd5b6000819050919050565b61469481614681565b82525050565b60006020820190506146af600083018461468b565b92915050565b6000604051905090565b600080fd5b600080fd5b600073ffffffffffffffffffffffffffffffffffffffff82169050919050565b60006146f4826146c9565b9050919050565b614704816146e9565b811461470f57600080fd5b50565b600081359050614721816146fb565b92915050565b61473081614681565b811461473b57600080fd5b50565b60008135905061474d81614727565b92915050565b600080fd5b600080fd5b600080fd5b60008083601f84011261477857614777614753565b5b8235905067ffffffffffffffff81111561479557614794614758565b5b6020830191508360018202830111156147b1576147b061475d565b5b9250929050565b60008060008060008060008060c0898b0312156147d8576147d76146bf565b5b60006147e68b828c01614712565b98505060206147f78b828c0161473e565b97505060406148088b828c0161473e565b96505060606148198b828c0161473e565b955050608089013567ffffffffffffffff81111561483a576148396146c4565b5b6148468b828c01614762565b945094505060a089013567ffffffffffffffff811115614869576148686146c4565b5b6148758b828c01614762565b92509250509295985092959890939650565b60006020828403121561489d5761489c6146bf565b5b60006148ab8482850161473e565b91505092915050565b6000819050919050565b60006148d96148d46148cf846146c9565b6148b4565b6146c9565b9050919050565b60006148eb826148be565b9050919050565b60006148fd826148e0565b9050919050565b61490d816148f2565b82525050565b60006020820190506149286000830184614904565b92915050565b60008083601f84011261494457614943614753565b5b8235905067ffffffffffffffff81111561496157614960614758565b5b60208301915083600182028301111561497d5761497c61475d565b5b9250929050565b60008060006040848603121561499d5761499c6146bf565b5b60006149ab8682870161473e565b935050602084013567ffffffffffffffff8111156149cc576149cb6146c4565b5b6149d88682870161492e565b92509250509250925092565b6000602082840312156149fa576149f96146bf565b5b6000614a0884828501614712565b91505092915050565b600080fd5b6000601f19601f8301169050919050565b7f4e487b7100000000000000000000000000000000000000000000000000000000600052604160045260246000fd5b614a5f82614a16565b810181811067ffffffffffffffff82111715614a7e57614a7d614a27565b5b80604052505050565b6000614a916146b5565b9050614a9d8282614a56565b919050565b600067ffffffffffffffff821115614abd57614abc614a27565b5b614ac682614a16565b9050602081019050919050565b82818337600083830152505050565b6000614af5614af084614aa2565b614a87565b905082815260208101848484011115614b1157614b10614a11565b5b614b1c848285614ad3565b509392505050565b600082601f830112614b3957614b38614753565b5b8135614b49848260208601614ae2565b91505092915050565b600080600060608486031215614b6b57614b6a6146bf565b5b600084013567ffffffffffffffff811115614b8957614b886146c4565b5b614b9586828701614b24565b9350506020614ba686828701614712565b9250506040614bb786828701614712565b9150509250925092565b600067ffffffffffffffff821115614bdc57614bdb614a27565b5b614be582614a16565b9050602081019050919050565b6000614c05614c0084614bc1565b614a87565b905082815260208101848484011115614c2157614c20614a11565b5b614c2c848285614ad3565b509392505050565b600082601f830112614c4957614c48614753565b5b8135614c59848260208601614bf2565b91505092915050565b60008060408385031215614c7957614c786146bf565b5b6000614c8785828601614712565b925050602083013567ffffffffffffffff811115614ca857614ca76146c4565b5b614cb485828601614c34565b9150509250929050565b60008115159050919050565b614cd381614cbe565b82525050565b6000602082019050614cee6000830184614cca565b92915050565b6000819050919050565b614d0781614cf4565b82525050565b6000602082019050614d226000830184614cfe565b92915050565b614d31816146e9565b82525050565b6000602082019050614d4c6000830184614d28565b92915050565b600080600080600080600060a0888a031215614d7157614d706146bf565b5b6000614d7f8a828b01614712565b9750506020614d908a828b0161473e565b9650506040614da18a828b0161473e565b955050606088013567ffffffffffffffff811115614dc257614dc16146c4565b5b614dce8a828b01614762565b9450945050608088013567ffffffffffffffff811115614df157614df06146c4565b5b614dfd8a828b01614762565b925092505092959891949750929550565b600080fd5b600060a08284031215614e2957614e28614e0e565b5b81905092915050565b600080600060608486031215614e4b57614e4a6146bf565b5b6000614e598682870161473e565b9350506020614e6a8682870161473e565b925050604084013567ffffffffffffffff811115614e8b57614e8a6146c4565b5b614e9786828701614e13565b9150509250925092565b60008060008060008060808789031215614ebe57614ebd6146bf565b5b6000614ecc89828a01614712565b9650506020614edd89828a0161473e565b955050604087013567ffffffffffffffff811115614efe57614efd6146c4565b5b614f0a89828a01614762565b9450945050606087013567ffffffffffffffff811115614f2d57614f2c6146c4565b5b614f3989828a01614762565b92509250509295509295509295565b600081519050919050565b600082825260208201905092915050565b60005b83811015614f82578082015181840152602081019050614f67565b60008484015250505050565b6000614f9982614f48565b614fa38185614f53565b9350614fb3818560208601614f64565b614fbc81614a16565b840191505092915050565b60006020820190508181036000830152614fe18184614f8e565b905092915050565b6000806040838503121561500057614fff6146bf565b5b600061500e85828601614712565b925050602061501f8582860161473e565b9150509250929050565b60008060008060008060008060c0898b031215615049576150486146bf565b5b60006150578b828c01614712565b98505060206150688b828c0161473e565b97505060406150798b828c0161473e565b965050606061508a8b828c0161473e565b955050608089013567ffffffffffffffff8111156150ab576150aa6146c4565b5b6150b78b828c0161492e565b945094505060a089013567ffffffffffffffff8111156150da576150d96146c4565b5b6150e68b828c0161492e565b92509250509295985092959890939650565b600080600080600080600080600060e08a8c03121561511a576151196146bf565b5b60006151288c828d01614712565b99505060206151398c828d0161473e565b985050604061514a8c828d0161473e565b975050606061515b8c828d0161473e565b965050608061516c8c828d0161473e565b95505060a08a013567ffffffffffffffff81111561518d5761518c6146c4565b5b6151998c828d01614762565b945094505060c08a013567ffffffffffffffff8111156151bc576151bb6146c4565b5b6151c88c828d01614762565b92509250509295985092959850929598565b600082825260208201905092915050565b60006151f783856151da565b9350615204838584614ad3565b61520d83614a16565b840190509392505050565b600060608201905061522d600083018861468b565b81810360208301526152408186886151eb565b905081810360408301526152558184866151eb565b90509695505050505050565b600061526d8385614f53565b935061527a838584614ad3565b61528383614a16565b840190509392505050565b600060208201905081810360008301526152a9818486615261565b90509392505050565b7f4e487b7100000000000000000000000000000000000000000000000000000000600052601160045260246000fd5b60006152ec82614681565b91507fffffffffffffffffffffffffffffffffffffffffffffffffffffffffffffffff820361531e5761531d6152b2565b5b600182019050919050565b7f4e487b7100000000000000000000000000000000000000000000000000000000600052602260045260246000fd5b6000600282049050600182168061537057607f821691505b60208210810361538357615382615329565b5b50919050565b60008190508160005260206000209050919050565b60006020601f8301049050919050565b600082821b905092915050565b6000600883026153eb7fffffffffffffffffffffffffffffffffffffffffffffffffffffffffffffffff826153ae565b6153f586836153ae565b95508019841693508086168417925050509392505050565b600061542861542361541e84614681565b6148b4565b614681565b9050919050565b6000819050919050565b6154428361540d565b61545661544e8261542f565b8484546153bb565b825550505050565b600090565b61546b61545e565b615476818484615439565b505050565b5b8181101561549a5761548f600082615463565b60018101905061547c565b5050565b601f8211156154df576154b081615389565b6154b98461539e565b810160208510156154c8578190505b6154dc6154d48561539e565b83018261547b565b50505b505050565b600082821c905092915050565b6000615502600019846008026154e4565b1980831691505092915050565b600061551b83836154f1565b9150826002028217905092915050565b61553482614f48565b67ffffffffffffffff81111561554d5761554c614a27565b5b6155578254615358565b61556282828561549e565b600060209050601f8311600181146155955760008415615583578287015190505b61558d858261550f565b8655506155f5565b601f1984166155a386615389565b60005b828110156155cb578489015182556001820191506020850194506020810190506155a6565b868310156155e857848901516155e4601f8916826154f1565b8355505b6001600288020188555050505b505050505050565b6000819050919050565b600067ffffffffffffffff82169050919050565b600061563661563161562c846155fd565b6148b4565b615607565b9050919050565b6156468161561b565b82525050565b6000602082019050615661600083018461563d565b92915050565b600060408201905081810360008301526156828186886151eb565b905081810360208301526156978184866151eb565b905095945050505050565b600080fd5b600080fd5b600080fd5b600080833560016020038436030381126156ce576156cd6156a2565b5b80840192508235915067ffffffffffffffff8211156156f0576156ef6156a7565b5b60208301925060018202360383131561570c5761570b6156ac565b5b509250929050565b6000604082019050818103600083015261572f818688615261565b90508181036020830152615744818486615261565b905095945050505050565b6000608082019050615764600083018961468b565b615771602083018861468b565b81810360408301526157848186886151eb565b905081810360608301526157998184866151eb565b9050979650505050505050565b60006080820190506157bb600083018961468b565b6157c8602083018861468b565b81810360408301526157db818688615261565b905081810360608301526157f0818486615261565b9050979650505050505050565b61580681614cf4565b811461581157600080fd5b50565b600081519050615823816157fd565b92915050565b60006020828403121561583f5761583e6146bf565b5b600061584d84828501615814565b91505092915050565b600081519050919050565b600081905092915050565b600061587782615856565b6158818185615861565b9350615891818560208601614f64565b80840191505092915050565b60006158a9828461586c565b91508190509291505056fea2646970667358221220e5e21bf16fefced4180b2f0093c47072bfe45dc3e53de8ed2fc14240eb5bf82f64736f6c63430008180033",
  "linkReferences": {},
  "deployedLinkReferences": {}
}