{
  "_format": "hh-sol-artifact-1",
  "contractName": "EVMAIAgentEscrow",
  "sourceName": "contracts/EVMAIAgentEscrow.sol",
  "abi": [
    {
      "inputs": [
        {
          "internalType": "address",
          "name": "target",
          "type": "address"
        }
      ],
      "name": "AddressEmptyCode",
      "type": "error"
    },
    {
      "inputs": [
        {
          "internalType": "address",
          "name": "implementation",
          "type": "address"
        }
      ],
      "name": "ERC1967InvalidImplementation",
      "type": "error"
    },
    {
      "inputs": [],
      "name": "ERC1967NonPayable",
      "type": "error"
    },
    {
      "inputs": [],
      "name": "EscrowNotFound",
      "type": "error"
    },
    {
      "inputs": [],
      "name": "EscrowNotPending",
      "type": "error"
    },
    {
      "inputs": [],
      "name": "ExpirationInThePast",
      "type": "error"
    },
    {
      "inputs": [],
      "name": "FailedCall",
      "type": "error"
    },
    {
      "inputs": [],
      "name": "HasPendingPrompts",
      "type": "error"
    },
    {
      "inputs": [],
      "name": "InsufficientSpendingLimitAllowance",
      "type": "error"
    },
    {
      "inputs": [],
      "name": "InvalidInitialization",
      "type": "error"
    },
    {
      "inputs": [],
      "name": "NoActiveSpendingLimit",
      "type": "error"
    },
    {
      "inputs": [],
      "name": "NotEVMAIAgent",
      "type": "error"
    },
    {
      "inputs": [],
      "name": "NotInitializing",
      "type": "error"
    },
    {
      "inputs": [],
      "name": "NotOracle",
      "type": "error"
    },
    {
      "inputs": [],
      "name": "NotPromptOwner",
      "type": "error"
    },
    {
      "inputs": [
        {
          "internalType": "address",
          "name": "owner",
          "type": "address"
        }
      ],
      "name": "OwnableInvalidOwner",
      "type": "error"
    },
    {
      "inputs": [
        {
          "internalType": "address",
          "name": "account",
          "type": "address"
        }
      ],
      "name": "OwnableUnauthorizedAccount",
      "type": "error"
    },
    {
      "inputs": [],
      "name": "PromptNotCancellableYet",
      "type": "error"
    },
    {
      "inputs": [],
      "name": "PromptNotRefundableYet",
      "type": "error"
    },
    {
      "inputs": [],
      "name": "SpendingLimitExpired",
      "type": "error"
    },
    {
      "inputs": [],
      "name": "UUPSUnauthorizedCallContext",
      "type": "error"
    },
    {
      "inputs": [
        {
          "internalType": "bytes32",
          "name": "slot",
          "type": "bytes32"
        }
      ],
      "name": "UUPSUnsupportedProxiableUUID",
      "type": "error"
    },
    {
      "inputs": [],
      "name": "ZeroAddress",
      "type": "error"
    },
    {
      "inputs": [],
      "name": "ZeroSpendingLimit",
      "type": "error"
    },
    {
      "anonymous": false,
      "inputs": [
        {
          "indexed": true,
          "internalType": "uint256",
          "name": "newFee",
          "type": "uint256"
        }
      ],
      "name": "BranchFeeUpdated",
      "type": "event"
    },
    {
      "anonymous": false,
      "inputs": [
        {
          "indexed": true,
          "internalType": "uint256",
          "name": "newFee",
          "type": "uint256"
        }
      ],
      "name": "CancellationFeeUpdated",
      "type": "event"
    },
    {
      "anonymous": false,
      "inputs": [
        {
          "indexed": false,
          "internalType": "uint64",
          "name": "version",
          "type": "uint64"
        }
      ],
      "name": "Initialized",
      "type": "event"
    },
    {
      "anonymous": false,
      "inputs": [
        {
          "indexed": true,
          "internalType": "uint256",
          "name": "newFee",
          "type": "uint256"
        }
      ],
      "name": "MetadataUpdateFeeUpdated",
      "type": "event"
    },
    {
      "anonymous": false,
      "inputs": [
        {
          "indexed": true,
          "internalType": "address",
          "name": "previousOwner",
          "type": "address"
        },
        {
          "indexed": true,
          "internalType": "address",
          "name": "newOwner",
          "type": "address"
        }
      ],
      "name": "OwnershipTransferred",
      "type": "event"
    },
    {
      "anonymous": false,
      "inputs": [
        {
          "indexed": true,
          "internalType": "uint256",
          "name": "escrowId",
          "type": "uint256"
        },
        {
          "indexed": true,
          "internalType": "address",
          "name": "user",
          "type": "address"
        },
        {
          "indexed": true,
          "internalType": "uint256",
          "name": "amount",
          "type": "uint256"
        }
      ],
      "name": "PaymentEscrowed",
      "type": "event"
    },
    {
      "anonymous": false,
      "inputs": [
        {
          "indexed": true,
          "internalType": "uint256",
          "name": "escrowId",
          "type": "uint256"
        }
      ],
      "name": "PaymentFinalized",
      "type": "event"
    },
    {
      "anonymous": false,
      "inputs": [
        {
          "indexed": true,
          "internalType": "uint256",
          "name": "escrowId",
          "type": "uint256"
        }
      ],
      "name": "PaymentRefunded",
      "type": "event"
    },
    {
      "anonymous": false,
      "inputs": [
        {
          "indexed": true,
          "internalType": "address",
          "name": "user",
          "type": "address"
        },
        {
          "indexed": true,
          "internalType": "uint256",
          "name": "answerMessageId",
          "type": "uint256"
        }
      ],
      "name": "PromptCancelled",
      "type": "event"
    },
    {
      "anonymous": false,
      "inputs": [
        {
          "indexed": true,
          "internalType": "uint256",
          "name": "newFee",
          "type": "uint256"
        }
      ],
      "name": "PromptFeeUpdated",
      "type": "event"
    },
    {
      "anonymous": false,
      "inputs": [
        {
          "indexed": true,
          "internalType": "address",
          "name": "user",
          "type": "address"
        }
      ],
      "name": "SpendingLimitCancelled",
      "type": "event"
    },
    {
      "anonymous": false,
      "inputs": [
        {
          "indexed": true,
          "internalType": "address",
          "name": "user",
          "type": "address"
        },
        {
          "indexed": true,
          "internalType": "uint256",
          "name": "allowance",
          "type": "uint256"
        },
        {
          "indexed": true,
          "internalType": "uint256",
          "name": "expiresAt",
          "type": "uint256"
        }
      ],
      "name": "SpendingLimitSet",
      "type": "event"
    },
    {
      "anonymous": false,
      "inputs": [
        {
          "indexed": true,
          "internalType": "address",
          "name": "newTreasury",
          "type": "address"
        }
      ],
      "name": "TreasuryUpdated",
      "type": "event"
    },
    {
      "anonymous": false,
      "inputs": [
        {
          "indexed": true,
          "internalType": "address",
          "name": "implementation",
          "type": "address"
        }
      ],
      "name": "Upgraded",
      "type": "event"
    },
    {
      "inputs": [],
      "name": "CANCELLATION_TIMEOUT",
      "outputs": [
        {
          "internalType": "uint256",
          "name": "",
          "type": "uint256"
        }
      ],
      "stateMutability": "view",
      "type": "function"
    },
    {
      "inputs": [],
      "name": "REFUND_TIMEOUT",
      "outputs": [
        {
          "internalType": "uint256",
          "name": "",
          "type": "uint256"
        }
      ],
      "stateMutability": "view",
      "type": "function"
    },
    {
      "inputs": [],
      "name": "UPGRADE_INTERFACE_VERSION",
      "outputs": [
        {
          "internalType": "string",
          "name": "",
          "type": "string"
        }
      ],
      "stateMutability": "view",
      "type": "function"
    },
    {
      "inputs": [],
      "name": "ableToken",
      "outputs": [
        {
          "internalType": "contract IERC20",
          "name": "",
          "type": "address"
        }
      ],
      "stateMutability": "view",
      "type": "function"
    },
    {
      "inputs": [],
      "name": "branchFee",
      "outputs": [
        {
          "internalType": "uint256",
          "name": "",
          "type": "uint256"
        }
      ],
      "stateMutability": "view",
      "type": "function"
    },
    {
      "inputs": [
        {
          "internalType": "uint256",
          "name": "_answerMessageId",
          "type": "uint256"
        }
      ],
      "name": "cancelPrompt",
      "outputs": [],
      "stateMutability": "nonpayable",
      "type": "function"
    },
    {
      "inputs": [],
      "name": "cancelSpendingLimit",
      "outputs": [],
      "stateMutability": "nonpayable",
      "type": "function"
    },
    {
      "inputs": [],
      "name": "cancellationFee",
      "outputs": [
        {
          "internalType": "uint256",
          "name": "",
          "type": "uint256"
        }
      ],
      "stateMutability": "view",
      "type": "function"
    },
    {
      "inputs": [
        {
          "internalType": "uint256",
          "name": "",
          "type": "uint256"
        }
      ],
      "name": "escrows",
      "outputs": [
        {
          "internalType": "address",
          "name": "user",
          "type": "address"
        },
        {
          "internalType": "uint256",
          "name": "amount",
          "type": "uint256"
        },
        {
          "internalType": "uint256",
          "name": "createdAt",
          "type": "uint256"
        },
        {
          "internalType": "enum EVMAIAgentEscrow.EscrowStatus",
          "name": "status",
          "type": "uint8"
        }
      ],
      "stateMutability": "view",
      "type": "function"
    },
    {
      "inputs": [],
      "name": "evmAIAgent",
      "outputs": [
        {
          "internalType": "contract IEVMAIAgent",
          "name": "",
          "type": "address"
        }
      ],
      "stateMutability": "view",
      "type": "function"
    },
    {
      "inputs": [
        {
          "internalType": "uint256",
          "name": "_escrowId",
          "type": "uint256"
        }
      ],
      "name": "finalizePayment",
      "outputs": [],
      "stateMutability": "nonpayable",
      "type": "function"
    },
    {
      "inputs": [
        {
          "internalType": "address",
          "name": "_tokenAddress",
          "type": "address"
        },
        {
          "internalType": "address",
          "name": "_agentAddress",
          "type": "address"
        },
        {
          "internalType": "address",
          "name": "_treasuryAddress",
          "type": "address"
        },
        {
          "internalType": "address",
          "name": "_initialOwner",
          "type": "address"
        },
        {
          "internalType": "uint256",
          "name": "_initialPromptFee",
          "type": "uint256"
        },
        {
          "internalType": "uint256",
          "name": "_initialCancellationFee",
          "type": "uint256"
        },
        {
          "internalType": "uint256",
          "name": "_initialMetadataUpdateFee",
          "type": "uint256"
        },
        {
          "internalType": "uint256",
          "name": "_initialBranchFee",
          "type": "uint256"
        }
      ],
      "name": "initialize",
      "outputs": [],
      "stateMutability": "nonpayable",
      "type": "function"
    },
    {
      "inputs": [
        {
          "internalType": "address",
          "name": "_user",
          "type": "address"
        },
        {
          "internalType": "uint256",
          "name": "_jobId",
          "type": "uint256"
        },
        {
          "internalType": "bytes",
          "name": "_encryptedPayload",
          "type": "bytes"
        },
        {
          "internalType": "bytes",
          "name": "_roflEncryptedKey",
          "type": "bytes"
        }
      ],
      "name": "initiateAgentJob",
      "outputs": [],
      "stateMutability": "nonpayable",
      "type": "function"
    },
    {
      "inputs": [
        {
          "internalType": "uint256",
          "name": "_originalConversationId",
          "type": "uint256"
        },
        {
          "internalType": "uint256",
          "name": "_branchPointMessageId",
          "type": "uint256"
        },
        {
          "internalType": "bytes",
          "name": "_encryptedPayload",
          "type": "bytes"
        },
        {
          "internalType": "bytes",
          "name": "_roflEncryptedKey",
          "type": "bytes"
        }
      ],
      "name": "initiateBranch",
      "outputs": [],
      "stateMutability": "nonpayable",
      "type": "function"
    },
    {
      "inputs": [
        {
          "internalType": "uint256",
          "name": "_conversationId",
          "type": "uint256"
        },
        {
          "internalType": "bytes",
          "name": "_encryptedPayload",
          "type": "bytes"
        },
        {
          "internalType": "bytes",
          "name": "_roflEncryptedKey",
          "type": "bytes"
        }
      ],
      "name": "initiateMetadataUpdate",
      "outputs": [],
      "stateMutability": "nonpayable",
      "type": "function"
    },
    {
      "inputs": [
        {
          "internalType": "uint256",
          "name": "_conversationId",
          "type": "uint256"
        },
        {
          "internalType": "bytes",
          "name": "_encryptedPayload",
          "type": "bytes"
        },
        {
          "internalType": "bytes",
          "name": "_roflEncryptedKey",
          "type": "bytes"
        }
      ],
      "name": "initiatePrompt",
      "outputs": [],
      "stateMutability": "nonpayable",
      "type": "function"
    },
    {
      "inputs": [
        {
          "internalType": "uint256",
          "name": "_conversationId",
          "type": "uint256"
        },
        {
          "internalType": "uint256",
          "name": "_promptMessageId",
          "type": "uint256"
        },
        {
          "internalType": "uint256",
          "name": "_previousAnswerMessageId",
          "type": "uint256"
        },
        {
          "internalType": "bytes",
          "name": "_encryptedPayload",
          "type": "bytes"
        },
        {
          "internalType": "bytes",
          "name": "_roflEncryptedKey",
          "type": "bytes"
        }
      ],
      "name": "initiateRegeneration",
      "outputs": [],
      "stateMutability": "nonpayable",
      "type": "function"
    },
    {
      "inputs": [],
      "name": "metadataUpdateFee",
      "outputs": [
        {
          "internalType": "uint256",
          "name": "",
          "type": "uint256"
        }
      ],
      "stateMutability": "view",
      "type": "function"
    },
    {
      "inputs": [],
      "name": "owner",
      "outputs": [
        {
          "internalType": "address",
          "name": "",
          "type": "address"
        }
      ],
      "stateMutability": "view",
      "type": "function"
    },
    {
      "inputs": [
        {
          "internalType": "address",
          "name": "",
          "type": "address"
        }
      ],
      "name": "pendingEscrowCount",
      "outputs": [
        {
          "internalType": "uint256",
          "name": "",
          "type": "uint256"
        }
      ],
      "stateMutability": "view",
      "type": "function"
    },
    {
      "inputs": [
        {
          "internalType": "uint256",
          "name": "_answerMessageId",
          "type": "uint256"
        }
      ],
      "name": "processRefund",
      "outputs": [],
      "stateMutability": "nonpayable",
      "type": "function"
    },
    {
      "inputs": [],
      "name": "promptFee",
      "outputs": [
        {
          "internalType": "uint256",
          "name": "",
          "type": "uint256"
        }
      ],
      "stateMutability": "view",
      "type": "function"
    },
    {
      "inputs": [],
      "name": "proxiableUUID",
      "outputs": [
        {
          "internalType": "bytes32",
          "name": "",
          "type": "bytes32"
        }
      ],
      "stateMutability": "view",
      "type": "function"
    },
    {
      "inputs": [],
      "name": "renounceOwnership",
      "outputs": [],
      "stateMutability": "nonpayable",
      "type": "function"
    },
    {
      "inputs": [
        {
          "internalType": "uint256",
          "name": "_newFee",
          "type": "uint256"
        }
      ],
      "name": "setBranchFee",
      "outputs": [],
      "stateMutability": "nonpayable",
      "type": "function"
    },
    {
      "inputs": [
        {
          "internalType": "uint256",
          "name": "_newFee",
          "type": "uint256"
        }
      ],
      "name": "setCancellationFee",
      "outputs": [],
      "stateMutability": "nonpayable",
      "type": "function"
    },
    {
      "inputs": [
        {
          "internalType": "uint256",
          "name": "_newFee",
          "type": "uint256"
        }
      ],
      "name": "setMetadataUpdateFee",
      "outputs": [],
      "stateMutability": "nonpayable",
      "type": "function"
    },
    {
      "inputs": [
        {
          "internalType": "uint256",
          "name": "_newFee",
          "type": "uint256"
        }
      ],
      "name": "setPromptFee",
      "outputs": [],
      "stateMutability": "nonpayable",
      "type": "function"
    },
    {
      "inputs": [
        {
          "internalType": "uint256",
          "name": "_allowance",
          "type": "uint256"
        },
        {
          "internalType": "uint256",
          "name": "_expiresAt",
          "type": "uint256"
        }
      ],
      "name": "setSpendingLimit",
      "outputs": [],
      "stateMutability": "nonpayable",
      "type": "function"
    },
    {
      "inputs": [
        {
          "internalType": "address",
          "name": "_newTreasury",
          "type": "address"
        }
      ],
      "name": "setTreasury",
      "outputs": [],
      "stateMutability": "nonpayable",
      "type": "function"
    },
    {
      "inputs": [
        {
          "internalType": "address",
          "name": "",
          "type": "address"
        }
      ],
      "name": "spendingLimits",
      "outputs": [
        {
          "internalType": "uint256",
          "name": "allowance",
          "type": "uint256"
        },
        {
          "internalType": "uint256",
          "name": "spentAmount",
          "type": "uint256"
        },
        {
          "internalType": "uint256",
          "name": "expiresAt",
          "type": "uint256"
        }
      ],
      "stateMutability": "view",
      "type": "function"
    },
    {
      "inputs": [
        {
          "internalType": "address",
          "name": "newOwner",
          "type": "address"
        }
      ],
      "name": "transferOwnership",
      "outputs": [],
      "stateMutability": "nonpayable",
      "type": "function"
    },
    {
      "inputs": [],
      "name": "treasury",
      "outputs": [
        {
          "internalType": "address",
          "name": "",
          "type": "address"
        }
      ],
      "stateMutability": "view",
      "type": "function"
    },
    {
      "inputs": [
        {
          "internalType": "address",
          "name": "newImplementation",
          "type": "address"
        },
        {
          "internalType": "bytes",
          "name": "data",
          "type": "bytes"
        }
      ],
      "name": "upgradeToAndCall",
      "outputs": [],
      "stateMutability": "payable",
      "type": "function"
    }
  ],
  "bytecode": "0x60a06040523060805234801561001457600080fd5b50608051612ffb61003e60003960008181611f2801528181611f51015261211f0152612ffb6000f3fe6080604052600436106102195760003560e01c8063715018a61161011d578063ccdb3442116100b0578063edc37efc1161007f578063f221c23411610064578063f221c2341461069a578063f2fde38b146106ba578063f8152671146106da57600080fd5b8063edc37efc1461065a578063f0f442601461067a57600080fd5b8063ccdb3442146105e1578063dac87ca4146105f7578063df13c27a14610617578063ecad65b71461064457600080fd5b80638da5cb5b116100ec5780638da5cb5b1461050e578063ad3cb1cc1461054b578063c5224856146105a1578063c843e81c146105c157600080fd5b8063715018a6146104ae5780637d57900a146104c35780637f5a19f1146104d95780638cb210c1146104ee57600080fd5b806352d1902d116101b057806361cfdb1f1161017f578063658c820a11610164578063658c820a1461042157806369658806146104785780636ef569a51461049857600080fd5b806361cfdb1f146103e157806361d027b31461040157600080fd5b806352d1902d1461036c57806355786ece1461038157806355c9237c146103a1578063588e0b89146103c157600080fd5b80632dd10ad3116101ec5780632dd10ad3146102eb5780633b36a7de1461030b5780634f1ef286146103215780635241e72f1461033457600080fd5b8063012f52ee1461021e5780631052d8b51461028657806313159e64146102a85780631a04f42d146102c8575b600080fd5b34801561022a57600080fd5b5061026d6102393660046127d7565b60096020526000908152604090208054600182015460028301546003909301546001600160a01b0390921692909160ff1684565b60405161027d949392919061281f565b60405180910390f35b34801561029257600080fd5b506102a66102a13660046127d7565b6106fa565b005b3480156102b457600080fd5b506102a66102c33660046127d7565b610735565b3480156102d457600080fd5b506102dd600381565b60405190815260200161027d565b3480156102f757600080fd5b506102a66103063660046127d7565b610acd565b34801561031757600080fd5b506102dd60065481565b6102a661032f3660046128c7565b610b08565b34801561034057600080fd5b50600054610354906001600160a01b031681565b6040516001600160a01b03909116815260200161027d565b34801561037857600080fd5b506102dd610b27565b34801561038d57600080fd5b506102a661039c3660046129f2565b610b56565b3480156103ad57600080fd5b506102a66103bc366004612a7e565b610eb2565b3480156103cd57600080fd5b506102a66103dc366004612abd565b610fd9565b3480156103ed57600080fd5b506102a66103fc3660046127d7565b6112a9565b34801561040d57600080fd5b50600254610354906001600160a01b031681565b34801561042d57600080fd5b5061045d61043c366004612b37565b60076020526000908152604090208054600182015460029092015490919083565b6040805193845260208401929092529082015260600161027d565b34801561048457600080fd5b506102a66104933660046127d7565b6112e4565b3480156104a457600080fd5b506102dd60045481565b3480156104ba57600080fd5b506102a66114cb565b3480156104cf57600080fd5b506102dd610e1081565b3480156104e557600080fd5b506102a66114df565b3480156104fa57600080fd5b506102a6610509366004612abd565b61156d565b34801561051a57600080fd5b507f9016d09d72d40fdae2fd8ceac6b6234c7706214fd39c1cd1e609a0528c199300546001600160a01b0316610354565b34801561055757600080fd5b506105946040518060400160405280600581526020017f352e302e3000000000000000000000000000000000000000000000000000000081525081565b60405161027d9190612b78565b3480156105ad57600080fd5b506102a66105bc3660046127d7565b611605565b3480156105cd57600080fd5b506102a66105dc366004612bc9565b611640565b3480156105ed57600080fd5b506102dd60055481565b34801561060357600080fd5b506102a66106123660046127d7565b6118b0565b34801561062357600080fd5b506102dd610632366004612b37565b60086020526000908152604090205481565b34801561065057600080fd5b506102dd60035481565b34801561066657600080fd5b50600154610354906001600160a01b031681565b34801561068657600080fd5b506102a6610695366004612b37565b611aad565b3480156106a657600080fd5b506102a66106b5366004612c49565b611b57565b3480156106c657600080fd5b506102a66106d5366004612b37565b611d26565b3480156106e657600080fd5b506102a66106f5366004612cd6565b611d82565b610702611ea9565b600681905560405181907f4e2e12fcddc1b371d183ac1bdf59f5f7163f95ca29db7711fb8b28ef01fe74e490600090a250565b6000818152600960209081526040808320338085526007909352922082548493926001600160a01b0390911614610798576040517fc5fde46b00000000000000000000000000000000000000000000000000000000815260040160405180910390fd5b6000600383015460ff1660028111156107b3576107b36127f0565b146107ea576040517f523b659600000000000000000000000000000000000000000000000000000000815260040160405180910390fd5b600382600201546107fb9190612d27565b421015610834576040517f60d1517a00000000000000000000000000000000000000000000000000000000815260040160405180910390fd5b816001015481600101600082825461084c9190612d3a565b909155505060045460018201546108639190612d27565b8154101561089d576040517f3ee5d04100000000000000000000000000000000000000000000000000000000815260040160405180910390fd5b6004548160010160008282546108b39190612d27565b9091555050600054600254600480546040517f23b872dd00000000000000000000000000000000000000000000000000000000815233928101929092526001600160a01b03928316602483015260448201529116906323b872dd906064016020604051808303816000875af1158015610930573d6000803e3d6000fd5b505050506040513d601f19601f820116820180604052508101906109549190612d4d565b50336000908152600860205260408120805490919061097290612d6f565b9091555060038201805460ff191660021790556001546040517fd3e64bc8000000000000000000000000000000000000000000000000000000008152336004820152602481018690526001600160a01b039091169063d3e64bc890604401600060405180830381600087803b1580156109ea57600080fd5b505af11580156109fe573d6000803e3d6000fd5b5050600054845460018601546040517fa9059cbb0000000000000000000000000000000000000000000000000000000081526001600160a01b03928316600482015260248101919091529116925063a9059cbb91506044016020604051808303816000875af1158015610a75573d6000803e3d6000fd5b505050506040513d601f19601f82011682018060405250810190610a999190612d4d565b50604051849033907ff15c83325878e52421cfdea91b5b0c34775fe735c4cbb36435caabf62b4f422f90600090a350505050565b610ad5611ea9565b600481905560405181907f5b81b8e66a81fbba6ded220cf668cb5da777acaa83cafe789c2699cad0efd80890600090a250565b610b10611f1d565b610b1982611fed565b610b238282611ff5565b5050565b6000610b31612114565b507f360894a13ba1a3210667c828492db98dca3e2076cc3735a920a3ca505d382bbc90565b600160009054906101000a90046001600160a01b03166001600160a01b0316637dc0d1d06040518163ffffffff1660e01b8152600401602060405180830381865afa158015610ba9573d6000803e3d6000fd5b505050506040513d601f19601f82011682018060405250810190610bcd9190612da4565b6001600160a01b0316336001600160a01b031614610c17576040517f1bc2178f00000000000000000000000000000000000000000000000000000000815260040160405180910390fd5b610c2386600354612176565b846000819003610ca957600160009054906101000a90046001600160a01b03166001600160a01b031663c8f7f3df6040518163ffffffff1660e01b81526004016020604051808303816000875af1158015610c82573d6000803e3d6000fd5b505050506040513d601f19601f82011682018060405250810190610ca69190612dc1565b90505b600154604080517f40b333da00000000000000000000000000000000000000000000000000000000815290516000926001600160a01b0316916340b333da916004808301926020929190829003018187875af1158015610d0d573d6000803e3d6000fd5b505050506040513d601f19601f82011682018060405250810190610d319190612dc1565b604080516080810182526001600160a01b038b8116825260038054602080850191825242858701908152600060608701818152898252600990935296909620855181547fffffffffffffffffffffffff000000000000000000000000000000000000000016951694909417845590516001808501919091559451600280850191909155905191830180549697508796949593949293909260ff1916918490811115610dde57610dde6127f0565b0217905550905050600354896001600160a01b0316827f2f3c4f27eb1db28d21f423c207ea1f397503ab0c3399982719e036d008398c5860405160405180910390a46001546040517f74a271610000000000000000000000000000000000000000000000000000000081526001600160a01b03909116906374a2716190610e75908c90879087908d908d908d908d90600401612e23565b600060405180830381600087803b158015610e8f57600080fd5b505af1158015610ea3573d6000803e3d6000fd5b50505050505050505050505050565b610ebe336006546122ee565b600154604080517ff6ecad5500000000000000000000000000000000000000000000000000000000815290516000926001600160a01b03169163f6ecad55916004808301926020929190829003018187875af1158015610f22573d6000803e3d6000fd5b505050506040513d601f19601f82011682018060405250810190610f469190612dc1565b6001546040517fd17cae450000000000000000000000000000000000000000000000000000000081529192506001600160a01b03169063d17cae4590610f9e9033908b908b9087908c908c908c908c90600401612e73565b600060405180830381600087803b158015610fb857600080fd5b505af1158015610fcc573d6000803e3d6000fd5b5050505050505050505050565b610fe533600354612176565b84600081900361106b57600160009054906101000a90046001600160a01b03166001600160a01b031663f6ecad556040518163ffffffff1660e01b81526004016020604051808303816000875af1158015611044573d6000803e3d6000fd5b505050506040513d601f19601f820116820180604052508101906110689190612dc1565b90505b600154604080517fe2cd17a600000000000000000000000000000000000000000000000000000000815290516000926001600160a01b03169163e2cd17a6916004808301926020929190829003018187875af11580156110cf573d6000803e3d6000fd5b505050506040513d601f19601f820116820180604052508101906110f39190612dc1565b90506000600160009054906101000a90046001600160a01b03166001600160a01b031663e2cd17a66040518163ffffffff1660e01b81526004016020604051808303816000875af115801561114c573d6000803e3d6000fd5b505050506040513d601f19601f820116820180604052508101906111709190612dc1565b6040805160808101825233815260038054602080840191825242848601908152600060608601818152888252600990935295909520845181547fffffffffffffffffffffffff0000000000000000000000000000000000000000166001600160a01b039091161781559151600180840191909155945160028084019190915590519282018054969750879694959294909260ff19909116918490811115611219576112196127f0565b021790555050600354604051909150339083907f2f3c4f27eb1db28d21f423c207ea1f397503ab0c3399982719e036d008398c5890600090a46001546040517f0f6a842e0000000000000000000000000000000000000000000000000000000081526001600160a01b0390911690630f6a842e90610e759033908890889088908f908f908f908f90600401612e73565b6112b1611ea9565b600381905560405181907f3fd8bf3c49bb6f6bc6c7f054afbd1438f44bc2a5dea88b6dfaf57dedbdeac35c90600090a250565b6001546001600160a01b03163314611328576040517f22fb47e900000000000000000000000000000000000000000000000000000000815260040160405180910390fd5b600081815260096020526040902080546001600160a01b0316611377576040517ff1d80ab100000000000000000000000000000000000000000000000000000000815260040160405180910390fd5b6000600382015460ff166002811115611392576113926127f0565b146113c9576040517f523b659600000000000000000000000000000000000000000000000000000000815260040160405180910390fd5b80546001600160a01b0316600090815260086020526040812080549091906113f090612d6f565b9091555060038101805460ff1916600117905560405182907fa3f0d45b13be973f775e525b275f23b411c2afafc91835e0a3e2a4b46e635f4990600090a260005460025460018301546040517fa9059cbb0000000000000000000000000000000000000000000000000000000081526001600160a01b039283166004820152602481019190915291169063a9059cbb906044016020604051808303816000875af11580156114a2573d6000803e3d6000fd5b505050506040513d601f19601f820116820180604052508101906114c69190612d4d565b505050565b6114d3611ea9565b6114dd6000612440565b565b3360009081526008602052604090205415611526576040517f9d4f979400000000000000000000000000000000000000000000000000000000815260040160405180910390fd5b3360008181526007602052604080822082815560018101839055600201829055517fd814266a306964671aa20c3f1095fabf48d4924f1ab973d6334ccbd16a8a33739190a2565b611579336005546122ee565b6001546040517fa10a2df40000000000000000000000000000000000000000000000000000000081526001600160a01b039091169063a10a2df4906115cc90339089908990899089908990600401612eca565b600060405180830381600087803b1580156115e657600080fd5b505af11580156115fa573d6000803e3d6000fd5b505050505050505050565b61160d611ea9565b600581905560405181907f319450fd8d3baff915a83e89c9ebb8265bd2cb1835352f3a3d7d6a5f99094ba290600090a250565b600061164a6124c9565b805490915060ff68010000000000000000820416159067ffffffffffffffff166000811580156116775750825b905060008267ffffffffffffffff1660011480156116945750303b155b9050811580156116a2575080155b156116d9576040517ff92ee8a900000000000000000000000000000000000000000000000000000000815260040160405180910390fd5b84547fffffffffffffffffffffffffffffffffffffffffffffffff0000000000000000166001178555831561173a5784547fffffffffffffffffffffffffffffffffffffffffffffff00ffffffffffffffff16680100000000000000001785555b6117438a6124f4565b61174b612505565b6001600160a01b038d16158061176857506001600160a01b038c16155b8061177a57506001600160a01b038b16155b156117b1576040517fd92e233d00000000000000000000000000000000000000000000000000000000815260040160405180910390fd5b8c6000806101000a8154816001600160a01b0302191690836001600160a01b031602179055508b600160006101000a8154816001600160a01b0302191690836001600160a01b031602179055508a600260006101000a8154816001600160a01b0302191690836001600160a01b03160217905550886003819055508760048190555086600581905550856006819055508315610ea35784547fffffffffffffffffffffffffffffffffffffffffffffff00ffffffffffffffff168555604051600181527fc7f505b2f371ae2175ee4913f4499e1f2633a7b5936321eed1cdaeb6115181d29060200160405180910390a150505050505050505050505050565b600081815260096020526040902080548291906001600160a01b03166118d557505050565b6000600382015460ff1660028111156118f0576118f06127f0565b14611927576040517f523b659600000000000000000000000000000000000000000000000000000000815260040160405180910390fd5b610e1081600201546119399190612d27565b421015611972576040517f19ef5b0f00000000000000000000000000000000000000000000000000000000815260040160405180910390fd5b80546001600160a01b03166000908152600860205260408120805490919061199990612d6f565b9091555060038101805460ff1916600217905560018082015482546001600160a01b031660009081526007602052604081209092018054919290916119df908490612d3a565b909155505060405182907fc12258dbc8f5aaf21f9b7ef40fbfb87befc7c46ac42dccc2c5cc565347e56ee690600090a2600054815460018301546040517fa9059cbb0000000000000000000000000000000000000000000000000000000081526001600160a01b039283166004820152602481019190915291169063a9059cbb906044015b6020604051808303816000875af1158015611a83573d6000803e3d6000fd5b505050506040513d601f19601f82011682018060405250810190611aa79190612d4d565b50505050565b611ab5611ea9565b6001600160a01b038116611af5576040517fd92e233d00000000000000000000000000000000000000000000000000000000815260040160405180910390fd5b600280547fffffffffffffffffffffffff0000000000000000000000000000000000000000166001600160a01b0383169081179091556040517f7dae230f18360d76a040c81f050aa14eb9d6dc7901b20fc5d855e2a20fe814d190600090a250565b611b6333600354612176565b600154604080517fe2cd17a600000000000000000000000000000000000000000000000000000000815290516000926001600160a01b03169163e2cd17a6916004808301926020929190829003018187875af1158015611bc7573d6000803e3d6000fd5b505050506040513d601f19601f82011682018060405250810190611beb9190612dc1565b6040805160808101825233815260038054602080840191825242848601908152600060608601818152888252600990935295909520845181547fffffffffffffffffffffffff0000000000000000000000000000000000000000166001600160a01b039091161781559151600180840191909155945160028084019190915590519282018054969750879694959294909260ff19909116918490811115611c9457611c946127f0565b021790555050600354604051909150339083907f2f3c4f27eb1db28d21f423c207ea1f397503ab0c3399982719e036d008398c5890600090a46001546040517fe88d193b0000000000000000000000000000000000000000000000000000000081526001600160a01b039091169063e88d193b90610e759033908d908d908d9089908e908e908e908e90600401612f13565b611d2e611ea9565b6001600160a01b038116611d76576040517f1e4fbdf7000000000000000000000000000000000000000000000000000000008152600060048201526024015b60405180910390fd5b611d7f81612440565b50565b3360009081526008602052604090205415611dc9576040517f9d4f979400000000000000000000000000000000000000000000000000000000815260040160405180910390fd5b81600003611e03576040517f94a3ad5400000000000000000000000000000000000000000000000000000000815260040160405180910390fd5b428111611e3c576040517f66604d7c00000000000000000000000000000000000000000000000000000000815260040160405180910390fd5b6040805160608101825283815260006020808301828152838501868152338085526007909352858420945185559051600185015551600290930192909255915183928592917f149b95d169259a113227b180d7190d669dcfdef24fe125d82cd13874e341a4f99190a45050565b33611edb7f9016d09d72d40fdae2fd8ceac6b6234c7706214fd39c1cd1e609a0528c199300546001600160a01b031690565b6001600160a01b0316146114dd576040517f118cdaa7000000000000000000000000000000000000000000000000000000008152336004820152602401611d6d565b306001600160a01b037f0000000000000000000000000000000000000000000000000000000000000000161480611fb657507f00000000000000000000000000000000000000000000000000000000000000006001600160a01b0316611faa7f360894a13ba1a3210667c828492db98dca3e2076cc3735a920a3ca505d382bbc546001600160a01b031690565b6001600160a01b031614155b156114dd576040517fe07c8dba00000000000000000000000000000000000000000000000000000000815260040160405180910390fd5b611d7f611ea9565b816001600160a01b03166352d1902d6040518163ffffffff1660e01b8152600401602060405180830381865afa92505050801561206d575060408051601f3d9081017fffffffffffffffffffffffffffffffffffffffffffffffffffffffffffffffe016820190925261206a91810190612dc1565b60015b6120ae576040517f4c9c8ce30000000000000000000000000000000000000000000000000000000081526001600160a01b0383166004820152602401611d6d565b7f360894a13ba1a3210667c828492db98dca3e2076cc3735a920a3ca505d382bbc811461210a576040517faa1d49a400000000000000000000000000000000000000000000000000000000815260048101829052602401611d6d565b6114c6838361250d565b306001600160a01b037f000000000000000000000000000000000000000000000000000000000000000016146114dd576040517fe07c8dba00000000000000000000000000000000000000000000000000000000815260040160405180910390fd5b6001600160a01b038216600090815260076020526040812060028101549091036121cc576040517f859a68cc00000000000000000000000000000000000000000000000000000000815260040160405180910390fd5b80600201544210612209576040517f2657502300000000000000000000000000000000000000000000000000000000815260040160405180910390fd5b8054600182015461221b908490612d27565b1115612253576040517f3ee5d04100000000000000000000000000000000000000000000000000000000815260040160405180910390fd5b818160010160008282546122679190612d27565b90915550506001600160a01b0383166000908152600860205260408120805490919061229290612f71565b909155506000546040517f23b872dd0000000000000000000000000000000000000000000000000000000081526001600160a01b03858116600483015230602483015260448201859052909116906323b872dd90606401611a64565b6001600160a01b03821660009081526007602052604081206002810154909103612344576040517f859a68cc00000000000000000000000000000000000000000000000000000000815260040160405180910390fd5b80600201544210612381576040517f2657502300000000000000000000000000000000000000000000000000000000815260040160405180910390fd5b80546001820154612393908490612d27565b11156123cb576040517f3ee5d04100000000000000000000000000000000000000000000000000000000815260040160405180910390fd5b818160010160008282546123df9190612d27565b90915550506000546002546040517f23b872dd0000000000000000000000000000000000000000000000000000000081526001600160a01b0386811660048301529182166024820152604481018590529116906323b872dd90606401611a64565b7f9016d09d72d40fdae2fd8ceac6b6234c7706214fd39c1cd1e609a0528c19930080547fffffffffffffffffffffffff000000000000000000000000000000000000000081166001600160a01b03848116918217845560405192169182907f8be0079c531659141344cd1fd0a4f28419497f9722a3daafe3b4186f6b6457e090600090a3505050565b6000807ff0c57e16840df040f15088dc2f81fe391c3923bec73e23a9662efc9c229c6a005b92915050565b6124fc612563565b611d7f816125a1565b6114dd612563565b612516826125a9565b6040516001600160a01b038316907fbc7cd75a20ee27fd9adebab32041f755214dbc6bffa90cc0225b39da2e5c2d3b90600090a280511561255b576114c68282612651565b610b236126c7565b61256b6126ff565b6114dd576040517fd7e6bcf800000000000000000000000000000000000000000000000000000000815260040160405180910390fd5b611d2e612563565b806001600160a01b03163b6000036125f8576040517f4c9c8ce30000000000000000000000000000000000000000000000000000000081526001600160a01b0382166004820152602401611d6d565b7f360894a13ba1a3210667c828492db98dca3e2076cc3735a920a3ca505d382bbc80547fffffffffffffffffffffffff0000000000000000000000000000000000000000166001600160a01b0392909216919091179055565b6060600080846001600160a01b03168460405161266e9190612fa9565b600060405180830381855af49150503d80600081146126a9576040519150601f19603f3d011682016040523d82523d6000602084013e6126ae565b606091505b50915091506126be85838361271e565b95945050505050565b34156114dd576040517fb398979f00000000000000000000000000000000000000000000000000000000815260040160405180910390fd5b60006127096124c9565b5468010000000000000000900460ff16919050565b6060826127335761272e82612796565b61278f565b815115801561274a57506001600160a01b0384163b155b1561278c576040517f9996b3150000000000000000000000000000000000000000000000000000000081526001600160a01b0385166004820152602401611d6d565b50805b9392505050565b8051156127a557805160208201fd5b6040517fd6bda27500000000000000000000000000000000000000000000000000000000815260040160405180910390fd5b6000602082840312156127e957600080fd5b5035919050565b7f4e487b7100000000000000000000000000000000000000000000000000000000600052602160045260246000fd5b6001600160a01b038516815260208101849052604081018390526080810160038310612874577f4e487b7100000000000000000000000000000000000000000000000000000000600052602160045260246000fd5b82606083015295945050505050565b6001600160a01b0381168114611d7f57600080fd5b7f4e487b7100000000000000000000000000000000000000000000000000000000600052604160045260246000fd5b600080604083850312156128da57600080fd5b82356128e581612883565b9150602083013567ffffffffffffffff8082111561290257600080fd5b818501915085601f83011261291657600080fd5b81358181111561292857612928612898565b604051601f82017fffffffffffffffffffffffffffffffffffffffffffffffffffffffffffffffe0908116603f0116810190838211818310171561296e5761296e612898565b8160405282815288602084870101111561298757600080fd5b8260208601602083013760006020848301015280955050505050509250929050565b60008083601f8401126129bb57600080fd5b50813567ffffffffffffffff8111156129d357600080fd5b6020830191508360208285010111156129eb57600080fd5b9250929050565b60008060008060008060808789031215612a0b57600080fd5b8635612a1681612883565b955060208701359450604087013567ffffffffffffffff80821115612a3a57600080fd5b612a468a838b016129a9565b90965094506060890135915080821115612a5f57600080fd5b50612a6c89828a016129a9565b979a9699509497509295939492505050565b60008060008060008060808789031215612a9757600080fd5b8635955060208701359450604087013567ffffffffffffffff80821115612a3a57600080fd5b600080600080600060608688031215612ad557600080fd5b85359450602086013567ffffffffffffffff80821115612af457600080fd5b612b0089838a016129a9565b90965094506040880135915080821115612b1957600080fd5b50612b26888289016129a9565b969995985093965092949392505050565b600060208284031215612b4957600080fd5b813561278f81612883565b60005b83811015612b6f578181015183820152602001612b57565b50506000910152565b6020815260008251806020840152612b97816040850160208701612b54565b601f017fffffffffffffffffffffffffffffffffffffffffffffffffffffffffffffffe0169190910160400192915050565b600080600080600080600080610100898b031215612be657600080fd5b8835612bf181612883565b97506020890135612c0181612883565b96506040890135612c1181612883565b95506060890135612c2181612883565b979a969950949760808101359660a0820135965060c0820135955060e0909101359350915050565b600080600080600080600060a0888a031215612c6457600080fd5b873596506020880135955060408801359450606088013567ffffffffffffffff80821115612c9157600080fd5b612c9d8b838c016129a9565b909650945060808a0135915080821115612cb657600080fd5b50612cc38a828b016129a9565b989b979a50959850939692959293505050565b60008060408385031215612ce957600080fd5b50508035926020909101359150565b7f4e487b7100000000000000000000000000000000000000000000000000000000600052601160045260246000fd5b808201808211156124ee576124ee612cf8565b818103818111156124ee576124ee612cf8565b600060208284031215612d5f57600080fd5b8151801515811461278f57600080fd5b600081612d7e57612d7e612cf8565b507fffffffffffffffffffffffffffffffffffffffffffffffffffffffffffffffff0190565b600060208284031215612db657600080fd5b815161278f81612883565b600060208284031215612dd357600080fd5b5051919050565b8183528181602085013750600060208284010152600060207fffffffffffffffffffffffffffffffffffffffffffffffffffffffffffffffe0601f840116840101905092915050565b6001600160a01b038816815286602082015285604082015260a060608201526000612e5260a083018688612dda565b8281036080840152612e65818587612dda565b9a9950505050505050505050565b6001600160a01b038916815287602082015286604082015285606082015260c060808201526000612ea860c083018688612dda565b82810360a0840152612ebb818587612dda565b9b9a5050505050505050505050565b6001600160a01b0387168152856020820152608060408201526000612ef3608083018688612dda565b8281036060840152612f06818587612dda565b9998505050505050505050565b6001600160a01b038a16815288602082015287604082015286606082015285608082015260e060a08201526000612f4e60e083018688612dda565b82810360c0840152612f61818587612dda565b9c9b505050505050505050505050565b60007fffffffffffffffffffffffffffffffffffffffffffffffffffffffffffffffff8203612fa257612fa2612cf8565b5060010190565b60008251612fbb818460208701612b54565b919091019291505056fea2646970667358221220e5324912ef20665af6d5198e8a8594ec7ee1cfd383e88f12f4211a32b2df5aef64736f6c63430008180033",
  "linkReferences": {},
  "deployedLinkReferences": {}
}