{
  "_format": "hh-sol-artifact-1",
  "contractName": "EVMAIAgent",
  "sourceName": "contracts/EVMAIAgent.sol",
  "abi": [
    {
      "inputs": [
        {
          "internalType": "address",
          "name": "target",
          "type": "address"
        }
      ],
      "name": "AddressEmptyCode",
      "type": "error"
    },
    {
      "inputs": [],
      "name": "AgentEscrowAlreadySet",
      "type": "error"
    },
    {
      "inputs": [],
      "name": "AnswerCIDRequired",
      "type": "error"
    },
    {
      "inputs": [
        {
          "internalType": "address",
          "name": "implementation",
          "type": "address"
        }
      ],
      "name": "ERC1967InvalidImplementation",
      "type": "error"
    },
    {
      "inputs": [],
      "name": "ERC1967NonPayable",
      "type": "error"
    },
    {
      "inputs": [],
      "name": "FailedCall",
      "type": "error"
    },
    {
      "inputs": [],
      "name": "InvalidInitialization",
      "type": "error"
    },
    {
      "inputs": [],
      "name": "InvalidPromptMessageId",
      "type": "error"
    },
    {
      "inputs": [],
      "name": "JobAlreadyFinalized",
      "type": "error"
    },
    {
      "inputs": [],
      "name": "NotAIAgentEscrow",
      "type": "error"
    },
    {
      "inputs": [],
      "name": "NotInitializing",
      "type": "error"
    },
    {
      "inputs": [
        {
          "internalType": "address",
          "name": "owner",
          "type": "address"
        }
      ],
      "name": "OwnableInvalidOwner",
      "type": "error"
    },
    {
      "inputs": [
        {
          "internalType": "address",
          "name": "account",
          "type": "address"
        }
      ],
      "name": "OwnableUnauthorizedAccount",
      "type": "error"
    },
    {
      "inputs": [],
      "name": "RegenerationAlreadyPending",
      "type": "error"
    },
    {
      "inputs": [],
      "name": "UUPSUnauthorizedCallContext",
      "type": "error"
    },
    {
      "inputs": [
        {
          "internalType": "bytes32",
          "name": "slot",
          "type": "bytes32"
        }
      ],
      "name": "UUPSUnsupportedProxiableUUID",
      "type": "error"
    },
    {
      "inputs": [],
      "name": "Unauthorized",
      "type": "error"
    },
    {
      "inputs": [],
      "name": "UnauthorizedOracle",
      "type": "error"
    },
    {
      "inputs": [],
      "name": "ZeroAddress",
      "type": "error"
    },
    {
      "anonymous": false,
      "inputs": [
        {
          "indexed": true,
          "internalType": "address",
          "name": "newAIAgentEscrow",
          "type": "address"
        }
      ],
      "name": "AgentEscrowUpdated",
      "type": "event"
    },
    {
      "anonymous": false,
      "inputs": [
        {
          "indexed": true,
          "internalType": "address",
          "name": "user",
          "type": "address"
        },
        {
          "indexed": true,
          "internalType": "uint256",
          "name": "jobId",
          "type": "uint256"
        },
        {
          "indexed": true,
          "internalType": "uint256",
          "name": "triggerId",
          "type": "uint256"
        },
        {
          "indexed": false,
          "internalType": "bytes",
          "name": "encryptedPayload",
          "type": "bytes"
        },
        {
          "indexed": false,
          "internalType": "bytes",
          "name": "roflEncryptedKey",
          "type": "bytes"
        }
      ],
      "name": "AgentJobSubmitted",
      "type": "event"
    },
    {
      "anonymous": false,
      "inputs": [
        {
          "indexed": true,
          "internalType": "uint256",
          "name": "conversationId",
          "type": "uint256"
        },
        {
          "indexed": true,
          "internalType": "uint256",
          "name": "messageId",
          "type": "uint256"
        },
        {
          "indexed": false,
          "internalType": "string",
          "name": "messageCID",
          "type": "string"
        }
      ],
      "name": "AnswerMessageAdded",
      "type": "event"
    },
    {
      "anonymous": false,
      "inputs": [
        {
          "indexed": true,
          "internalType": "address",
          "name": "user",
          "type": "address"
        },
        {
          "indexed": true,
          "internalType": "uint256",
          "name": "originalConversationId",
          "type": "uint256"
        },
        {
          "indexed": false,
          "internalType": "uint256",
          "name": "branchPointMessageId",
          "type": "uint256"
        },
        {
          "indexed": false,
          "internalType": "uint256",
          "name": "newConversationId",
          "type": "uint256"
        },
        {
          "indexed": false,
          "internalType": "bytes",
          "name": "encryptedPayload",
          "type": "bytes"
        },
        {
          "indexed": false,
          "internalType": "bytes",
          "name": "roflEncryptedKey",
          "type": "bytes"
        }
      ],
      "name": "BranchRequested",
      "type": "event"
    },
    {
      "anonymous": false,
      "inputs": [
        {
          "indexed": true,
          "internalType": "address",
          "name": "user",
          "type": "address"
        },
        {
          "indexed": true,
          "internalType": "uint256",
          "name": "conversationId",
          "type": "uint256"
        },
        {
          "indexed": false,
          "internalType": "string",
          "name": "conversationCID",
          "type": "string"
        },
        {
          "indexed": false,
          "internalType": "string",
          "name": "metadataCID",
          "type": "string"
        }
      ],
      "name": "ConversationAdded",
      "type": "event"
    },
    {
      "anonymous": false,
      "inputs": [
        {
          "indexed": true,
          "internalType": "address",
          "name": "user",
          "type": "address"
        },
        {
          "indexed": true,
          "internalType": "uint256",
          "name": "newConversationId",
          "type": "uint256"
        },
        {
          "indexed": false,
          "internalType": "uint256",
          "name": "originalConversationId",
          "type": "uint256"
        },
        {
          "indexed": false,
          "internalType": "uint256",
          "name": "branchPointMessageId",
          "type": "uint256"
        },
        {
          "indexed": false,
          "internalType": "string",
          "name": "conversationCID",
          "type": "string"
        },
        {
          "indexed": false,
          "internalType": "string",
          "name": "metadataCID",
          "type": "string"
        }
      ],
      "name": "ConversationBranched",
      "type": "event"
    },
    {
      "anonymous": false,
      "inputs": [
        {
          "indexed": true,
          "internalType": "uint256",
          "name": "conversationId",
          "type": "uint256"
        },
        {
          "indexed": false,
          "internalType": "string",
          "name": "newConversationMetadataCID",
          "type": "string"
        }
      ],
      "name": "ConversationMetadataUpdated",
      "type": "event"
    },
    {
      "anonymous": false,
      "inputs": [
        {
          "indexed": false,
          "internalType": "uint64",
          "name": "version",
          "type": "uint64"
        }
      ],
      "name": "Initialized",
      "type": "event"
    },
    {
      "anonymous": false,
      "inputs": [
        {
          "indexed": true,
          "internalType": "address",
          "name": "user",
          "type": "address"
        },
        {
          "indexed": true,
          "internalType": "uint256",
          "name": "conversationId",
          "type": "uint256"
        },
        {
          "indexed": false,
          "internalType": "bytes",
          "name": "encryptedPayload",
          "type": "bytes"
        },
        {
          "indexed": false,
          "internalType": "bytes",
          "name": "roflEncryptedKey",
          "type": "bytes"
        }
      ],
      "name": "MetadataUpdateRequested",
      "type": "event"
    },
    {
      "anonymous": false,
      "inputs": [
        {
          "indexed": true,
          "internalType": "address",
          "name": "newOracle",
          "type": "address"
        }
      ],
      "name": "OracleUpdated",
      "type": "event"
    },
    {
      "anonymous": false,
      "inputs": [
        {
          "indexed": true,
          "internalType": "address",
          "name": "previousOwner",
          "type": "address"
        },
        {
          "indexed": true,
          "internalType": "address",
          "name": "newOwner",
          "type": "address"
        }
      ],
      "name": "OwnershipTransferred",
      "type": "event"
    },
    {
      "anonymous": false,
      "inputs": [
        {
          "indexed": true,
          "internalType": "address",
          "name": "user",
          "type": "address"
        },
        {
          "indexed": true,
          "internalType": "uint256",
          "name": "answerMessageId",
          "type": "uint256"
        }
      ],
      "name": "PromptCancelled",
      "type": "event"
    },
    {
      "anonymous": false,
      "inputs": [
        {
          "indexed": true,
          "internalType": "uint256",
          "name": "conversationId",
          "type": "uint256"
        },
        {
          "indexed": true,
          "internalType": "uint256",
          "name": "messageId",
          "type": "uint256"
        },
        {
          "indexed": false,
          "internalType": "string",
          "name": "messageCID",
          "type": "string"
        }
      ],
      "name": "PromptMessageAdded",
      "type": "event"
    },
    {
      "anonymous": false,
      "inputs": [
        {
          "indexed": true,
          "internalType": "address",
          "name": "user",
          "type": "address"
        },
        {
          "indexed": true,
          "internalType": "uint256",
          "name": "conversationId",
          "type": "uint256"
        },
        {
          "indexed": true,
          "internalType": "uint256",
          "name": "promptMessageId",
          "type": "uint256"
        },
        {
          "indexed": false,
          "internalType": "uint256",
          "name": "answerMessageId",
          "type": "uint256"
        },
        {
          "indexed": false,
          "internalType": "bytes",
          "name": "encryptedPayload",
          "type": "bytes"
        },
        {
          "indexed": false,
          "internalType": "bytes",
          "name": "roflEncryptedKey",
          "type": "bytes"
        }
      ],
      "name": "PromptSubmitted",
      "type": "event"
    },
    {
      "anonymous": false,
      "inputs": [
        {
          "indexed": true,
          "internalType": "address",
          "name": "user",
          "type": "address"
        },
        {
          "indexed": true,
          "internalType": "uint256",
          "name": "conversationId",
          "type": "uint256"
        },
        {
          "indexed": true,
          "internalType": "uint256",
          "name": "promptMessageId",
          "type": "uint256"
        },
        {
          "indexed": false,
          "internalType": "uint256",
          "name": "originalAnswerMessageId",
          "type": "uint256"
        },
        {
          "indexed": false,
          "internalType": "uint256",
          "name": "answerMessageId",
          "type": "uint256"
        },
        {
          "indexed": false,
          "internalType": "bytes",
          "name": "encryptedPayload",
          "type": "bytes"
        },
        {
          "indexed": false,
          "internalType": "bytes",
          "name": "roflEncryptedKey",
          "type": "bytes"
        }
      ],
      "name": "RegenerationRequested",
      "type": "event"
    },
    {
      "anonymous": false,
      "inputs": [
        {
          "indexed": true,
          "internalType": "uint256",
          "name": "messageId",
          "type": "uint256"
        },
        {
          "indexed": false,
          "internalType": "string",
          "name": "searchDeltaCID",
          "type": "string"
        }
      ],
      "name": "SearchIndexDeltaAdded",
      "type": "event"
    },
    {
      "anonymous": false,
      "inputs": [
        {
          "indexed": true,
          "internalType": "address",
          "name": "implementation",
          "type": "address"
        }
      ],
      "name": "Upgraded",
      "type": "event"
    },
    {
      "inputs": [],
      "name": "UPGRADE_INTERFACE_VERSION",
      "outputs": [
        {
          "internalType": "string",
          "name": "",
          "type": "string"
        }
      ],
      "stateMutability": "view",
      "type": "function"
    },
    {
      "inputs": [],
      "name": "aiAgentEscrow",
      "outputs": [
        {
          "internalType": "contract IEVMAIAgentEscrow",
          "name": "",
          "type": "address"
        }
      ],
      "stateMutability": "view",
      "type": "function"
    },
    {
      "inputs": [],
      "name": "conversationIdCounter",
      "outputs": [
        {
          "internalType": "uint256",
          "name": "",
          "type": "uint256"
        }
      ],
      "stateMutability": "view",
      "type": "function"
    },
    {
      "inputs": [
        {
          "internalType": "uint256",
          "name": "",
          "type": "uint256"
        }
      ],
      "name": "conversationToOwner",
      "outputs": [
        {
          "internalType": "address",
          "name": "",
          "type": "address"
        }
      ],
      "stateMutability": "view",
      "type": "function"
    },
    {
      "inputs": [],
      "name": "domain",
      "outputs": [
        {
          "internalType": "string",
          "name": "",
          "type": "string"
        }
      ],
      "stateMutability": "view",
      "type": "function"
    },
    {
      "inputs": [
        {
          "internalType": "string",
          "name": "_domain",
          "type": "string"
        },
        {
          "internalType": "address",
          "name": "_oracle",
          "type": "address"
        },
        {
          "internalType": "address",
          "name": "_initialOwner",
          "type": "address"
        }
      ],
      "name": "initialize",
      "outputs": [],
      "stateMutability": "nonpayable",
      "type": "function"
    },
    {
      "inputs": [
        {
          "internalType": "uint256",
          "name": "",
          "type": "uint256"
        }
      ],
      "name": "isJobFinalized",
      "outputs": [
        {
          "internalType": "bool",
          "name": "",
          "type": "bool"
        }
      ],
      "stateMutability": "view",
      "type": "function"
    },
    {
      "inputs": [
        {
          "internalType": "uint256",
          "name": "",
          "type": "uint256"
        }
      ],
      "name": "isRegenerationPending",
      "outputs": [
        {
          "internalType": "bool",
          "name": "",
          "type": "bool"
        }
      ],
      "stateMutability": "view",
      "type": "function"
    },
    {
      "inputs": [],
      "name": "jobIdCounter",
      "outputs": [
        {
          "internalType": "uint256",
          "name": "",
          "type": "uint256"
        }
      ],
      "stateMutability": "view",
      "type": "function"
    },
    {
      "inputs": [
        {
          "internalType": "uint256",
          "name": "",
          "type": "uint256"
        }
      ],
      "name": "jobToOwner",
      "outputs": [
        {
          "internalType": "address",
          "name": "",
          "type": "address"
        }
      ],
      "stateMutability": "view",
      "type": "function"
    },
    {
      "inputs": [],
      "name": "messageIdCounter",
      "outputs": [
        {
          "internalType": "uint256",
          "name": "",
          "type": "uint256"
        }
      ],
      "stateMutability": "view",
      "type": "function"
    },
    {
      "inputs": [
        {
          "internalType": "uint256",
          "name": "",
          "type": "uint256"
        }
      ],
      "name": "messageToConversation",
      "outputs": [
        {
          "internalType": "uint256",
          "name": "",
          "type": "uint256"
        }
      ],
      "stateMutability": "view",
      "type": "function"
    },
    {
      "inputs": [],
      "name": "oracle",
      "outputs": [
        {
          "internalType": "address",
          "name": "",
          "type": "address"
        }
      ],
      "stateMutability": "view",
      "type": "function"
    },
    {
      "inputs": [],
      "name": "owner",
      "outputs": [
        {
          "internalType": "address",
          "name": "",
          "type": "address"
        }
      ],
      "stateMutability": "view",
      "type": "function"
    },
    {
      "inputs": [],
      "name": "proxiableUUID",
      "outputs": [
        {
          "internalType": "bytes32",
          "name": "",
          "type": "bytes32"
        }
      ],
      "stateMutability": "view",
      "type": "function"
    },
    {
      "inputs": [
        {
          "internalType": "address",
          "name": "_user",
          "type": "address"
        },
        {
          "internalType": "uint256",
          "name": "_answerMessageId",
          "type": "uint256"
        }
      ],
      "name": "recordCancellation",
      "outputs": [],
      "stateMutability": "nonpayable",
      "type": "function"
    },
    {
      "inputs": [],
      "name": "renounceOwnership",
      "outputs": [],
      "stateMutability": "nonpayable",
      "type": "function"
    },
    {
      "inputs": [],
      "name": "reserveConversationId",
      "outputs": [
        {
          "internalType": "uint256",
          "name": "",
          "type": "uint256"
        }
      ],
      "stateMutability": "nonpayable",
      "type": "function"
    },
    {
      "inputs": [],
      "name": "reserveJobId",
      "outputs": [
        {
          "internalType": "uint256",
          "name": "",
          "type": "uint256"
        }
      ],
      "stateMutability": "nonpayable",
      "type": "function"
    },
    {
      "inputs": [],
      "name": "reserveMessageId",
      "outputs": [
        {
          "internalType": "uint256",
          "name": "",
          "type": "uint256"
        }
      ],
      "stateMutability": "nonpayable",
      "type": "function"
    },
    {
      "inputs": [],
      "name": "reserveTriggerId",
      "outputs": [
        {
          "internalType": "uint256",
          "name": "",
          "type": "uint256"
        }
      ],
      "stateMutability": "nonpayable",
      "type": "function"
    },
    {
      "inputs": [
        {
          "internalType": "address",
          "name": "_newAIAgentEscrow",
          "type": "address"
        }
      ],
      "name": "setAgentEscrow",
      "outputs": [],
      "stateMutability": "nonpayable",
      "type": "function"
    },
    {
      "inputs": [
        {
          "internalType": "address",
          "name": "_newOracle",
          "type": "address"
        }
      ],
      "name": "setOracle",
      "outputs": [],
      "stateMutability": "nonpayable",
      "type": "function"
    },
    {
      "inputs": [
        {
          "internalType": "address",
          "name": "_user",
          "type": "address"
        },
        {
          "internalType": "uint256",
          "name": "_jobId",
          "type": "uint256"
        },
        {
          "internalType": "uint256",
          "name": "_triggerId",
          "type": "uint256"
        },
        {
          "internalType": "bytes",
          "name": "_encryptedPayload",
          "type": "bytes"
        },
        {
          "internalType": "bytes",
          "name": "_roflEncryptedKey",
          "type": "bytes"
        }
      ],
      "name": "submitAgentJob",
      "outputs": [],
      "stateMutability": "nonpayable",
      "type": "function"
    },
    {
      "inputs": [
        {
          "internalType": "uint256",
          "name": "_promptMessageId",
          "type": "uint256"
        },
        {
          "internalType": "uint256",
          "name": "_answerMessageId",
          "type": "uint256"
        },
        {
          "components": [
            {
              "internalType": "string",
              "name": "conversationCID",
              "type": "string"
            },
            {
              "internalType": "string",
              "name": "metadataCID",
              "type": "string"
            },
            {
              "internalType": "string",
              "name": "promptMessageCID",
              "type": "string"
            },
            {
              "internalType": "string",
              "name": "answerMessageCID",
              "type": "string"
            },
            {
              "internalType": "string",
              "name": "searchDeltaCID",
              "type": "string"
            }
          ],
          "internalType": "struct Structs.CidBundle",
          "name": "_cids",
          "type": "tuple"
        }
      ],
      "name": "submitAnswer",
      "outputs": [],
      "stateMutability": "nonpayable",
      "type": "function"
    },
    {
      "inputs": [
        {
          "internalType": "address",
          "name": "_user",
          "type": "address"
        },
        {
          "internalType": "uint256",
          "name": "_originalConversationId",
          "type": "uint256"
        },
        {
          "internalType": "uint256",
          "name": "_branchPointMessageId",
          "type": "uint256"
        },
        {
          "internalType": "uint256",
          "name": "_newConversationId",
          "type": "uint256"
        },
        {
          "internalType": "string",
          "name": "_conversationCID",
          "type": "string"
        },
        {
          "internalType": "string",
          "name": "_metadataCID",
          "type": "string"
        }
      ],
      "name": "submitBranch",
      "outputs": [],
      "stateMutability": "nonpayable",
      "type": "function"
    },
    {
      "inputs": [
        {
          "internalType": "address",
          "name": "_user",
          "type": "address"
        },
        {
          "internalType": "uint256",
          "name": "_originalConversationId",
          "type": "uint256"
        },
        {
          "internalType": "uint256",
          "name": "_branchPointMessageId",
          "type": "uint256"
        },
        {
          "internalType": "uint256",
          "name": "_newConversationId",
          "type": "uint256"
        },
        {
          "internalType": "bytes",
          "name": "_encryptedPayload",
          "type": "bytes"
        },
        {
          "internalType": "bytes",
          "name": "_roflEncryptedKey",
          "type": "bytes"
        }
      ],
      "name": "submitBranchRequest",
      "outputs": [],
      "stateMutability": "nonpayable",
      "type": "function"
    },
    {
      "inputs": [
        {
          "internalType": "uint256",
          "name": "_conversationId",
          "type": "uint256"
        },
        {
          "internalType": "string",
          "name": "_newConversationMetadataCID",
          "type": "string"
        }
      ],
      "name": "submitConversationMetadata",
      "outputs": [],
      "stateMutability": "nonpayable",
      "type": "function"
    },
    {
      "inputs": [
        {
          "internalType": "address",
          "name": "_user",
          "type": "address"
        },
        {
          "internalType": "uint256",
          "name": "_conversationId",
          "type": "uint256"
        },
        {
          "internalType": "bytes",
          "name": "_encryptedPayload",
          "type": "bytes"
        },
        {
          "internalType": "bytes",
          "name": "_roflEncryptedKey",
          "type": "bytes"
        }
      ],
      "name": "submitMetadataUpdate",
      "outputs": [],
      "stateMutability": "nonpayable",
      "type": "function"
    },
    {
      "inputs": [
        {
          "internalType": "address",
          "name": "_user",
          "type": "address"
        },
        {
          "internalType": "uint256",
          "name": "_conversationId",
          "type": "uint256"
        },
        {
          "internalType": "uint256",
          "name": "_promptMessageId",
          "type": "uint256"
        },
        {
          "internalType": "uint256",
          "name": "_answerMessageId",
          "type": "uint256"
        },
        {
          "internalType": "bytes",
          "name": "_encryptedPayload",
          "type": "bytes"
        },
        {
          "internalType": "bytes",
          "name": "_roflEncryptedKey",
          "type": "bytes"
        }
      ],
      "name": "submitPrompt",
      "outputs": [],
      "stateMutability": "nonpayable",
      "type": "function"
    },
    {
      "inputs": [
        {
          "internalType": "address",
          "name": "_user",
          "type": "address"
        },
        {
          "internalType": "uint256",
          "name": "_conversationId",
          "type": "uint256"
        },
        {
          "internalType": "uint256",
          "name": "_promptMessageId",
          "type": "uint256"
        },
        {
          "internalType": "uint256",
          "name": "_originalAnswerMessageId",
          "type": "uint256"
        },
        {
          "internalType": "uint256",
          "name": "_answerMessageId",
          "type": "uint256"
        },
        {
          "internalType": "bytes",
          "name": "_encryptedPayload",
          "type": "bytes"
        },
        {
          "internalType": "bytes",
          "name": "_roflEncryptedKey",
          "type": "bytes"
        }
      ],
      "name": "submitRegenerationRequest",
      "outputs": [],
      "stateMutability": "nonpayable",
      "type": "function"
    },
    {
      "inputs": [
        {
          "internalType": "address",
          "name": "newOwner",
          "type": "address"
        }
      ],
      "name": "transferOwnership",
      "outputs": [],
      "stateMutability": "nonpayable",
      "type": "function"
    },
    {
      "inputs": [],
      "name": "triggerIdCounter",
      "outputs": [
        {
          "internalType": "uint256",
          "name": "",
          "type": "uint256"
        }
      ],
      "stateMutability": "view",
      "type": "function"
    },
    {
      "inputs": [
        {
          "internalType": "uint256",
          "name": "",
          "type": "uint256"
        }
      ],
      "name": "triggerToJob",
      "outputs": [
        {
          "internalType": "uint256",
          "name": "",
          "type": "uint256"
        }
      ],
      "stateMutability": "view",
      "type": "function"
    },
    {
      "inputs": [
        {
          "internalType": "address",
          "name": "newImplementation",
          "type": "address"
        },
        {
          "internalType": "bytes",
          "name": "data",
          "type": "bytes"
        }
      ],
      "name": "upgradeToAndCall",
      "outputs": [],
      "stateMutability": "payable",
      "type": "function"
    }
  ],
  "bytecode": "0x60a06040523060805234801561001457600080fd5b506080516129e661003e60003960008181611a6401528181611a8d0152611c6001526129e66000f3fe6080604052600436106102345760003560e01c80638da5cb5b11610138578063d3e64bc8116100b0578063e84c04a51161007f578063eaea352111610064578063eaea3521146106c2578063f2fde38b146106d8578063f6ecad55146106f857600080fd5b8063e84c04a51461068c578063e88d193b146106a257600080fd5b8063d3e64bc814610607578063e1bba95b14610627578063e2cd17a614610647578063e7c65d9b1461065c57600080fd5b8063ad3cb1cc11610107578063c2fb26a6116100ec578063c2fb26a6146105bd578063c8f7f3df146105d2578063d17cae45146105e757600080fd5b8063ad3cb1cc14610531578063bdf3e1821461058757600080fd5b80638da5cb5b14610487578063987bb8aa146104c4578063a10a2df4146104e4578063abb204201461050457600080fd5b8063463fd1af116101cb578063646a19521161019a57806374a271611161017f57806374a27161146104275780637adbf973146104475780637dc0d1d01461046757600080fd5b8063646a1952146103dc578063715018a61461041257600080fd5b8063463fd1af146103545780634f1ef2861461037457806352d058291461038757806352d1902d146103c757600080fd5b806315a906f51161020757806315a906f5146102e95780632c87316c14610309578063404060db1461031f57806340b333da1461033f57600080fd5b80630f5a11ca146102395780630f6a842e1461026257806311b4aee71461028457806311f0edee146102b1575b600080fd5b34801561024557600080fd5b5061024f60055481565b6040519081526020015b60405180910390f35b34801561026e57600080fd5b5061028261027d366004612079565b61070d565b005b34801561029057600080fd5b5061024f61029f366004612116565b600a6020526000908152604090205481565b3480156102bd57600080fd5b506001546102d1906001600160a01b031681565b6040516001600160a01b039091168152602001610259565b3480156102f557600080fd5b5061028261030436600461212f565b61086e565b34801561031557600080fd5b5061024f60065481565b34801561032b57600080fd5b5061028261033a36600461217b565b6108f1565b34801561034b57600080fd5b5061024f6109de565b34801561036057600080fd5b5061028261036f366004612259565b610a3e565b6102826103823660046122cb565b610c66565b34801561039357600080fd5b506103b76103a2366004612116565b600c6020526000908152604090205460ff1681565b6040519015158152602001610259565b3480156103d357600080fd5b5061024f610c85565b3480156103e857600080fd5b506102d16103f7366004612116565b6008602052600090815260409020546001600160a01b031681565b34801561041e57600080fd5b50610282610cb4565b34801561043357600080fd5b5061028261044236600461232d565b610cc8565b34801561045357600080fd5b5061028261046236600461217b565b610e26565b34801561047357600080fd5b506000546102d1906001600160a01b031681565b34801561049357600080fd5b507f9016d09d72d40fdae2fd8ceac6b6234c7706214fd39c1cd1e609a0528c199300546001600160a01b03166102d1565b3480156104d057600080fd5b506102826104df3660046123c1565b610ece565b3480156104f057600080fd5b506102826104ff366004612418565b611284565b34801561051057600080fd5b5061024f61051f366004612116565b60096020526000908152604090205481565b34801561053d57600080fd5b5061057a6040518060400160405280600581526020017f352e302e3000000000000000000000000000000000000000000000000000000081525081565b60405161025991906124c6565b34801561059357600080fd5b506102d16105a2366004612116565b6007602052600090815260409020546001600160a01b031681565b3480156105c957600080fd5b5061057a61136b565b3480156105de57600080fd5b5061024f6113f9565b3480156105f357600080fd5b50610282610602366004612079565b611450565b34801561061357600080fd5b50610282610622366004612517565b611579565b34801561063357600080fd5b50610282610642366004612079565b611674565b34801561065357600080fd5b5061024f61174f565b34801561066857600080fd5b506103b7610677366004612116565b600b6020526000908152604090205460ff1681565b34801561069857600080fd5b5061024f60045481565b3480156106ae57600080fd5b506102826106bd366004612541565b6117a6565b3480156106ce57600080fd5b5061024f60035481565b3480156106e457600080fd5b506102826106f336600461217b565b611919565b34801561070457600080fd5b5061024f611975565b6001546001600160a01b03163314610751576040517fbc46cd6000000000000000000000000000000000000000000000000000000000815260040160405180910390fd5b6000878152600760205260409020546001600160a01b03166107b157600087815260076020526040902080547fffffffffffffffffffffffff0000000000000000000000000000000000000000166001600160a01b038a16179055610804565b6000878152600760205260409020546001600160a01b03898116911614610804576040517f82b4290000000000000000000000000000000000000000000000000000000000815260040160405180910390fd5b6000868152600960205260409081902088905551869088906001600160a01b038b16907f20c861c25e09d7d8d2afebbbcc4fba055f1073ed8ded6e1c47f27b9856f3b0f59061085c908a908a908a908a908a90612633565b60405180910390a45050505050505050565b6000546001600160a01b031633146108b2576040517fdb8d1fb700000000000000000000000000000000000000000000000000000000815260040160405180910390fd5b827fd4cd2498d9498ff33db61cc62ba77abcef5dc2fd5b9d78236e7053ef2f61420383836040516108e492919061266c565b60405180910390a2505050565b6108f96119cc565b6001600160a01b038116610939576040517fd92e233d00000000000000000000000000000000000000000000000000000000815260040160405180910390fd5b6001546001600160a01b03161561097c576040517fba9a9e5900000000000000000000000000000000000000000000000000000000815260040160405180910390fd5b600180547fffffffffffffffffffffffff0000000000000000000000000000000000000000166001600160a01b0383169081179091556040517f15b6203be6250eebd39d5c937581479db138d6311a424f6d9801b1fc212878c490600090a250565b6001546000906001600160a01b03163314610a25576040517fbc46cd6000000000000000000000000000000000000000000000000000000000815260040160405180910390fd5b60068054906000610a3583612688565b90915550905090565b7ff0c57e16840df040f15088dc2f81fe391c3923bec73e23a9662efc9c229c6a00805468010000000000000000810460ff16159067ffffffffffffffff16600081158015610a895750825b905060008267ffffffffffffffff166001148015610aa65750303b155b905081158015610ab4575080155b15610aeb576040517ff92ee8a900000000000000000000000000000000000000000000000000000000815260040160405180910390fd5b84547fffffffffffffffffffffffffffffffffffffffffffffffff00000000000000001660011785558315610b4c5784547fffffffffffffffffffffffffffffffffffffffffffffff00ffffffffffffffff16680100000000000000001785555b6001600160a01b0387161580610b6957506001600160a01b038616155b15610ba0576040517fd92e233d00000000000000000000000000000000000000000000000000000000815260040160405180910390fd5b610ba986611a40565b610bb1611a51565b6002610bbd898261278a565b50600080547fffffffffffffffffffffffff0000000000000000000000000000000000000000166001600160a01b038916179055600160038190556005558315610c5c5784547fffffffffffffffffffffffffffffffffffffffffffffff00ffffffffffffffff168555604051600181527fc7f505b2f371ae2175ee4913f4499e1f2633a7b5936321eed1cdaeb6115181d29060200160405180910390a15b5050505050505050565b610c6e611a59565b610c7782611b29565b610c818282611b31565b5050565b6000610c8f611c55565b507f360894a13ba1a3210667c828492db98dca3e2076cc3735a920a3ca505d382bbc90565b610cbc6119cc565b610cc66000611cb7565b565b6001546001600160a01b03163314610d0c576040517fbc46cd6000000000000000000000000000000000000000000000000000000000815260040160405180910390fd5b6000868152600860205260409020546001600160a01b0316610d6c57600086815260086020526040902080547fffffffffffffffffffffffff0000000000000000000000000000000000000000166001600160a01b038916179055610dbf565b6000868152600860205260409020546001600160a01b03888116911614610dbf576040517f82b4290000000000000000000000000000000000000000000000000000000000815260040160405180910390fd5b6000858152600a60205260409081902087905551859087906001600160a01b038a16907f3e575abc44d5b23ec517a545f4e3a401321287985020d4058ce3d6662ed84f0a90610e159089908990899089906128a4565b60405180910390a450505050505050565b610e2e6119cc565b6001600160a01b038116610e6e576040517fd92e233d00000000000000000000000000000000000000000000000000000000815260040160405180910390fd5b600080547fffffffffffffffffffffffff0000000000000000000000000000000000000000166001600160a01b038316908117825560405190917f3df77beb5db05fcdd70a30fc8adf3f83f9501b68579455adbd100b818094039491a250565b6000546001600160a01b03163314610f12576040517fdb8d1fb700000000000000000000000000000000000000000000000000000000815260040160405180910390fd5b6000828152600b602052604090205460ff1615610f5b576040517fc475cdec00000000000000000000000000000000000000000000000000000000815260040160405180910390fd5b610f6860608201826128d6565b9050600003610fa3576040517f479f8cff00000000000000000000000000000000000000000000000000000000815260040160405180910390fd5b6000838152600960209081526040808320548084526007909252909120546001600160a01b0316610fff576040517ed385f900000000000000000000000000000000000000000000000000000000815260040160405180910390fd5b6000838152600b6020908152604080832080547fffffffffffffffffffffffffffffffffffffffffffffffffffffffffffffff0016600117905583835260079091528120546001600160a01b03169061105884806128d6565b905011156110bc57816001600160a01b0382167f7fdc3d87ac151b91fcbbdb5dce5f29025df16428f380253423446f7f3088de2861109686806128d6565b6110a360208901896128d6565b6040516110b394939291906128a4565b60405180910390a35b60006110cb60408501856128d6565b905011156111635784827f902d471d255abdd0cc4cea32085ad105dbf866069748f609127905ca4529ee3861110360408701876128d6565b60405161111192919061266c565b60405180910390a3847f29f6c84ab81b5fcf79ef23441cabf3fdfba661928e2e655d7c330c1520d9846161114860808601866128d6565b60405161115692919061266c565b60405180910390a26111af565b6000858152600c602052604090205460ff16156111af576000858152600c6020526040902080547fffffffffffffffffffffffffffffffffffffffffffffffffffffffffffffff001690555b600084815260096020526040902082905583827fee68d538219fb8b8ab8859fbe3f672b4bec6b310466ed9e2b31a0b4b2c1f52496111f060608701876128d6565b6040516111fe92919061266c565b60405180910390a36001546040517f69658806000000000000000000000000000000000000000000000000000000008152600481018690526001600160a01b0390911690636965880690602401600060405180830381600087803b15801561126557600080fd5b505af1158015611279573d6000803e3d6000fd5b505050505050505050565b6001546001600160a01b031633146112c8576040517fbc46cd6000000000000000000000000000000000000000000000000000000000815260040160405180910390fd5b6000858152600760205260409020546001600160a01b0387811691161461131b576040517f82b4290000000000000000000000000000000000000000000000000000000000815260040160405180910390fd5b84866001600160a01b03167f26d668b92e5a70ff88be5dd97b3a5309ec12f91d8b506778c4c2266435b2d04c8686868660405161135b94939291906128a4565b60405180910390a3505050505050565b60028054611378906126e7565b80601f01602080910402602001604051908101604052809291908181526020018280546113a4906126e7565b80156113f15780601f106113c6576101008083540402835291602001916113f1565b820191906000526020600020905b8154815290600101906020018083116113d457829003601f168201915b505050505081565b6001546000906001600160a01b03163314611440576040517fbc46cd6000000000000000000000000000000000000000000000000000000000815260040160405180910390fd5b60058054906000610a3583612688565b6001546001600160a01b03163314611494576040517fbc46cd6000000000000000000000000000000000000000000000000000000000815260040160405180910390fd5b6000878152600760205260409020546001600160a01b038981169116146114e7576040517f82b4290000000000000000000000000000000000000000000000000000000000815260040160405180910390fd5b6000858152600760205260409081902080547fffffffffffffffffffffffff0000000000000000000000000000000000000000166001600160a01b038b1690811790915590518891907f6ebacac3e637c91857633db04bf1365580f0ccaea668244f7e8351f049b1773590611567908a908a908a908a908a908a9061293b565b60405180910390a35050505050505050565b6001546001600160a01b031633146115bd576040517fbc46cd6000000000000000000000000000000000000000000000000000000000815260040160405180910390fd5b6000818152600b602052604090205460ff1615611606576040517fc475cdec00000000000000000000000000000000000000000000000000000000815260040160405180910390fd5b6000818152600b602052604080822080547fffffffffffffffffffffffffffffffffffffffffffffffffffffffffffffff001660011790555182916001600160a01b038516917ff15c83325878e52421cfdea91b5b0c34775fe735c4cbb36435caabf62b4f422f9190a35050565b6000546001600160a01b031633146116b8576040517fdb8d1fb700000000000000000000000000000000000000000000000000000000815260040160405180910390fd5b6000858152600760205260409020546001600160a01b0389811691161461170b576040517f82b4290000000000000000000000000000000000000000000000000000000000815260040160405180910390fd5b84886001600160a01b03167f6c470ec698a68523e072e850c3b724dbcfdd1c97a307554e68f86bcb3f6abe9e8989888888886040516115679695949392919061293b565b6001546000906001600160a01b03163314611796576040517fbc46cd6000000000000000000000000000000000000000000000000000000000815260040160405180910390fd5b60048054906000610a3583612688565b6001546001600160a01b031633146117ea576040517fbc46cd6000000000000000000000000000000000000000000000000000000000815260040160405180910390fd5b6000878152600c602052604090205460ff1615611833576040517fd3d032b700000000000000000000000000000000000000000000000000000000815260040160405180910390fd5b6000888152600760205260409020546001600160a01b038a8116911614611886576040517f82b4290000000000000000000000000000000000000000000000000000000000815260040160405180910390fd5b6000878152600c60205260409081902080547fffffffffffffffffffffffffffffffffffffffffffffffffffffffffffffff0016600117905551879089906001600160a01b038c16907f87d13ae77164cc7215d9acff778e72555668eb9dca30947e5522c005835298a890611906908b908b908b908b908b908b9061293b565b60405180910390a4505050505050505050565b6119216119cc565b6001600160a01b038116611969576040517f1e4fbdf7000000000000000000000000000000000000000000000000000000008152600060048201526024015b60405180910390fd5b61197281611cb7565b50565b6001546000906001600160a01b031633146119bc576040517fbc46cd6000000000000000000000000000000000000000000000000000000000815260040160405180910390fd5b60038054906000610a3583612688565b336119fe7f9016d09d72d40fdae2fd8ceac6b6234c7706214fd39c1cd1e609a0528c199300546001600160a01b031690565b6001600160a01b031614610cc6576040517f118cdaa7000000000000000000000000000000000000000000000000000000008152336004820152602401611960565b611a48611d40565b61197281611da7565b610cc6611d40565b306001600160a01b037f0000000000000000000000000000000000000000000000000000000000000000161480611af257507f00000000000000000000000000000000000000000000000000000000000000006001600160a01b0316611ae67f360894a13ba1a3210667c828492db98dca3e2076cc3735a920a3ca505d382bbc546001600160a01b031690565b6001600160a01b031614155b15610cc6576040517fe07c8dba00000000000000000000000000000000000000000000000000000000815260040160405180910390fd5b6119726119cc565b816001600160a01b03166352d1902d6040518163ffffffff1660e01b8152600401602060405180830381865afa925050508015611ba9575060408051601f3d9081017fffffffffffffffffffffffffffffffffffffffffffffffffffffffffffffffe0168201909252611ba69181019061297b565b60015b611bea576040517f4c9c8ce30000000000000000000000000000000000000000000000000000000081526001600160a01b0383166004820152602401611960565b7f360894a13ba1a3210667c828492db98dca3e2076cc3735a920a3ca505d382bbc8114611c46576040517faa1d49a400000000000000000000000000000000000000000000000000000000815260048101829052602401611960565b611c508383611daf565b505050565b306001600160a01b037f00000000000000000000000000000000000000000000000000000000000000001614610cc6576040517fe07c8dba00000000000000000000000000000000000000000000000000000000815260040160405180910390fd5b7f9016d09d72d40fdae2fd8ceac6b6234c7706214fd39c1cd1e609a0528c19930080547fffffffffffffffffffffffff000000000000000000000000000000000000000081166001600160a01b03848116918217845560405192169182907f8be0079c531659141344cd1fd0a4f28419497f9722a3daafe3b4186f6b6457e090600090a3505050565b7ff0c57e16840df040f15088dc2f81fe391c3923bec73e23a9662efc9c229c6a005468010000000000000000900460ff16610cc6576040517fd7e6bcf800000000000000000000000000000000000000000000000000000000815260040160405180910390fd5b611921611d40565b611db882611e05565b6040516001600160a01b038316907fbc7cd75a20ee27fd9adebab32041f755214dbc6bffa90cc0225b39da2e5c2d3b90600090a2805115611dfd57611c508282611ead565b610c81611f23565b806001600160a01b03163b600003611e54576040517f4c9c8ce30000000000000000000000000000000000000000000000000000000081526001600160a01b0382166004820152602401611960565b7f360894a13ba1a3210667c828492db98dca3e2076cc3735a920a3ca505d382bbc80547fffffffffffffffffffffffff0000000000000000000000000000000000000000166001600160a01b0392909216919091179055565b6060600080846001600160a01b031684604051611eca9190612994565b600060405180830381855af49150503d8060008114611f05576040519150601f19603f3d011682016040523d82523d6000602084013e611f0a565b606091505b5091509150611f1a858383611f5b565b95945050505050565b3415610cc6576040517fb398979f00000000000000000000000000000000000000000000000000000000815260040160405180910390fd5b606082611f7057611f6b82611fd3565b611fcc565b8151158015611f8757506001600160a01b0384163b155b15611fc9576040517f9996b3150000000000000000000000000000000000000000000000000000000081526001600160a01b0385166004820152602401611960565b50805b9392505050565b805115611fe257805160208201fd5b6040517fd6bda27500000000000000000000000000000000000000000000000000000000815260040160405180910390fd5b80356001600160a01b038116811461202b57600080fd5b919050565b60008083601f84011261204257600080fd5b50813567ffffffffffffffff81111561205a57600080fd5b60208301915083602082850101111561207257600080fd5b9250929050565b60008060008060008060008060c0898b03121561209557600080fd5b61209e89612014565b9750602089013596506040890135955060608901359450608089013567ffffffffffffffff808211156120d057600080fd5b6120dc8c838d01612030565b909650945060a08b01359150808211156120f557600080fd5b506121028b828c01612030565b999c989b5096995094979396929594505050565b60006020828403121561212857600080fd5b5035919050565b60008060006040848603121561214457600080fd5b83359250602084013567ffffffffffffffff81111561216257600080fd5b61216e86828701612030565b9497909650939450505050565b60006020828403121561218d57600080fd5b611fcc82612014565b7f4e487b7100000000000000000000000000000000000000000000000000000000600052604160045260246000fd5b600067ffffffffffffffff808411156121e0576121e0612196565b604051601f85017fffffffffffffffffffffffffffffffffffffffffffffffffffffffffffffffe0908116603f0116810190828211818310171561222657612226612196565b8160405280935085815286868601111561223f57600080fd5b858560208301376000602087830101525050509392505050565b60008060006060848603121561226e57600080fd5b833567ffffffffffffffff81111561228557600080fd5b8401601f8101861361229657600080fd5b6122a5868235602084016121c5565b9350506122b460208501612014565b91506122c260408501612014565b90509250925092565b600080604083850312156122de57600080fd5b6122e783612014565b9150602083013567ffffffffffffffff81111561230357600080fd5b8301601f8101851361231457600080fd5b612323858235602084016121c5565b9150509250929050565b600080600080600080600060a0888a03121561234857600080fd5b61235188612014565b96506020880135955060408801359450606088013567ffffffffffffffff8082111561237c57600080fd5b6123888b838c01612030565b909650945060808a01359150808211156123a157600080fd5b506123ae8a828b01612030565b989b979a50959850939692959293505050565b6000806000606084860312156123d657600080fd5b8335925060208401359150604084013567ffffffffffffffff8111156123fb57600080fd5b840160a0818703121561240d57600080fd5b809150509250925092565b6000806000806000806080878903121561243157600080fd5b61243a87612014565b955060208701359450604087013567ffffffffffffffff8082111561245e57600080fd5b61246a8a838b01612030565b9096509450606089013591508082111561248357600080fd5b5061249089828a01612030565b979a9699509497509295939492505050565b60005b838110156124bd5781810151838201526020016124a5565b50506000910152565b60208152600082518060208401526124e58160408501602087016124a2565b601f017fffffffffffffffffffffffffffffffffffffffffffffffffffffffffffffffe0169190910160400192915050565b6000806040838503121561252a57600080fd5b61253383612014565b946020939093013593505050565b600080600080600080600080600060e08a8c03121561255f57600080fd5b6125688a612014565b985060208a0135975060408a0135965060608a0135955060808a0135945060a08a013567ffffffffffffffff808211156125a157600080fd5b6125ad8d838e01612030565b909650945060c08c01359150808211156125c657600080fd5b506125d38c828d01612030565b915080935050809150509295985092959850929598565b8183528181602085013750600060208284010152600060207fffffffffffffffffffffffffffffffffffffffffffffffffffffffffffffffe0601f840116840101905092915050565b85815260606020820152600061264d6060830186886125ea565b82810360408401526126608185876125ea565b98975050505050505050565b6020815260006126806020830184866125ea565b949350505050565b60007fffffffffffffffffffffffffffffffffffffffffffffffffffffffffffffffff82036126e0577f4e487b7100000000000000000000000000000000000000000000000000000000600052601160045260246000fd5b5060010190565b600181811c908216806126fb57607f821691505b602082108103612734577f4e487b7100000000000000000000000000000000000000000000000000000000600052602260045260246000fd5b50919050565b601f821115611c50576000816000526020600020601f850160051c810160208610156127635750805b601f850160051c820191505b818110156127825782815560010161276f565b505050505050565b815167ffffffffffffffff8111156127a4576127a4612196565b6127b8816127b284546126e7565b8461273a565b602080601f83116001811461280b57600084156127d55750858301515b7fffffffffffffffffffffffffffffffffffffffffffffffffffffffffffffffff600386901b1c1916600185901b178555612782565b6000858152602081207fffffffffffffffffffffffffffffffffffffffffffffffffffffffffffffffe08616915b8281101561285857888601518255948401946001909101908401612839565b508582101561289457878501517fffffffffffffffffffffffffffffffffffffffffffffffffffffffffffffffff600388901b60f8161c191681555b5050505050600190811b01905550565b6040815260006128b86040830186886125ea565b82810360208401526128cb8185876125ea565b979650505050505050565b60008083357fffffffffffffffffffffffffffffffffffffffffffffffffffffffffffffffe184360301811261290b57600080fd5b83018035915067ffffffffffffffff82111561292657600080fd5b60200191503681900382131561207257600080fd5b86815285602082015260806040820152600061295b6080830186886125ea565b828103606084015261296e8185876125ea565b9998505050505050505050565b60006020828403121561298d57600080fd5b5051919050565b600082516129a68184602087016124a2565b919091019291505056fea2646970667358221220abe2c87770b5127cf9f5ce1b0eb50354dd043155343f465697971faf5a6630d464736f6c63430008180033",
  "linkReferences": {},
  "deployedLinkReferences": {}
}